:020000040800F2
:10000000F8040020450100088B0800088308000858
:10001000870800083D050008B3180008000000002C
:10002000000000000000000000000000610A00085D
:100030004105000800000000FD080008ED0C000864
:100040005F0100085F0100085F0100085F01000810
:100050005F0100085F010008450500085F01000816
:100060005F0100085F0100085F0100085F010008F0
:100070005F0100085F0100085F0100085F010008E0
:100080005F0100085F0100085F0100085F010008D0
:100090005F0100085F0100085F01000879050008A2
:1000A0005F0100085F0100085F0100085F010008B0
:1000B0005F0100085F0100085F0100085F010008A0
:1000C0005F0100085F0100085F0100085F01000890
:1000D0005F010008CD1700085F0100085F010008FC
:1000E0005F0100085F0100085F0100085F01000870
:1000F0005F0100085F0100085F0100085F01000860
:100100005F0100085F010008191100085F01000885
:100110005F0100085F0100085F0100085F0100083F
:100120005F0100085F0100085F0100085F0100082F
:10013000DFF80CD000F0F0F900480047651900081E
:10014000F80400200648804706480047FEE7FEE71F
:10015000FEE7FEE7FEE7FEE7FEE7FEE7FEE7FEE777
:10016000F10C0008310100082DE9FE4F804681EABC
:100170000300C00F0C46009021F0004123F0004521
:10018000B8EB0200A94105D24046214690461C46E4
:100190000B46024623F00040104347D0270DC7F31B
:1001A0000A00C3F30A510290401A019040286BDA0A
:1001B000C3F3130040F4801B0098924620B1002343
:1001C000D2EB030A63EB0B0B01985946C0F14002D6
:1001D000504600F012F906460D4650465946019A1F
:1001E00000F02AF910EB08006141002487EA11525F
:1001F00084EAE7731A4340D0009A62B3019A012A55
:100200004FEA075215DC001B61EB02014FF0004280
:1002100002EA0752CDE90042001C41F58011324646
:100220002B4600F02AF903B0BDE8F08F4046214686
:10023000F9E7001B61EB0201001C41F58013001877
:100240005B412018A2F5001747EB030140EAD57087
:10025000B6196D4111E06D084FEA360645EAC075E2
:100260004FEA0752001B61EB0201001C41F58011AF
:1002700049084FEA30000019514132462B4603B07D
:10028000BDE8F04F00F0EAB80098012240000023DA
:10029000D0EB020263EBE073009821464FEAE07472
:1002A000B8EB000061EB0401E9E783F000435BE792
:1002B00081F0004158E72DE9FE4F81EA030404F084
:1002C000004421F0004100944FF0000B23F0004364
:1002D00050EA01045ED052EA03045BD0C3F30A542F
:1002E000C1F30A552C44A4F2F3340194A0FB025448
:1002F000C1F3130141F48011C3F3130343F48013DA
:1003000001FB024400FB034E840A970A44EA81542D
:1003100047EA8357A4FB076802958D0A05FB07850A
:100320004FEA932C04FB0C542705029D4FEA065814
:1003300047EA1637B5EB08056EEB070C870E920EF1
:1003400047EA811742EA8312A7FB0201B6EB0B01D1
:1003500064EB00042B0D43EA0C335E1844EB1C5095
:10036000DA465146E7FB0201C5F313044FEA0B33AB
:1003700043EA14534FEA0432019C43EA0603A4F112
:100380000C040294009CCDE900B400F076F803B0B0
:10039000BDE8F08F00200146F9E70EB5C10F80EAF5
:1003A000E0700844CA07002140F233438DE80E0094
:1003B0000A460B4600F061F803B000BD70B5C1F30A
:1003C0000A5201F000450024C1F3130140F2FF334B
:1003D00041F480119A4201DA002070BD40F23343AB
:1003E0009A42A2F2334203DC524200F015F800E0D8
:1003F00090402C43F1D0404270BD202A04DB203ACB
:1004000000FA02F1002070479140C2F1200320FA67
:1004100003F3194390407047202A04DB203A21FA65
:1004200002F00021704721FA02F3D040C2F120020D
:100430009140084319467047202A06DBCB17203A23
:1004400041FA02F043EAE07306E041FA02F3D040D9
:10045000C2F12002914008431946704710B5141E9E
:1004600073F1000408DA401C41F1000192185B416D
:100470001A4301D120F0010010BD2DE9F04D924644
:100480009B4611B1B1FA81F202E0B0FA80F220325B
:100490009046FFF7B2FF04460F4640EA0A0041EAE1
:1004A0000B0153465A46084313D0114653EA010044
:1004B00019D0C8F140025046FFF7AEFF05460E4680
:1004C000504659464246FFF798FF084305D00120A1
:1004D00004E020463946BDE8F08D0020054346EA99
:1004E000E0762C4337430A986305E40AA0EB080042
:1004F0000022FD0A44EA47540A3002D50020014692
:10050000E9E7010510196941DDE90845001969416C
:10051000BDE8F04DA2E70000064C074D06E0E0689C
:1005200040F0010394E8070098471034AC42F6D33A
:10053000FFF702FEF0190008101A000800BFFEE7DE
:100540007047000010B50A2001F0E6F901210848C3
:1005500000F0BDF8012807D10648006808B901205D
:1005600000E0002003490860012000F01FF810BDE2
:10057000001801408881224210B50A2001F0CCF910
:100580002021084800F0A3F838B90748006808B9E6
:10059000012000E0002004490860202000F006F857
:1005A00010BD000000100140A00121420149086077
:1005B00070470000140401402DE9F0410246002577
:1005C0000026002000230024002791F803C00CF02F
:1005D0000F0591F803C00CF0100CBCF1000F03D014
:1005E00091F802C04CEA050591F800C0BCF1000F7B
:1005F00031D0146800202BE04FF0010C0CFA00F30E
:10060000B1F800C00CEA03069E4220D183004FF0EF
:100610000F0C0CFA03F7BC4305FA03FC4CEA040484
:1006200091F803C0BCF1280F06D14FF0010C0CFA71
:1006300000FCC2F814C00AE091F803C0BCF1480FF6
:1006400005D14FF0010C0CFA00FCC2F810C0401CA0
:100650000828D1D31460B1F800C0BCF1FF0F34DD1D
:10066000546800202EE000F1080C4FF0010808FA51
:100670000CF3B1F800C00CEA03069E4221D18300BE
:100680004FF00F0C0CFA03F7BC4305FA03FC4CEADD
:10069000040491F803C0BCF1280F05D100F1080C47
:1006A00008FA0CF8C2F8148091F803C0BCF1480FA6
:1006B00007D100F1080C4FF0010808FA0CF8C2F855
:1006C0001080401C0828CED35460BDE8F08102465B
:1006D000002093680B400BB1012000E00020704720
:1006E000416170470161704770B504460D460021B5
:1006F000012000F0B7F92146002000F0B3F90021F5
:10070000012000F00DFA2146002000F009FAA8B2FD
:1007100001F002F970BD70B504460D46604246B264
:100720003146012000F09EF90021084600F09AF9B8
:100730003146012000F0F4F90021084600F0F0F9FC
:10074000A8B201F0E9F870BD70B504460D46C4F1D9
:10075000640046B22146002000F084F931460120B1
:1007600000F080F92146002000F0DAF9314601203E
:1007700000F0D6F9A8B201F0CFF870BD2DE9F04134
:1007800004460D46C4F1640046B2604247B270426E
:1007900041B2002000F066F93946012000F062F90C
:1007A000704241B2002000F0BBF93946012000F050
:1007B000B7F9A8B201F0B0F8BDE8F0812DE9F04139
:1007C00004460D46C4F1640046B2704247B2314659
:1007D000012000F047F93946002000F043F9314686
:1007E000012000F09DF93946002000F099F9A8B2E7
:1007F00001F092F8BDE8F08110B504460021012017
:1008000000F030F90021084600F02CF94FF4804147
:100810000E48FFF765FF4FF480510C48FFF760FF6B
:100820000021012000F07CF90021084600F078F951
:100830004FF400410548FFF753FF4FF400510348C0
:10084000FFF74EFFA0B201F067F810BD000C0140A9
:1008500070B504460D46604246B23146012000F0B4
:1008600001F92146002000F0FDF83146012000F09A
:1008700057F92146002000F053F9A8B201F04CF8D6
:1008800070BD00BFFEE700BFFEE7704770B50021F6
:1008900000230F22C47804B3154C246804F4E064E8
:1008A000C4F5E064210AC1F10403CA40447804FAA3
:1008B00003F184781440214309010E4C0678A155B8
:1008C000047804F01F050124AC4005786D11AD00DB
:1008D00005F1E025C5F8004109E0047804F01F05A2
:1008E0000124AC40044D0678761145F8264070BDD1
:1008F0000CED00E000E400E080E100E07047000063
:1009000029B1064AD2690243044BDA6104E0034A82
:10091000D2698243014BDA61704700000010024047
:1009200029B1064A92690243044B9A6104E0034AE2
:1009300092698243014B9A617047000000100240A7
:1009400000B589B001210420FFF7EAFF012108204A
:10095000FFF7D6FF0220ADF8200028208DF82300F5
:1009600003208DF8220008A92148FFF725FE022167
:100970001F48FFF7B7FE42F21070ADF81400472091
:10098000ADF810000020ADF81600ADF8120004A973
:10099000184800F0C9FE0420ADF804000020ADF8AE
:1009A00006000120ADF808000020ADF80A00032081
:1009B000ADF80C0001A90F4800F0B8FC01210D486A
:1009C00000F085FC32208DF81C0001208DF81D0000
:1009D00003208DF81E0001208DF81F0007A8FFF7E7
:1009E00055FF01220521034800F0F6FC09B000BDC7
:1009F00000080140000C004010B50020154B1B788A
:100A000003F040032BB3144B1B68190E124B1B68E9
:100A1000C3F30742D343DBB28B420BD151B90E4B28
:100A20001B88C3F307210C4B1A78D343DBB28B42EC
:100A300000D1084620B1074B1B7803F0800343B96F
:100A4000044B1B7823F04003024C23700023034C1B
:100A5000237010BD2000002024000020280000206A
:100A6000704700002DE9FC4782460C46642C00DBF1
:100A7000642414F1640F01DC6FF063042046FFF777
:100A80008CFC21F0004107460022214BFFF713FCAC
:100A9000054600221F4BFFF70BFCCDE90001FFF7D5
:100AA0008DFC0FFA80F9BAF1000F03D0BAF1010FF3
:100AB0002AD114E01FFA89F1174800F002FE002C39
:100AC00005DD4FF480411548FFF70AFE06E0002CD3
:100AD00004DA4FF480411148FFF704FE14E01FFAD6
:100AE00089F10D4800F0E9FD002C05DD4FF480513F
:100AF0000A48FFF7F7FD06E0002C04DA4FF48051B6
:100B00000648FFF7EDFD00BF00BFBDE8FC87000011
:100B1000000052400021BC4000080040000C014091
:100B20002DE9FC4782460C46642C00DB642414F15A
:100B3000640F01DC6FF063042046FFF72EFC21F008
:100B4000004107460022214BFFF7B5FB0546002276
:100B50001F4BFFF7ADFBCDE90001FFF72FFC0FFAAC
:100B600080F9BAF1000F03D0BAF1010F2AD114E0D5
:100B70001FFA89F1174800F0A6FD002C05DD4FF49F
:100B800000411548FFF7ACFD06E0002C04DA4FF4F5
:100B900000411148FFF7A6FD14E01FFA89F10D4846
:100BA00000F08DFD002C05DD4FF400510A48FFF7E1
:100BB00099FD06E0002C04DA4FF400510648FFF7D7
:100BC0008FFD00BF00BFBDE8FC8700000000524061
:100BD0000021BC4000080040000C014010B500F0AE
:100BE00001F810BD0CB5002001900090334800685A
:100BF00040F480303149086000BF3048006800F49C
:100C0000003000900198401C0190009818B901989C
:100C1000B0F5A06FF1D12948006800F4003010B1A0
:100C20000120009001E0002000900098012843D1AD
:100C30002348006840F01000214908600846006819
:100C400020F0030008600846006840F002000860D9
:100C50001A48406819494860084640684860084694
:100C6000406840F4806048600846406820F47C108A
:100C700048600846406840F4E8104860084600684C
:100C800040F08070086000BF0C48006800F0007001
:100C90000028F9D00948406820F00300074948605F
:100CA0000846406840F00200486000BF03484068C2
:100CB00000F00C000828F9D10CBD00000010024023
:100CC00000200240042808D14FF0E021096941F0DA
:100CD00004014FF0E022116107E04FF0E0210969C3
:100CE00021F004014FF0E0221161704770470000CD
:100CF00010B51348006840F001001149086008462B
:100D00004068104908400E494860084600680E498E
:100D100008400B4908600846006820F480200860FD
:100D20000846406820F4FE0048604FF41F008860C9
:100D3000FFF754FF4FF000600449086010BD000049
:100D4000001002400000FFF8FFFFF6FE08ED00E093
:100D5000F0B50C46154600220021068C4FF6FE77B2
:100D60003E400684028B018C4FF60C7632407E1C8E
:100D700006EA03162E433243104EB0420ED0104EF8
:100D8000B0420BD0B0F1804F08D00E4EB04205D02B
:100D90000D4EB04202D00D4EB04206D14FF6FD7658
:100DA000314044F00106314305E04FF6F57631401D
:100DB00044F00106314302830184F0BD002C014060
:100DC000003401400004004000080040000C0040D6
:100DD000F0B50C461546002200210026078C4FF680
:100DE000EF7C07EA0C070784028B018C4FF6FF7734
:100DF00007EA041640F6FF473A404FF6FF7707EA46
:100E000003373A434FF6FF7707EA05273A43114F76
:100E1000B8420ED0104FB8420BD0B0F1804F08D07E
:100E20000E4FB84205D00E4FB84202D00D4FB84217
:100E300006D14FF6DF77394046F01007394305E019
:100E40004FF65F77394044F010073943028301843D
:100E5000F0BD0000002C01400034014000040040BF
:100E600000080040000C0040F0B50C46154600227A
:100E700000210026078C4FF6FF6C07EA0C07078459
:100E8000828B018C4FF6FF7707EA04264FF60C772A
:100E90003A404FF6FF7707EA03172F433A43114FC3
:100EA000B8420ED0104FB8420BD0B0F1804F08D0EE
:100EB0000E4FB84205D00E4FB84202D00D4FB84287
:100EC00006D14FF6FF57394046F48077394305E0A5
:100ED0004FF2FF57394044F48077394382830184CD
:100EE000F0BD0000002C014000340140000400402F
:100EF00000080040000C0040F0B50C4615460022EA
:100F000000210026078C4EF6FF7C07EA0C070784B9
:100F1000828B018C4FF6FF7707EA043640F6FF47D5
:100F20003A404FF6FF7707EA05273A434FF6FF7737
:100F300007EA03373A43114FB8420ED0104FB84278
:100F40000BD0B0F1804F08D00E4FB84205D00E4FF5
:100F5000B84202D00D4FB84206D14DF6FF77394066
:100F600046F48057394305E047F6FF57394044F4CB
:100F70008057394382830184F0BD0000002C01407A
:100F8000003401400004004000080040000C004014
:100F900030B589B005460C4601210420FFF7B0FCAE
:100FA00001210820FFF7BCFC4FF48050ADF804008D
:100FB00003208DF8060010208DF8070001A9544881
:100FC000FFF7FAFA4020ADF8040003208DF8060080
:100FD00018208DF8070001A94D48FFF7EDFA4FF4EE
:100FE0008040ADF8040003208DF8060010208DF835
:100FF000070001A94648FFF7DFFA4FF48070ADF80B
:10100000040003208DF8060018208DF8070001A9C0
:101010003F48FFF7D1FA4FF40050ADF80400032029
:101020008DF8060010208DF8070001A93848FFF759
:10103000C3FA8020ADF8040003208DF806001820C4
:101040008DF8070001A93248FFF7B6FA4FF40040C7
:10105000ADF8040003208DF8060010208DF807007D
:1010600001A92B48FFF7A8FA4FF40070ADF804006F
:1010700003208DF8060018208DF8070001A92448E8
:10108000FFF79AFAADF81C50ADF818400020ADF803
:101090001E00ADF81A0006A91E4800F045FB70209E
:1010A000ADF808000120ADF80A000020ADF80E00F0
:1010B000ADF8100002A9174800F05AFA02A9154825
:1010C00000F094F902A9134800F0E6F902A91148CA
:1010D00000F0A8FA01210F4800F005F908210D4899
:1010E00000F096FA08210B4800F0CCF908210948D5
:1010F00000F031FA0821074800F0D2FA0121054832
:1011000000F0D6F80121034800F0E1F809B030BD45
:10111000000C01400008004010B501215E4800F0BD
:10112000F4F8F8B15D48007800F08000D0B15B4879
:10113000007820F01000594908700846007800F047
:101140000F0020B90846007840F04000087053486E
:10115000007800F00F000E2805DA50480078401C97
:101160004E4908700AE04D48007820F080004B4955
:1011700008700846007800F0F00008700421464826
:1011800000F0C3F8002810D04548006870B1022173
:10119000414800F0D3F900213F4800F097FA3F485A
:1011A000007840F010003D49087070E03A4800F0C7
:1011B000A9F83C4908800021374800F0BFF93748BA
:1011C000007800F0100000285BD03448007800F070
:1011D0008000E8B333480088B0F5967F0DDD3148D4
:1011E0000088B0F5487F08DA2F48006840002E4993
:1011F000086008460068086043E02A480088B0F5A7
:10120000AF6F0FDD27480088B0F5E16F0ADA264896
:1012100000684000244908600846006840F001006A
:1012200008602EE01F48008840F69801884228DDBB
:101230001C48008840F62821884222DA1B480078A2
:10124000401C1A4908701548007800F0F00000E0D2
:1012500002E01249087014E01248008841F2680167
:1012600088420EDD0F48008841F25C21884208DA8E
:101270000A48007840F080000849087000200B49B7
:1012800008700648007820F0100004490870052115
:10129000014800F019F810BD000C004020000020AB
:1012A0000401214222000020240000202800002008
:1012B00021B1028842F08002028004E002884FF6E9
:1012C0007F731A4002807047CA430282704721B17F
:1012D000028842F00102028004E002884FF6FE73A9
:1012E0001A400280704731B1B0F8442042F4004205
:1012F000A0F8442005E0B0F84420C2F30E02A0F8A4
:10130000442070470146088F704730B502460020E0
:1013100000230024158A05EA0103958905EA0104E2
:1013200013B10CB1012000E0002030BD70B50546BE
:101330000C46244885420ED0234885420BD0B5F197
:10134000804F08D02148854205D02148854202D0EF
:101350002048854200D100E000BF208850B9238991
:10136000A28861882846FFF7F3FCE188284600F050
:10137000AFF925E0208804280AD12389A288618852
:101380002846FFF725FDE188284600F0AAF917E076
:10139000208808280AD12389A28861882846FFF777
:1013A00063FDE188284600F0A9F909E02389A288B5
:1013B00061882846FFF7A0FDE188284600F0A7F9DC
:1013C00070BD0000002C01400034014000040040CA
:1013D00000080040000C00401AB183890B43838150
:1013E00002E083898B4383817047000070B500243D
:1013F00000220023058C4FF6FE7635400584028CD2
:101400008388048B4FF68F752C40B51E2C400D88B9
:101410002C43751E2A400D892A434D882A43144DBA
:10142000A8420BD0134DA84208D0134DA84205D0B6
:10143000124DA84202D0124DA84213D14FF6F775B3
:101440002A404D892A434FF6FB752A408D882A434E
:101450004FF6FF652B404FF6FF552B408D892B43F0
:10146000CD892B4383800483CD888586028470BD1B
:10147000002C014000340140004001400044014084
:10148000004801400A460021018B4FF6F7731940CE
:10149000114301837047000070B50024002200232F
:1014A000058C4FF6EF7635400584028C8388048BDB
:1014B00048F6FF752C404FF6FF452C400D884FF63F
:1014C000FF7606EA05252C434FF6DF752A400D8985
:1014D00006EA05152A434D8806EA05152A43154DE7
:1014E000A84202D0144DA8421DD14FF67F752A4064
:1014F0004D894FF6FF7606EA05152A434FF6BF756C
:101500002A408D8806EA05152A434FF6FF352B4001
:101510004FF2FF752B408D8906EA85052B43CD8957
:1015200006EA85052B4383800483CD8805870284E2
:1015300070BD0000002C0140003401400A4600212B
:10154000018C4FF6DF7319404FF6FF7303EA021365
:101550001943018470470A460021018B4FF2FF7343
:1015600019404FF6FF7303EA0223194301837047C2
:1015700070B5002400220023058C4FF6FF6635402D
:101580000584028C8388848B4FF68F752C404FF630
:10159000FC752C400D882C434FF6FF552A400D89D1
:1015A0004FF6FF7606EA05252A434D8806EA05250B
:1015B0002A43154DA84202D0144DA8421DD14FF226
:1015C000FF752A404D894FF6FF7606EA05252A4326
:1015D0004FF6FF352A408D8806EA05252A434EF648
:1015E000FF752B404DF6FF752B408D8906EA0515DA
:1015F0002B43CD8906EA05152B4383808483CD8850
:101600008587028470BD0000002C01400034014039
:101610000A460021818B4FF6F773194011438183ED
:101620007047000070B5002200230024058C4EF6A0
:10163000FF7635400584038C8488828B48F6FF75DD
:101640002A404FF6FF452A400D884FF6FF7606EAFE
:1016500005252A434DF6FF752B400D8906EA053511
:101660002B434D8806EA05352B430B4DA84202D08B
:101670000A4DA84208D14BF6FF752C408D894FF6D4
:10168000FF7606EA85152C4384808283CD88A0F8F6
:101690004050038470BD0000002C01400034014024
:1016A0000A460021818B4FF2FF7319404FF6FF73FA
:1016B00003EA0223194381837047818670470187BB
:1016C000704781877047A0F8401070478184704749
:1016D000028B4FF6F3731A400283028B0A43028394
:1016E0007047028B4FF2FF331A400283028B4FF692
:1016F000FF7303EA01231A4302837047828B4FF67C
:10170000F3731A408283828B0A4382837047828BF1
:101710004FF2FF331A408283828B4FF6FF7303EA46
:1017200001231A4382837047002202881D4B98428E
:101730000ED01D4B98420BD0B0F1804F08D01B4B00
:10174000984205D01A4B984202D01A4B984204D1C5
:101750004FF68F731A404B881A43174B984207D0A5
:10176000164B984204D04FF6FF431A40CB881A43D9
:1017700002808B8883850B8803850A4B98420BD0A7
:10178000094B984208D00E4B984205D00D4B984219
:1017900002D00D4B984201D10B7A0386012383823C
:1017A00070470000002C014000340140000400405C
:1017B00000080040000C00400010004000140040F1
:1017C00000400140004401400048014010B540F293
:1017D00025511D4800F03EF810B31B4800F064F896
:1017E000C4B21A48008800F40040C8B917480088FD
:1017F00000F4804060B10A2C03D000201349088017
:1018000020E01248008840F400401049088019E0A8
:101810000D2C06D10D48008840F480400B4908800B
:1018200010E00A480088C0F30D0009490C5407482D
:101830000088401C0549088008460088C72801DD4B
:101840000020088010BD0000003801401C0000206E
:101850002C00002070B50246002400230025002043
:1018600040F66A16B14200D100BFC1F3421501F043
:101870001F03012606FA03F3012D02D19689334096
:1018800006E0022D02D1168A334001E0968A3340E9
:101890000C12012606FA04F41688344013B10CB178
:1018A000012000E0002070BD01468888C0F30800D8
:1018B000704700BFFEE702E008C8121F08C1002AF7
:1018C000FAD170477047002001E001C1121F002AC1
:1018D000FBD1704710B56FF00400FFF7F3F90A4829
:1018E00000680A49B0FBF1F0094908700846007821
:1018F00000EB4001C1EBC0104FF6FF7101EAC000E0
:101900000449088010BD00000000002000127A0089
:1019100014000020160000200146114A12884A4394
:101920004FF0E0235A6100229A611A46126942F090
:1019300001021A6100BF4FF0E022106900F00102BD
:101940001AB100F48032002AF5D04FF0E02212697B
:1019500022F001024FF0E0231A6100229A617047E1
:1019600016000020FFF7B6FF002141F61F40FFF7E9
:101970000FFBFEF7E5FF4FF4FA70FEF73DFF36E090
:10198000FFF73AF80446902C2BD006DC022C10D03E
:10199000222C17D0622C29D106E0A82C1CD0C22CF6
:1019A0000BD0E02C22D112E064213C20FEF750FF46
:1019B0001CE06420FEF720FF18E064213C20FEF7C5
:1019C000AAFE13E064213C20FEF78EFE0EE06421A7
:1019D0003C20FEF7B9FE09E064213C20FEF7EEFE54
:1019E00004E064213C20FEF7C9FE00BF00BFC7E74A
:1019F000101A0008000000202C000000B618000893
:101A00003C1A00082C000020CC040000C618000876
:101A100000A24A04000000000000000001020304CC
:101A20000607080900000000000000000000000098
:0C1A3000000000000000000000000000AA
:0400000508000145A9
:00000001FF
