:020000040800F2
:10000000D8040020450100084D03000845030008FE
:10001000490300088D010008A70500080000000042
:100020000000000000000000000000007103000854
:1000300091010008000000004F0300085D04000863
:100040005F0100085F0100085F0100085F01000810
:100050005F0100085F010008A10100085F010008BE
:100060005F0100085F0100085F0100085F010008F0
:100070005F0100085F0100085F0100085F010008E0
:100080005F0100085F0100085F0100085F010008D0
:100090005F0100085F0100085F010008D50100084A
:1000A0005F0100085F0100085F0100085F010008B0
:1000B0005F0100085F0100085F0100085F010008A0
:1000C0005F0100085F0100085F0100085F01000890
:1000D0005F010008C10400085F0100085F0100081B
:1000E0005F0100085F0100085F0100085F01000870
:1000F0005F0100085F0100085F0100085F01000860
:100100005F0100085F0100085F0100085F0100084F
:100110005F0100085F0100085F0100085F0100083F
:100120005F0100085F0100085F0100085F0100082F
:10013000DFF80CD000F018F800480047150600085A
:10014000D80400200648804706480047FEE7FEE73F
:10015000FEE7FEE7FEE7FEE7FEE7FEE7FEE7FEE777
:100160006104000831010008064C074D06E0E06814
:1001700040F0010394E8070098471034AC42F6D3EE
:10018000FFF7DAFF700600089006000800BFFEE7E0
:100190007047002100E0491C8142FCD370470000F9
:1001A00010B50A2000F010FA0121084800F0BDF84F
:1001B000012807D10648006808B9012000E00020A6
:1001C00003490860012000F01FF810BD001801402D
:1001D0008881224210B50A2000F0F6F92021084853
:1001E00000F0A3F838B90748006808B9012000E01A
:1001F000002004490860202000F006F810BD00002F
:1002000000100140A0012142014908607047000030
:10021000140401402DE9F04102460025002600208B
:1002200000230024002791F803C00CF00F0591F87B
:1002300003C00CF0100CBCF1000F03D091F802C009
:100240004CEA050591F800C0BCF1000F31D01468EC
:1002500000202BE04FF0010C0CFA00F3B1F800C0C5
:100260000CEA03069E4220D183004FF00F0C0CFADB
:1002700003F7BC4305FA03FC4CEA040491F803C0FD
:10028000BCF1280F06D14FF0010C0CFA00FCC2F8AB
:1002900014C00AE091F803C0BCF1480F05D14FF03B
:1002A000010C0CFA00FCC2F810C0401C0828D1D385
:1002B0001460B1F800C0BCF1FF0F34DD54680020B9
:1002C0002EE000F1080C4FF0010808FA0CF3B1F829
:1002D00000C00CEA03069E4221D183004FF00F0CB0
:1002E0000CFA03F7BC4305FA03FC4CEA040491F84A
:1002F00003C0BCF1280F05D100F1080C08FA0CF876
:10030000C2F8148091F803C0BCF1480F07D100F186
:10031000080C4FF0010808FA0CF8C2F81080401CD5
:100320000828CED35460BDE8F081024600209368CF
:100330000B400BB1012000E0002070474161704785
:100340000161704700BFFEE700BFFEE770477047DE
:1003500029B1064A92690243044B9A6104E0034AB8
:1003600092698243014B9A6170470000001002407D
:10037000704710B500F002F810BD00000CB5002069
:10038000019000903348006840F4803031490860A3
:1003900000BF3048006800F4003000900198401C15
:1003A0000190009818B90198B0F5A06FF1D12948D3
:1003B000006800F4003010B10120009001E000203E
:1003C00000900098012843D12348006840F01000B5
:1003D000214908600846006820F0030008600846CC
:1003E000006840F0020008601A48406819494860F7
:1003F0000846406848600846406840F480604860AD
:100400000846406820F47C1048600846406840F484
:10041000E81048600846006840F08070086000BF3F
:100420000C48006800F000700028F9D009484068C6
:1004300020F00300074948600846406840F0020089
:10044000486000BF0348406800F00C000828F9D15C
:100450000CBD000000100240002002407047000068
:1004600010B51348006840F00100114908600846C3
:100470004068104908400E494860084600680E4927
:1004800008400B4908600846006820F48020086096
:100490000846406820F4FE0048604FF41F00886062
:1004A000FFF767FF4FF000600449086010BD0000CF
:1004B000001002400000FFF8FFFFF6FE08ED00E02C
:1004C00010B540F225511D4800F03EF810B31B480E
:1004D00000F064F8C4B21A48008800F40040C8B9BB
:1004E0001748008800F4804060B10A2C03D0002037
:1004F0001349088020E01248008840F40040104969
:10050000088019E00D2C06D10D48008840F4804089
:100510000B49088010E00A480088C0F30D00094923
:100520000C5407480088401C05490880084600888C
:10053000C72801DD0020088010BD00000038014000
:10054000080000200C00002070B5024600240023A3
:100550000025002040F66A16B14200D100BFC1F369
:10056000421501F01F03012606FA03F3012D02D103
:100570009689334006E0022D02D1168A334001E00D
:10058000968A33400C12012606FA04F41688344089
:1005900013B10CB1012000E0002070BD0146888835
:1005A000C0F30800704700BFFEE702E008C8121F52
:1005B00008C1002AFAD170477047002001E001C14C
:1005C000121F002AFBD170470146114A12884A4384
:1005D0004FF0E0235A6100229A611A46126942F0F4
:1005E00001021A6100BF4FF0E022106900F0010221
:1005F0001AB100F48032002AF5D04FF0E0221269DF
:1006000022F001024FF0E0231A6100229A61704744
:100610000200002008B501210420FFF799FE4FF4E5
:100620008070ADF8000010208DF8030003208DF8D5
:10063000020069460C48FFF7EDFD4FF480710A484F
:10064000FFF77EFE0FE04FF480710748FFF776FE5C
:100650000648FFF79EFD4FF480710348FFF770FED8
:100660000248FFF796FDEEE700080140C0C62D00E6
:1006700090060008000000200C000000AA050008F9
:100680009C0600080C000020CC040000BA050008FD
:0C0690000000000000000000000000005E
:0400000508000145A9
:00000001FF
