:020000040800F2
:10000000E8040020450100087B070008730700088A
:10001000770700083D050008DB100008000000001D
:10002000000000000000000000000000C107000800
:1000300041050008000000007D0700084D0A000887
:100040005F0100085F0100085F0100085F01000810
:100050005F0100085F010008450500085F01000816
:100060005F0100085F0100085F0100085F010008F0
:100070005F0100085F0100085F0100085F010008E0
:100080005F0100085F0100085F0100085F010008D0
:100090005F0100085F0100085F01000879050008A2
:1000A0005F0100085F0100085F0100085F010008B0
:1000B0005F0100085F0100085F0100085F010008A0
:1000C0005F0100085F0100085F0100085F01000890
:1000D0005F010008F50F00085F0100085F010008DC
:1000E0005F0100085F0100085F0100085F01000870
:1000F0005F0100085F0100085F0100085F01000860
:100100005F0100085F0100085F0100085F0100084F
:100110005F0100085F0100085F0100085F0100083F
:100120005F0100085F0100085F0100085F0100082F
:10013000DFF80CD000F0F0F9004800478D110008FE
:10014000E80400200648804706480047FEE7FEE72F
:10015000FEE7FEE7FEE7FEE7FEE7FEE7FEE7FEE777
:10016000510A0008310100082DE9FE4F804681EA5E
:100170000300C00F0C46009021F0004123F0004521
:10018000B8EB0200A94105D24046214690461C46E4
:100190000B46024623F00040104347D0270DC7F31B
:1001A0000A00C3F30A510290401A019040286BDA0A
:1001B000C3F3130040F4801B0098924620B1002343
:1001C000D2EB030A63EB0B0B01985946C0F14002D6
:1001D000504600F012F906460D4650465946019A1F
:1001E00000F02AF910EB08006141002487EA11525F
:1001F00084EAE7731A4340D0009A62B3019A012A55
:100200004FEA075215DC001B61EB02014FF0004280
:1002100002EA0752CDE90042001C41F58011324646
:100220002B4600F02AF903B0BDE8F08F4046214686
:10023000F9E7001B61EB0201001C41F58013001877
:100240005B412018A2F5001747EB030140EAD57087
:10025000B6196D4111E06D084FEA360645EAC075E2
:100260004FEA0752001B61EB0201001C41F58011AF
:1002700049084FEA30000019514132462B4603B07D
:10028000BDE8F04F00F0EAB80098012240000023DA
:10029000D0EB020263EBE073009821464FEAE07472
:1002A000B8EB000061EB0401E9E783F000435BE792
:1002B00081F0004158E72DE9FE4F81EA030404F084
:1002C000004421F0004100944FF0000B23F0004364
:1002D00050EA01045ED052EA03045BD0C3F30A542F
:1002E000C1F30A552C44A4F2F3340194A0FB025448
:1002F000C1F3130141F48011C3F3130343F48013DA
:1003000001FB024400FB034E840A970A44EA81542D
:1003100047EA8357A4FB076802958D0A05FB07850A
:100320004FEA932C04FB0C542705029D4FEA065814
:1003300047EA1637B5EB08056EEB070C870E920EF1
:1003400047EA811742EA8312A7FB0201B6EB0B01D1
:1003500064EB00042B0D43EA0C335E1844EB1C5095
:10036000DA465146E7FB0201C5F313044FEA0B33AB
:1003700043EA14534FEA0432019C43EA0603A4F112
:100380000C040294009CCDE900B400F076F803B0B0
:10039000BDE8F08F00200146F9E70EB5C10F80EAF5
:1003A000E0700844CA07002140F233438DE80E0094
:1003B0000A460B4600F061F803B000BD70B5C1F30A
:1003C0000A5201F000450024C1F3130140F2FF334B
:1003D00041F480119A4201DA002070BD40F23343AB
:1003E0009A42A2F2334203DC524200F015F800E0D8
:1003F00090402C43F1D0404270BD202A04DB203ACB
:1004000000FA02F1002070479140C2F1200320FA67
:1004100003F3194390407047202A04DB203A21FA65
:1004200002F00021704721FA02F3D040C2F120020D
:100430009140084319467047202A06DBCB17203A23
:1004400041FA02F043EAE07306E041FA02F3D040D9
:10045000C2F12002914008431946704710B5141E9E
:1004600073F1000408DA401C41F1000192185B416D
:100470001A4301D120F0010010BD2DE9F04D924644
:100480009B4611B1B1FA81F202E0B0FA80F220325B
:100490009046FFF7B2FF04460F4640EA0A0041EAE1
:1004A0000B0153465A46084313D0114653EA010044
:1004B00019D0C8F140025046FFF7AEFF05460E4680
:1004C000504659464246FFF798FF084305D00120A1
:1004D00004E020463946BDE8F08D0020054346EA99
:1004E000E0762C4337430A986305E40AA0EB080042
:1004F0000022FD0A44EA47540A3002D50020014692
:10050000E9E7010510196941DDE90845001969416C
:10051000BDE8F04DA2E70000064C074D06E0E0689C
:1005200040F0010394E8070098471034AC42F6D33A
:10053000FFF702FEB8110008D811000800BFFEE75F
:100540007047000010B50A2000F0FAFD01210848AC
:1005500000F0BDF8012807D10648006808B901205D
:1005600000E0002003490860012000F01FF810BDE2
:10057000001801408881224210B50A2000F0E0FDF9
:100580002021084800F0A3F838B90748006808B9E6
:10059000012000E0002004490860202000F006F857
:1005A00010BD000000100140A00121420149086077
:1005B00070470000140401402DE9F0410246002577
:1005C0000026002000230024002791F803C00CF02F
:1005D0000F0591F803C00CF0100CBCF1000F03D014
:1005E00091F802C04CEA050591F800C0BCF1000F7B
:1005F00031D0146800202BE04FF0010C0CFA00F30E
:10060000B1F800C00CEA03069E4220D183004FF0EF
:100610000F0C0CFA03F7BC4305FA03FC4CEA040484
:1006200091F803C0BCF1280F06D14FF0010C0CFA71
:1006300000FCC2F814C00AE091F803C0BCF1480FF6
:1006400005D14FF0010C0CFA00FCC2F810C0401CA0
:100650000828D1D31460B1F800C0BCF1FF0F34DD1D
:10066000546800202EE000F1080C4FF0010808FA51
:100670000CF3B1F800C00CEA03069E4221D18300BE
:100680004FF00F0C0CFA03F7BC4305FA03FC4CEADD
:10069000040491F803C0BCF1280F05D100F1080C47
:1006A00008FA0CF8C2F8148091F803C0BCF1480FA6
:1006B00007D100F1080C4FF0010808FA0CF8C2F855
:1006C0001080401C0828CED35460BDE8F08102465B
:1006D000002093680B400BB1012000E00020704720
:1006E000416170470161704710B504460021012047
:1006F00000F068F80021084600F064F84FF48041EB
:100700000E48FFF7EDFF4FF480510C48FFF7E8FF6C
:100710000021012000F0B4F80021084600F0B0F8F4
:100720004FF400410548FFF7DBFF4FF40051034849
:10073000FFF7D6FFA0B200F003FD10BD000C014092
:1007400070B504460D46604246B23146012000F0C5
:1007500039F82146002000F035F83146012000F03C
:100760008FF82146002000F08BF8A8B200F0E8FCDA
:1007700070BD00BFFEE700BFFEE770477047000096
:1007800029B1064AD2690243044BDA6104E0034A04
:10079000D2698243014BDA617047000000100240C9
:1007A00029B1064A92690243044B9A6104E0034A64
:1007B00092698243014B9A61704700000010024029
:1007C000704700002DE9FC4782460C46642C00DB94
:1007D000642414F1640F01DC6FF063042046FFF71A
:1007E000DCFD21F0004107460022214BFFF763FDAD
:1007F000054600221F4BFFF75BFDCDE90001FFF727
:10080000DDFD0FFA80F9BAF1000F03D0BAF1010F44
:100810002AD114E01FFA89F1174800F094FB002C4C
:1008200005DD4FF480411548FFF75AFF06E0002C24
:1008300004DA4FF480411148FFF754FF14E01FFA27
:1008400089F10D4800F07BFB002C05DD4FF4805151
:100850000A48FFF747FF06E0002C04DA4FF4805106
:100860000648FFF73DFF00BF00BFBDE8FC87000062
:10087000000052400021BC4000080040000C014034
:100880002DE9FC4782460C46642C00DB642414F1FD
:10089000640F01DC6FF063042046FFF77EFD21F05A
:1008A000004107460022214BFFF705FD05460022C7
:1008B0001F4BFFF7FDFCCDE90001FFF77FFD0FFAAD
:1008C00080F9BAF1000F03D0BAF1010F2AD114E078
:1008D0001FFA89F1174800F038FB002C05DD4FF4B2
:1008E00000411548FFF7FCFE06E0002C04DA4FF447
:1008F00000411148FFF7F6FE14E01FFA89F10D4898
:1009000000F01FFB002C05DD4FF400510A48FFF7F3
:10091000E9FE06E0002C04DA4FF400510648FFF728
:10092000DFFE00BF00BFBDE8FC87000000005240B2
:100930000021BC4000080040000C014010B500F050
:1009400001F810BD0CB500200190009033480068FC
:1009500040F480303149086000BF3048006800F43E
:10096000003000900198401C0190009818B901983F
:10097000B0F5A06FF1D12948006800F4003010B143
:100980000120009001E0002000900098012843D150
:100990002348006840F010002149086008460068BC
:1009A00020F0030008600846006840F0020008607C
:1009B0001A48406819494860084640684860084637
:1009C000406840F4806048600846406820F47C102D
:1009D00048600846406840F4E810486008460068EF
:1009E00040F08070086000BF0C48006800F00070A4
:1009F0000028F9D00948406820F003000749486002
:100A00000846406840F00200486000BF0348406864
:100A100000F00C000828F9D10CBD000000100240C5
:100A200000200240042808D14FF0E021096941F07C
:100A300004014FF0E022116107E04FF0E021096965
:100A400021F004014FF0E02211617047704700006F
:100A500010B51348006840F00100114908600846CD
:100A60004068104908400E494860084600680E4931
:100A700008400B4908600846006820F480200860A0
:100A80000846406820F4FE0048604FF41F0088606C
:100A9000FFF754FF4FF000600449086010BD0000EC
:100AA000001002400000FFF8FFFFF6FE08ED00E036
:100AB00030B589B005460C4601210420FFF760FEE1
:100AC00001210820FFF76CFE4FF48050ADF80400C0
:100AD00003208DF8060010208DF8070001A9544866
:100AE000FFF76AFD4020ADF8040003208DF80600F2
:100AF00018208DF8070001A94D48FFF75DFD4FF460
:100B00008040ADF8040003208DF8060010208DF819
:100B1000070001A94648FFF74FFD4FF48070ADF87C
:100B2000040003208DF8060018208DF8070001A9A5
:100B30003F48FFF741FD4FF40050ADF8040003209B
:100B40008DF8060010208DF8070001A93848FFF73E
:100B500033FD8020ADF8040003208DF80600182036
:100B60008DF8070001A93248FFF726FD4FF4004039
:100B7000ADF8040003208DF8060010208DF8070062
:100B800001A92B48FFF718FD4FF40070ADF80400E1
:100B900003208DF8060018208DF8070001A92448CD
:100BA000FFF70AFDADF81C50ADF818400020ADF875
:100BB0001E00ADF81A0006A91E4800F0C9F9702001
:100BC000ADF808000120ADF80A000020ADF80E00D5
:100BD000ADF8100002A9174800F00CF902A9154859
:100BE00000F052F802A9134800F0A4F802A9114835
:100BF00000F05AF901210F4800F036F808210D489D
:100C000000F048F908210B4800F08AF8082109484B
:100C100000F0E2F80821074800F084F901210548B6
:100C200000F00AF80121034800F012F809B030BDC5
:100C3000000C01400008004021B1028842F080020F
:100C4000028004E002884FF67F731A4002807047EA
:100C500021B1028842F00102028004E002884FF6CE
:100C6000FE731A400280704731B1B0F8442042F45C
:100C70000042A0F8442005E0B0F84420C2F30E0280
:100C8000A0F844207047000070B500240022002323
:100C9000058C4FF6FE7635400584028C8388048BE4
:100CA0004FF68F752C40B51E2C400D882C43751EB9
:100CB0002A400D892A434D882A43144DA8420BD05F
:100CC000134DA84208D0134DA84205D0124DA8429A
:100CD00002D0124DA84213D14FF6F7752A404D8924
:100CE0002A434FF6FB752A408D882A434FF6FF654D
:100CF0002B404FF6FF552B408D892B43CD892B433D
:100D000083800483CD888586028470BD002C0140D9
:100D100000340140004001400044014000480140CF
:100D20000A460021018B4FF6F773194011430183E6
:100D30007047000070B5002400220023058C4FF698
:100D4000EF7635400584028C8388048B48F6FF7566
:100D50002C404FF6FF452C400D884FF6FF7606EAF3
:100D600005252C434FF6DF752A400D8906EA051547
:100D70002A434D8806EA05152A43154DA84202D09C
:100D8000144DA8421DD14FF67F752A404D894FF66C
:100D9000FF7606EA05152A434FF6BF752A408D886F
:100DA00006EA05152A434FF6FF352B404FF2FF7533
:100DB0002B408D8906EA85052B43CD8906EA8505FA
:100DC0002B4383800483CD880587028470BD000097
:100DD000002C0140003401400A460021018B4FF2F3
:100DE000FF7319404FF6FF7303EA0223194301838F
:100DF0007047000070B5002400220023058C4FF6D8
:100E0000FF6635400584028C8388848B4FF68F758E
:100E10002C404FF6FC752C400D882C434FF6FF55A7
:100E20002A400D894FF6FF7606EA05252A434D88AC
:100E300006EA05252A43154DA84202D0144DA842C2
:100E40001DD14FF2FF752A404D894FF6FF7606EA15
:100E500005252A434FF6FF352A408D8806EA0525E9
:100E60002A434EF6FF752B404DF6FF752B408D89BA
:100E700006EA05152B43CD8906EA05152B43838029
:100E80008483CD888587028470BD0000002C0140DA
:100E9000003401400A460021818B4FF6F773194058
:100EA000114381837047000070B5002200230024A5
:100EB000058C4EF6FF7635400584038C8488828B42
:100EC00048F6FF752A404FF6FF452A400D884FF639
:100ED000FF7606EA05252A434DF6FF752B400D895E
:100EE00006EA05352B434D8806EA05352B430B4DA5
:100EF000A84202D00A4DA84208D14BF6FF752C40FB
:100F00008D894FF6FF7606EA85152C43848082830F
:100F1000CD88A0F84050038470BD0000002C014033
:100F2000003401400A460021818B4FF2FF731940C3
:100F30004FF6FF7303EA02231943818370478186CA
:100F400070470187704781877047A0F8401070474D
:100F5000002202881D4B98420ED01D4B98420BD0A8
:100F6000B0F1804F08D01B4B984205D01A4B9842E5
:100F700002D01A4B984204D14FF68F731A404B8817
:100F80001A43174B984207D0164B984204D04FF69D
:100F9000FF431A40CB881A4302808B8883850B88D5
:100FA00003850A4B98420BD0094B984208D00E4B50
:100FB000984205D00D4B984202D00D4B984201D17A
:100FC0000B7A03860123838270470000002C0140C6
:100FD000003401400004004000080040000C0040C4
:100FE0000010004000140040004001400044014057
:100FF0000048014010B540F225511D4800F03EF870
:1010000010B31B4800F064F8C4B21A48008800F41A
:101010000040C8B91748008800F4804060B10A2C2D
:1010200003D000201349088020E01248008840F4D3
:1010300000401049088019E00D2C06D10D480088A9
:1010400040F480400B49088010E00A480088C0F353
:101050000D0009490C5407480088401C05490880C8
:1010600008460088C72801DD0020088010BD000068
:10107000003801401C0000202000002070B502460E
:10108000002400230025002040F66A16B14200D15A
:1010900000BFC1F3421501F01F03012606FA03F356
:1010A000012D02D19689334006E0022D02D1168A25
:1010B000334001E0968A33400C12012606FA04F40C
:1010C0001688344013B10CB1012000E0002070BD3F
:1010D00001468888C0F30800704700BFFEE702E0C1
:1010E00008C8121F08C1002AFAD1704770470020B3
:1010F00001E001C1121F002AFBD1704710B56FF04B
:101100000400FFF78FFC0A4800680A49B0FBF1F0C1
:10111000094908700846007800EB4001C1EBC01097
:101120004FF6FF7101EAC0000449088010BD0000BD
:101130000000002000127A00140000201600002099
:101140000146114A12884A434FF0E0235A610022B7
:101150009A611A46126942F001021A6100BF4FF00B
:10116000E022106900F001021AB100F48032002A76
:10117000F5D04FF0E022126922F001024FF0E02397
:101180001A6100229A61704716000020FFF7B6FF2F
:10119000002141F61F40FFF78BFC0CE040F6B83110
:1011A0004620FFF7CDFA4FF4FA70FFF79DFA4FF49F
:1011B000FA70FFF799FAF1E7D81100080000002053
:1011C00020000000DE100008F811000820000020B8
:1011D000C8040000EE10000800A24A04000000004D
:1011E00000000000010203040607080900000000D7
:0811F0000000000000000000F7
:0400000508000145A9
:00000001FF
