:020000040800F2
:100000000005002045010008750D0008630C00087C
:10001000710D0008E1070008CD1B0008000000007A
:10002000000000000000000000000000010F0008B8
:10003000E507000800000000E90D0008ED110008C8
:100040005F0100085F0100085F0100085F01000810
:100050005F0100085F010008E90700081D080008AB
:100060005F0100085F0100085F0100085F010008F0
:100070005F0100085F0100085F0100085F010008E0
:100080005F0100085F0100085F0100085F010008D0
:100090005F0100085F0100085F0100089D0800087B
:1000A0005F0100085F0100085F0100085F010008B0
:1000B000511200085F0100085F0100085F0100089D
:1000C0005F0100085F0100085F0100085F01000890
:1000D0005F010008ED1800085F0100085F010008DB
:1000E0005F0100085F0100085F0100085F01000870
:1000F0005F0100085F0100085F0100085F01000860
:100100005F0100085F0100085F0100085F0100084F
:100110005F0100085F0100085F0100085F0100083F
:100120005F0100085F0100085F0100085F0100082F
:10013000DFF80CD000F042FB004800477D1D0008AE
:10014000000500200648804706480047FEE7FEE716
:10015000FEE7FEE7FEE7FEE7FEE7FEE7FEE7FEE777
:10016000F11100083101000880EA010210B502F027
:100170000043400022D04A001FD0010E01EB126163
:10018000C0F35600C2F3560240F4000042F40002ED
:10019000A0FB022000047F39140400D0401C50EA68
:1001A000124001D44000491EC2B20C0604EBD0102C
:1001B000401C4008802A02D003E0002010BD20F03F
:1001C0000100002900DA0020184310BD2DE9FE4F80
:1001D000804681EA0300C00F0C46009021F00041E8
:1001E00023F00045B8EB0200A94105D24046214664
:1001F00090461C460B46024623F00040104347D071
:10020000270DC7F30A00C3F30A510290401A019068
:1002100040286BDAC3F3130040F4801B0098924629
:1002200020B10023D2EB030A63EB0B0B0198594674
:10023000C0F14002504600F0FBF906460D4650461C
:100240005946019A00F013FA10EB080061410024AE
:1002500087EA115284EAE7731A4340D0009A62B3E6
:10026000019A012A4FEA075215DC001B61EB0201DB
:100270004FF0004202EA0752CDE90042001C41F56E
:10028000801132462B4600F04AFA03B0BDE8F08FE9
:1002900040462146F9E7001B61EB0201001C41F5D5
:1002A000801300185B412018A2F5001747EB0301EB
:1002B00040EAD570B6196D4111E06D084FEA360677
:1002C00045EAC0754FEA0752001B61EB0201001CB2
:1002D00041F5801149084FEA30000019514132467A
:1002E0002B4603B0BDE8F04F00F00ABA0098012297
:1002F00040000023D0EB020263EBE073009821463C
:100300004FEAE074B8EB000061EB0401E9E783F029
:1003100000435BE781F0004158E72DE9FE4F81EA99
:10032000030404F0004421F0004100944FF0000B5E
:1003300023F0004350EA01045ED052EA03045BD08C
:10034000C3F30A54C1F30A552C44A4F2F3340194C4
:10035000A0FB0254C1F3130141F48011C3F3130352
:1003600043F4801301FB024400FB034E840A970A06
:1003700044EA815447EA8357A4FB076802958D0A33
:1003800005FB07854FEA932C04FB0C542705029DBF
:100390004FEA065847EA1637B5EB08056EEB070C2F
:1003A000870E920E47EA811742EA8312A7FB0201E9
:1003B000B6EB0B0164EB00042B0D43EA0C335E1823
:1003C00044EB1C50DA465146E7FB0201C5F3130427
:1003D0004FEA0B3343EA14534FEA0432019C43EAD9
:1003E0000603A4F10C040294009CCDE900B400F0D3
:1003F00096F903B0BDE8F08F00200146F9E72DE93A
:10040000F04D81EA030404F0004B21F0004514464E
:100410004FF0000A23F0004150EA050220D054EAD0
:1004200001021DD0C5F30A570246C5F31303C1F3F9
:100430001300C1F30A5640F4801543F48013A7EB70
:100440000608101BD64608F2FD3873EB050002D3F0
:1004500008F1010801E092185B41B8F1000F03DADE
:1004600000200146BDE8F08D00204FF480110646C3
:1004700084460EE0171B73EB050705D3121B63EBD5
:10048000050306434CEA010C49084FEA3000921874
:100490005B4150EA0107EDD152EA030012D082EA33
:1004A000040083EA0501084305D0101BAB4106D2C6
:1004B0000122002306E000224FF0004302E06FF02B
:1004C000010253101AEB06004CEB085110EB0A0026
:1004D00041EB0B01BDE8F04D00F012B9962300226C
:1004E000114600F0DFB80EB5C10F80EAE070084495
:1004F000CA07002140F233438DE80E000A460B463E
:1005000000F00DF903B000BD00F0004220F0004003
:10051000C10DC0F3160040F400007F2901DA00206D
:100520007047962903DCC1F19601C84001E0963975
:100530008840002AF4D04042704720F00040C10DAE
:10054000C0F3160040F400007F2901DA0020704754
:10055000962903DCC1F19601C8407047963988405E
:10056000704770B5C1F30A5201F000450024C1F391
:10057000130140F2FF3341F480119A4201DA002066
:1005800070BD40F233439A42A2F2334203DC52423E
:1005900000F05DF800E090402C43F1D0404270BD87
:1005A000C1F30A5210B5C1F3130140F2FF3341F415
:1005B00080119A4201DA002010BD40F233439A4282
:1005C000A2F2334203DC524200F041F810BD9040E9
:1005D00010BD00F0004230F000400AD0C10D01F51E
:1005E0006071C0F3160042EA0151C208400711438E
:1005F000704700200146704701F0004330B421F0FD
:10060000004150EA010206D00A0DA2F56072C1F362
:100610001301002A02DC30BC00207047440F44EA7A
:10062000C104C100E01830BC00EBC25000F031B88A
:10063000202A04DB203A00FA02F1002070479140A2
:10064000C2F1200320FA03F3194390407047202A97
:1006500004DB203A21FA02F00021704721FA02F36C
:10066000D040C2F120029140084319467047202A29
:1006700006DBCB17203A41FA02F043EAE07306E0CA
:1006800041FA02F3D040C2F12002914008431946DA
:1006900070470029A8BF7047401C490008BF20F0E0
:1006A0000100704710B4B0FA80FC00FA0CF050EA78
:1006B000010404BF10BC704749B1CCF1200421FAF9
:1006C00004F411FA0CF118BF012121430843A3EBF4
:1006D0000C01CB1D4FEA00614FEA102042BF002001
:1006E00010BC704700EBC35010440029A4BF10BCDD
:1006F0007047401C490008BF20F0010010BC704743
:1007000010B5141E73F1000408DA401C41F1000119
:1007100092185B411A4301D120F0010010BD2DE970
:10072000F04D92469B4611B1B1FA81F202E0B0FA67
:1007300080F220329046FFF77BFF04460F4640EAE6
:100740000A0041EA0B0153465A46084313D01146AA
:1007500053EA010019D0C8F140025046FFF777FF75
:1007600005460E46504659464246FFF761FF08438C
:1007700005D0012004E020463946BDE8F08D002078
:10078000054346EAE0762C4337430A986305E40ABA
:10079000A0EB08000022FD0A44EA47540A3002D5C3
:1007A00000200146E9E7010510196941DDE9084526
:1007B00000196941BDE8F04DA2E70000064C074D65
:1007C00006E0E06840F0010394E807009847103421
:1007D000AC42F6D3FFF7B0FC101F0008301F000832
:1007E00000BFFEE77047000010B50A2001F022FAB2
:1007F0000121084800F07BF9012807D1064800686C
:1008000008B9012000E0002003490860012000F041
:100810005FF810BD00180140888122422DE9F041A7
:100820000A2001F02DFA022000F058F868B30021E8
:100830004FF0804000F0D8FF0121880700F037FE1C
:1008400000BF0221124800F052F90028F9D100211E
:100850004FF0804000F02BFE4FF0804000F042FE51
:1008600000EB800000EB001044002046FFF73BFE49
:1008700005460022074BFFF7C2FD0746FFF7BCFE07
:1008800005490860022000F023F8BDE8F08100006F
:1008900000100140000069403400002010B50A201B
:1008A00001F0C8F92021084800F021F938B90748BB
:1008B000006808B9012000E00020044908602020F9
:1008C00000F006F810BD000000100140A001214218
:1008D00001490860704700001404014001460020EF
:1008E0000022074B1B6803EA0102054B14331B6807
:1008F0000B4013B10AB1012000E000207047000056
:1009000000040140002123498279002A3AD00A4696
:10091000126803689A430B461A600A1D126803683E
:100920009A430B1D1A60027911440A6803681A433E
:100930000A60184A0832126803689A43154B083354
:100940001A601A1D126803689A43124B0C331A601E
:100950004279102A0ED11A1F126803681A430D4BF0
:1009600008331A601A1D126803681A43094B0C33C6
:100970001A600DE00749427911440A6803681A4376
:100980000A6005E0027911440A6803689A430A6024
:10099000704700000004014030B500228B071C0F97
:1009A0000F2303FA04F20B4B8C1053F824309343BB
:1009B000084C8D1044F8253023468C1053F8243011
:1009C0008C07240F00FA04F42343024C8D1044F8E2
:1009D000253030BD080001402DE9F04102460025D8
:1009E0000026002000230024002791F803C00CF00B
:1009F0000F0591F803C00CF0100CBCF1000F03D0F0
:100A000091F802C04CEA050591F800C0BCF1000F56
:100A100031D0146800202BE04FF0010C0CFA00F3E9
:100A2000B1F800C00CEA03069E4220D183004FF0CB
:100A30000F0C0CFA03F7BC4305FA03FC4CEA040460
:100A400091F803C0BCF1280F06D14FF0010C0CFA4D
:100A500000FCC2F814C00AE091F803C0BCF1480FD2
:100A600005D14FF0010C0CFA00FCC2F810C0401C7C
:100A70000828D1D31460B1F800C0BCF1FF0F34DDF9
:100A8000546800202EE000F1080C4FF0010808FA2D
:100A90000CF3B1F800C00CEA03069E4221D183009A
:100AA0004FF00F0C0CFA03F7BC4305FA03FC4CEAB9
:100AB000040491F803C0BCF1280F05D100F1080C23
:100AC00008FA0CF8C2F8148091F803C0BCF1480F82
:100AD00007D100F1080C4FF0010808FA0CF8C2F831
:100AE0001080401C0828CED35460BDE8F081024637
:100AF000002093680B400BB1012000E000207047FC
:100B0000416170470161704770B504460D46002190
:100B1000012000F027FA2146002000F023FA0021EE
:100B2000012000F07DFA2146002000F079FAA8B2F9
:100B300001F080F870BD70B504460D46604246B2C3
:100B40003146012000F00EFA0021084600F00AFAB2
:100B50003146012000F064FA0021084600F060FAF6
:100B6000A8B201F067F870BD70B504460D46C4F137
:100B7000640046B22146002000F0F4F9314601201D
:100B800000F0F0F92146002000F04AFA3146012039
:100B900000F046FAA8B201F04DF870BD2DE9F04121
:100BA00004460D46C4F1640046B2704247B2314675
:100BB000012000F0D7F93946002000F0D3F9314682
:100BC000012000F02DFA3946002000F029FAA8B2E1
:100BD00001F030F8BDE8F08110B504460021012095
:100BE00000F0C0F90021084600F0BCF94FF4804144
:100BF0000E48FFF785FF4FF480510C48FFF780FF48
:100C00000021012000F00CFA0021084600F008FA4B
:100C10004FF400410548FFF773FF4FF400510348BC
:100C2000FFF76EFFA0B201F005F810BD000C014007
:100C300070B504460D46604246B23146012000F0D0
:100C400091F92146002000F08DF93146012000F095
:100C5000E7F92146002000F0E3F9A8B200F0EAFF2E
:100C600070BD00BFFEE7000008B501210C2000F0B8
:100C7000CDF82020ADF8000048208DF803000320B7
:100C80008DF8020069460848FFF7A6FE1020ADF86F
:100C9000000048208DF8030003208DF8020069460B
:100CA0000148FFF799FE08BD000C014008B501217D
:100CB000142000F0ABF84FF40050ADF800004820CD
:100CC0008DF8030003208DF8020069460848FFF7FD
:100CD00083FE4FF40060ADF8000048208DF803005B
:100CE00003208DF8020069460148FFF775FE08BD34
:100CF0000010014008B501211C2000F087F81020E9
:100D0000ADF8000048208DF8030069461548FFF74C
:100D100063FE4FF40070ADF8000010208DF8030062
:100D200003208DF8020069460F48FFF755FE0420A6
:100D3000ADF8000010208DF8030003208DF80200AC
:100D400069460A48FFF748FE0820ADF80000102069
:100D50008DF8030003208DF8020069460348FFF771
:100D60003BFE08BD00100140000801400014014096
:100D700000BFFEE77047000070B5002100230F227E
:100D8000C47804B3154C246804F4E064C4F5E0644A
:100D9000210AC1F10403CA40447804FA03F18478BB
:100DA0001440214309010E4C0678A155047804F043
:100DB0001F050124AC4005786D11AD0005F1E0255B
:100DC000C5F8004109E0047804F01F050124AC4097
:100DD000044D0678761145F8264070BD0CED00E014
:100DE00000E400E080E100E07047000029B1064A1D
:100DF000D2690243044BDA6104E0034AD2698243B8
:100E0000014BDA61704700000010024029B1064A28
:100E100092690243044B9A6104E0034A9269824357
:100E2000014B9A61704700000010024030B500216C
:100E30000022002400232D4D6D6805F00C0121B126
:100E4000042905D0082923D105E0294D056022E0B9
:100E5000274D05601FE0254D6D6805F47012234D88
:100E60006D6805F48034022505EB92421CB9214DD2
:100E7000554305600BE01D4D6D6805F400351DB14F
:100E80001C4D5543056002E0194D5543056002E0D5
:100E9000174D056000BF00BF144D6D6805F0F001EF
:100EA0000909154D6B5C0568DD4045600F4D6D68A7
:100EB00005F4E061090A104D6B5C4568DD40856012
:100EC0000A4D6D6805F46051C90A0B4D6B5C4568AD
:100ED000DD40C560054D6D6805F44041890B074D47
:100EE0006B5CC568B5FBF3F5056130BD00100240D1
:100EF00000127A0000093D000000002010000020D0
:100F0000704700002DE9F14F82B00298FFF761FBB6
:100F1000804600220F4BFFF700FA064600220E4BD8
:100F2000FFF76DFA044600220C4BFFF74FF982469B
:100F3000FFF736FB80B20190FFF7D0FA02900298DB
:100F4000FFF7FBFA84B22146054800F044FCBDE8F7
:100F5000FE8F0000000049400000224000206F404A
:100F6000000C00402DE9FC4782460C46642C00DB57
:100F7000642414F1640F01DC6FF063042046FFF772
:100F8000B2FA21F0004107460022214BFFF7C5F9D4
:100F9000054600221F4BFFF7BDF9CDE90001FFF721
:100FA000E0FA0FFA80F9BAF1000F03D0BAF1010F9D
:100FB0002AD114E01FFA89F1174800F010FC002C28
:100FC00005DD4FF480411548FFF79AFD06E0002C3F
:100FD00004DA4FF480411148FFF794FD14E01FFA42
:100FE00089F10D4800F0F7FB002C05DD4FF480512E
:100FF0000A48FFF787FD06E0002C04DA4FF4805121
:101000000648FFF77DFD00BF00BFBDE8FC8700007C
:10101000000052400021BC4000080040000C01408C
:101020002DE9FC4782460C46642C00DB642414F155
:10103000640F01DC6FF063042046FFF754FA21F0DF
:10104000004107460022214BFFF767F905460022C1
:101050001F4BFFF75FF9CDE90001FFF782FA0FFAA6
:1010600080F9BAF1000F03D0BAF1010F2AD114E0D0
:101070001FFA89F1174800F0B4FB002C05DD4FF48E
:1010800000411548FFF73CFD06E0002C04DA4FF460
:1010900000411148FFF736FD14E01FFA89F10D48B1
:1010A00000F09BFB002C05DD4FF400510A48FFF7D0
:1010B00029FD06E0002C04DA4FF400510648FFF742
:1010C0001FFD00BF00BFBDE8FC87000000005240CC
:1010D0000021BC4000080040000C014010B500F0A9
:1010E00001F810BD0CB50020019000903348006855
:1010F00040F480303149086000BF3048006800F497
:10110000003000900198401C0190009818B9019897
:10111000B0F5A06FF1D12948006800F4003010B19B
:101120000120009001E0002000900098012843D1A8
:101130002348006840F01000214908600846006814
:1011400020F0030008600846006840F002000860D4
:101150001A4840681949486008464068486008468F
:10116000406840F4806048600846406820F47C1085
:1011700048600846406840F4E81048600846006847
:1011800040F08070086000BF0C48006800F00070FC
:101190000028F9D00948406820F00300074948605A
:1011A0000846406840F00200486000BF03484068BD
:1011B00000F00C000828F9D10CBD0000001002401E
:1011C00000200240042808D14FF0E021096941F0D5
:1011D00004014FF0E022116107E04FF0E0210969BE
:1011E00021F004014FF0E0221161704770470000C8
:1011F00010B51348006840F0010011490860084626
:101200004068104908400E494860084600680E4989
:1012100008400B4908600846006820F480200860F8
:101220000846406820F4FE0048604FF41F008860C4
:10123000FFF754FF4FF000600449086010BD000044
:10124000001002400000FFF8FFFFF6FE08ED00E08E
:1012500010B50121880700F048F918B1012188076D
:1012600000F022F910BD000030B589B005460C46EB
:1012700001210420FFF7BAFD01210820FFF7C6FD78
:101280004FF48050ADF8040003208DF806001020C4
:101290008DF8070001A95448FFF79EFB4020ADF8E8
:1012A000040003208DF8060018208DF8070001A91E
:1012B0004D48FFF791FB4FF48040ADF80400032048
:1012C0008DF8060010208DF8070001A94648FFF7A9
:1012D00083FB4FF48070ADF8040003208DF8060006
:1012E00018208DF8070001A93F48FFF775FB4FF460
:1012F0000050ADF8040003208DF8060010208DF892
:10130000070001A93848FFF767FB8020ADF804000B
:1013100003208DF8060018208DF8070001A9324837
:10132000FFF75AFB4FF40040ADF8040003208DF89E
:10133000060010208DF8070001A92B48FFF74CFB91
:101340004FF40070ADF8040003208DF8060018205B
:101350008DF8070001A92448FFF73EFBADF81C50AB
:10136000ADF818400020ADF81E00ADF81A0006A92F
:101370001E4800F03BFA7020ADF808000120ADF8DF
:101380000A000020ADF80E00ADF8100002A91748C1
:1013900000F07CF902A9154800F0C2F802A9134830
:1013A00000F014F902A9114800F0CAF901210F4810
:1013B00000F089F808210D4800F0B8F908210B4821
:1013C00000F0FAF80821094800F052F9082107480E
:1013D00000F0F4F90121054800F05AF80121034812
:1013E00000F065F809B030BD000C01400008004075
:1013F00030B589B005460C4601210820FFF7F6FC00
:1014000001210420FFF702FD0120ADF82000182083
:101410008DF8230003208DF8220008A91A48FFF751
:10142000DBFAADF81850ADF814400020ADF81A0002
:10143000ADF8160005A9154800F0D8F96020ADF800
:1014400004000120ADF806000020ADF80A00ADF858
:101450000C0001A90D4800F063F801210B4800F0D1
:1014600032F80821094800F0A7F801A9074800F060
:10147000ADF80121054800F00BF80121034800F008
:1014800016F809B030BD000000080140000C004013
:1014900021B1028842F08002028004E002884FF607
:1014A0007F731A4002807047CA430282704721B19D
:1014B000028842F00102028004E002884FF6FE73C7
:1014C0001A400280704731B1B0F8442042F4004223
:1014D000A0F8442005E0B0F84420C2F30E02A0F8C2
:1014E000442070470146888C704730B50246002082
:1014F00000230024158A05EA0103958905EA010401
:1015000013B10CB1012000E0002030BD1AB1838975
:101510000B43838102E083898B4383817047000002
:1015200070B5002400220023058C4FF6FE7635406E
:101530000584028C8388048B4FF68F752C40B51E72
:101540002C400D882C43751E2A400D892A434D8856
:101550002A43144DA8420BD0134DA84208D0134D76
:10156000A84205D0124DA84202D0124DA84213D174
:101570004FF6F7752A404D892A434FF6FB752A40EE
:101580008D882A434FF6FF652B404FF6FF552B40C1
:101590008D892B43CD892B4383800483CD88858619
:1015A000028470BD002C0140003401400040014025
:1015B00000440140004801400A460021018B4FF6DB
:1015C000F7731940114301837047000070B5002480
:1015D00000220023058C4FF6EF7635400584028CFF
:1015E0008388048B48F6FF752C404FF6FF452C404E
:1015F0000D884FF6FF7606EA05252C434FF6DF757A
:101600002A400D8906EA05152A434D8806EA051584
:101610002A43154DA84202D0144DA8421DD14FF6C1
:101620007F752A404D894FF6FF7606EA05152A4355
:101630004FF6BF752A408D8806EA05152A434FF6F6
:10164000FF352B404FF2FF752B408D8906EA85054B
:101650002B43CD8906EA85052B4383800483CD88FF
:101660000587028470BD0000002C01400034014059
:101670000A460021018B4FF2FF7319404FF6FF73AA
:1016800003EA0223194301837047000070B5002468
:1016900000220023058C4FF6FF6635400584028C3E
:1016A0008388848B4FF68F752C404FF6FC752C4049
:1016B0000D882C434FF6FF552A400D894FF6FF76D3
:1016C00006EA05252A434D8806EA05252A43154DD5
:1016D000A84202D0144DA8421DD14FF2FF752A40F6
:1016E0004D894FF6FF7606EA05252A434FF6FF356A
:1016F0002A408D8806EA05252A434EF6FF752B40C1
:101700004DF6FF752B408D8906EA05152B43CD89D3
:1017100006EA05152B4383808483CD888587028460
:1017200070BD0000002C0140003401400A46002139
:10173000818B4FF6F7731940114381837047000086
:1017400070B5002200230024058C4EF6FF7635404C
:101750000584038C8488828B48F6FF752A404FF6F7
:10176000FF452A400D884FF6FF7606EA05252A43F5
:101770004DF6FF752B400D8906EA05352B434D8844
:1017800006EA05352B430B4DA84202D00A4DA8426C
:1017900008D14BF6FF752C408D894FF6FF7606EA8F
:1017A00085152C4384808283CD88A0F84050038423
:1017B00070BD0000002C0140003401400A460021A9
:1017C000818B4FF2FF7319404FF6FF7303EA022338
:1017D00019438183704781867047018770478187ED
:1017E0007047A0F84010704781847047002202883B
:1017F0001D4B98420ED01D4B98420BD0B0F1804F3C
:1018000008D01B4B984205D01A4B984202D01A4B75
:10181000984204D14FF68F731A404B881A43174BE6
:10182000984207D0164B984204D04FF6FF431A4017
:10183000CB881A4302808B8883850B8803850A4BEB
:1018400098420BD0094B984208D00E4B984205D0D5
:101850000D4B984202D00D4B984201D10B7A038672
:101860000123838270470000002C014000340140B6
:101870000004004000080040000C00400010004040
:101880000014004000400140004401400048014075
:101890007FB504460D4601210846FFF7A7FA41F23D
:1018A0008830ADF8080041F61F40ADF80400002074
:1018B000ADF80A00ADF8060001A94FF08040FFF72F
:1018C00095FF012241218807FFF720FE1C208DF89B
:1018D000000000208DF8010003208DF80200012097
:1018E0008DF803006846FFF747FA7FBD10B540F258
:1018F00025511D4800F04AF810B31B4800F002F9CA
:10190000C4B21A48008800F40040C8B917480088DB
:1019100000F4804060B10A2C03D0002013490880F5
:1019200020E01248008840F400401049088019E087
:101930000D2C06D10D48008840F480400B490880EA
:1019400010E00A480088C0F30D0009490C5407480C
:101950000088401C0549088008460088C72801DD2A
:101960000020088010BD0000003801403000002039
:101970003800002021B1828942F40052828104E0C3
:1019800082894DF6FF731A408281704770B5024616
:10199000002400230025002040F66A16B14200D141
:1019A00000BFC1F3421501F01F03012606FA03F33D
:1019B000012D02D19689334006E0022D02D1168A0C
:1019C000334001E0968A33400C12012606FA04F4F3
:1019D0001688344013B10CB1012000E0002070BD26
:1019E000F0B50346002400260025002040F66A17C3
:1019F000B94200D100BF1846C1F3421401F01F06DE
:101A0000012707FA06F5012C01D10C3004E0022C65
:101A100001D1103000E014301AB107682F4307607D
:101A200002E00768AF430760F0BD00002DE9F04712
:101A300086B005460E460024A24600BFA1460027F8
:101A4000B08900B100BF2F462C8A4CF6FF700440CD
:101A5000F08804432C82AC894EF6F3100440B08821
:101A600031890843718908430443AC81AC8A4FF63D
:101A7000FF400440B0890443AC8201A8FFF7D6F9C7
:101A80001F48874202D1DDF810A001E0DDF80CA06C
:101A9000A88900F4004040B10AEBCA0000EB0A102C
:101AA00031684900B0FBF1F807E00AEBCA0000EB2F
:101AB0000A1031688900B0FBF1F86420B8FBF0F03F
:101AC00004012009642101FB1089A88900F4004069
:101AD00040B1322000EBC900B0FBF1F000F007008C
:101AE000044308E0322000EB09106421B0FBF1F060
:101AF00000F00F0004432C8106B0BDE8F087000021
:101B00000038014001468888C0F308007047000093
:101B10001FB501211120FFF779F90120ADF80C0064
:101B200010208DF80F0003208DF80E0003A9174830
:101B3000FEF752FF0220ADF80C0028208DF80F00B0
:101B400003A91248FEF748FF01210220FEF724FFF7
:101B50000220019000208DF8080008208DF809006F
:101B600001208DF80A0001A8FEF7CCFE07208DF8B1
:101B7000000002208DF801008DF8020001208DF890
:101B800003006846FFF7F8F81FBD00000010014091
:101B900070B501210A48FEF7B5FF142000F070F877
:101BA00001210748FEF7ACFF064907480068FEF729
:101BB000DBFA0546FEF7A8FC0446204670BD00008F
:101BC00000100140000020413400002000BFFEE76B
:101BD00002E008C8121F08C1002AFAD170477047F6
:101BE000002001E001C1121F002AFBD17047000054
:101BF00010B56FF00400FFF7E5FA0A4800680A49DB
:101C0000B0FBF1F0094908700846007800EB40018C
:101C1000C1EBC0104FF6FF7101EAC0000449088013
:101C200010BD00001400002000127A0028000020DF
:101C30002A0000200146114A12884A434FF0E0234F
:101C40005A6100229A611A46126942F001021A6131
:101C500000BF4FF0E022106900F001021AB100F459
:101C60008032002AF5D04FF0E022126922F0010202
:101C70004FF0E0231A6100229A6170472A00002089
:101C80000146114A12784A434FF0E0235A6100227C
:101C90009A611A46126942F001021A6100BF4FF0C0
:101CA000E022106900F001021AB100F48032002A2B
:101CB000F5D04FF0E022126922F001024FF0E0234C
:101CC0001A6100229A6170472800002010B504486C
:101CD000FFF718F96420FFF7ADFFFFF759FF10BDBC
:101CE0000000B44210B510211B48FEF700FF044667
:101CF00004E010211848FEF7FAFE044610211648A9
:101D0000FEF7F5FE0028F4D01EE00A20FFF792FF50
:101D100010211148FEF7EBFE0446012C0FD1010201
:101D20000E48FEF7EFFE04E04FF480710B48FEF71B
:101D3000E7FE10210848FEF7DAFE28B9F4E74FF471
:101D400080710648FEF7DCFE10210348FEF7CFFE47
:101D50000028DAD110BD0000001001400008014049
:101D600010B50548FFF7CEF84FF49670FFF762FF05
:101D7000FFF70EFF10BD000000002F43FFF738FFF4
:101D8000FEF7B8FFFEF792FFFEF76EFF41F61F4128
:101D900041F28830FFF77CFDFFF7BAFE4FF4E130E7
:101DA00000F066F8002141F61F40FFF75DFA8F2131
:101DB00042F20F70FFF71CFB4FF4FA70FEF70CFFB6
:101DC000FFF790FF45E0FFF781FF04463C2C3CDA2B
:101DD000002C3ADD4FF4FA70FEF7FEFE4FF4FA7174
:101DE0003C20FEF7DBFE4FF47A70FEF7F5FEFFF7BE
:101DF000B7FF05464FF4FA70FFF71CFF00F02AF812
:101E000006464FF4FA70FFF715FF3C2D07DA3C2E1B
:101E100005DA4FF47A713C20FEF7A6FE19E0B542D0
:101E200009DD4FF47A713C20FEF76EFE4FF4FA7034
:101E3000FEF7D2FE0DE04FF47A713C20FEF77BFEF8
:101E40004FF4FA70FEF7C8FE03E00A213C20FEF7CB
:101E5000EFFEB8E710B50548FFF754F84FF4967059
:101E6000FFF7E8FEFFF794FE10BD00000000A04061
:101E700010B586B00446012144F20400FEF7C6FF07
:101E80004FF40070ADF8140003208DF816001820F0
:101E90008DF8170005A91C48FEF79EFD4FF48060E1
:101EA000ADF8140004208DF8170005A91648FEF7B8
:101EB00093FD25208DF8000003208DF801008DF89A
:101EC000020001208DF803006846FEF755FF0194DB
:101ED0000020ADF80800ADF80A00ADF80C00ADF830
:101EE00010000C20ADF80E0001A90848FFF79EFD78
:101EF000012240F225510548FFF772FD01210348F8
:101F0000FFF738FD06B010BD000801400038014061
:101F1000301F00080000002038000000D01B00081F
:101F2000681F000838000020C8040000E01B0008FB
:101F3000000000000102030401020304060708096F
:101F40000204060800A24A0400000000000000008D
:101F50000102030406070809000000000000000059
:081F6000000000000000000079
:0400000508000145A9
:00000001FF
