:020000040800F2
:1000000000C0002025A200087D8E0008858E000813
:100010008D8E0008958E00089D8E0008000000005F
:10002000000000000000000000000000A58E000895
:10003000B18E000800000000BD8E0008C98E0008C7
:100040006DA200086DA200086DA200086DA2000854
:100050006DA200086DA200086DA200086DA2000844
:100060006DA200086DA200086DA200086DA2000834
:100070006DA200086DA20008D58E0008E98E000868
:100080006DA200086DA200086DA200086DA2000814
:100090006DA200086DA200086DA200086DA2000804
:1000A0006DA200086DA200086DA200086DA20008F4
:1000B0006DA200086DA200086DA200086DA20008E4
:1000C0006DA200086DA200086DA200086DA20008D4
:1000D0006DA20008FD8E00086DA200086DA2000848
:1000E0006DA200086DA200086DA200086DA20008B4
:1000F0006DA200086DA200086DA200086DA20008A4
:100100006DA200086DA200086DA200086DA2000893
:100110006DA200086DA200086DA200086DA2000883
:100120006DA200086DA200086DA200086DA2000873
:1001300000000000000000000000000000000000BF
:1001400000000000000000000000000000000000AF
:10015000000000000000000000000000000000009F
:10016000000000000000000000000000000000008F
:10017000000000000000000000000000000000007F
:10018000000000000000000000000000000000006F
:10019000000000000000000000000000000000005F
:1001A000000000000000000000000000000000004F
:1001B000000000000000000000000000000000003F
:1001C000000000000000000000000000000000002F
:1001D000000000000000000000000000000000001F
:0401E0005FF8E0F1F3
:1001E80010B5054C237833B9044B13B10448AFF369
:1001F80000800123237010BD280A002000000000A1
:1002080030D9000808B5034B1BB103490348AFF3C5
:10021800008008BD000000002C0A002030D900082A
:1002280010F8012B11F8013B012A28BF9A42F7D098
:10023800D01A704781F0004102E000BF83F000430C
:1002480030B54FEA41044FEA430594EA050F08BF69
:1002580090EA020F1FBF54EA000C55EA020C7FEA2D
:10026800645C7FEA655C00F0E2804FEA5454D4EBAA
:100278005555B8BF6D420CDD2C4480EA020281EA74
:10028800030382EA000083EA010180EA020281EAAC
:100298000303362D88BF30BD11F0004F4FEA0131FE
:1002A8004FF4801C4CEA113102D0404261EB41010D
:1002B80013F0004F4FEA03334CEA133302D0524293
:1002C80063EB430394EA050F00F0A780A4F101044F
:1002D800D5F1200E0DDB02FA0EFC22FA05F2801889
:1002E80041F1000103FA0EF2801843FA05F359416F
:1002F8000EE0A5F120050EF1200E012A03FA0EFCEE
:1003080028BF4CF0020C43FA05F3C01851EBE37117
:1003180001F0004507D54FF0000EDCF1000C7EEB34
:1003280000006EEB0101B1F5801F1BD3B1F5001F72
:100338000CD349085FEA30004FEA3C0C04F1010491
:100348004FEA445212F5800F80F09A80BCF1004FBA
:1003580008BF5FEA500C50F1000041EB045141EA3C
:10036800050130BD5FEA4C0C404141EB0101013C05
:1003780028BFB1F5801FE9D291F0000F04BF0146F4
:100388000020B1FA81F308BF2033A3F10B03B3F1C6
:1003980020020CDA0C3208DD02F1140CC2F10C0256
:1003A80001FA0CF021FA02F10CE002F11402D8BFB4
:1003B800C2F1200C01FA02F120FA0CFCDCBF41EA80
:1003C8000C019040E41AA2BF01EB0451294330BD4F
:1003D8006FEA04041F3C1CDA0C340EDC04F114042C
:1003E800C4F1200220FA04F001FA02F340EA030003
:1003F80021FA04F345EA030130BDC4F10C04C4F149
:10040800200220FA02F001FA04F340EA0300294628
:1004180030BD21FA04F0294630BD94F0000F83F472
:10042800801306BF81F480110134013D4EE77FEA55
:10043800645C18BF7FEA655C29D094EA050F08BFA1
:1004480090EA020F05D054EA000C04BF1946104682
:1004580030BD91EA030F1EBF0021002030BD5FEAC6
:10046800545C05D14000494128BF41F0004130BDEE
:1004780014F580043CBF01F5801130BD01F0004542
:1004880045F0FE4141F470014FF0000030BD7FEAB5
:10049800645C1ABF194610467FEA655C1CBF0B46B0
:1004A800024650EA013406BF52EA033591EA030FC7
:1004B80041F4002130BD00BF90F0000F04BF0021BF
:1004C800704730B54FF4806404F132044FF00005F2
:1004D8004FF0000150E700BF90F0000F04BF00216B
:1004E800704730B54FF4806404F1320410F00045D1
:1004F80048BF40424FF000013EE700BF42004FEACC
:10050800E2014FEA31014FEA02701FBF12F07F4348
:1005180093F07F4F81F06051704732F07F4208BFFF
:10052800704793F07F4F04BF41F40021704730B506
:100538004FF4607401F0004521F000411CE700BF52
:1005480050EA010208BF704730B54FF000050AE0D5
:1005580050EA010208BF704730B511F0004502D5D6
:10056800404261EB41014FF4806404F132045FEAD8
:10057800915C3FF4D8AE4FF003025FEADC0C18BF81
:1005880003325FEADC0C18BF033202EBDC02C2F173
:10059800200300FA03FC20FA02F001FA03FE40EA05
:1005A8000E0021FA02F11444BDE600BF70B54FF009
:1005B800FF0C4CF4E06C1CEA11541DBF1CEA1355E7
:1005C80094EA0C0F95EA0C0F00F0DEF82C4481EA4F
:1005D800030621EA4C5123EA4C5350EA013518BF6F
:1005E80052EA033541F4801143F4801338D0A0FB5C
:1005F80002CE4FF00005E1FB02E506F00042E0FB09
:1006080003E54FF00006E1FB03569CF0000F18BF0E
:100618004EF0010EA4F1FF04B6F5007F64F54074B6
:1006280004D25FEA4E0E6D4146EB060642EAC62149
:1006380041EA55514FEAC52040EA5E504FEACE2EB6
:10064800B4F1FD0C88BFBCF5E06F1ED8BEF1004FB9
:1006580008BF5FEA500E50F1000041EB045170BD35
:1006680006F0004646EA010140EA020081EA030179
:10067800B4EB5C04C2BFD4EB0C0541EA045170BD75
:1006880041F480114FF0000E013C00F3AB8014F1EF
:10069800360FDEBF002001F0004170BDC4F1000438
:1006A800203C35DA0C341BDC04F11404C4F12005B9
:1006B80000FA05F320FA04F001FA05F240EA020014
:1006C80001F0004221F0004110EBD37021FA04F64A
:1006D80042EB06015EEA430E08BF20EAD37070BD04
:1006E800C4F10C04C4F1200500FA04F320FA05F063
:1006F80001FA04F240EA020001F0004110EBD37065
:1007080041F100015EEA430E08BF20EAD37070BDD4
:10071800C4F1200500FA05F24EEA020E20FA04F3AD
:1007280001FA05F243EA020321FA04F001F000415C
:1007380021FA04F220EA020000EBD3705EEA430ECD
:1007480008BF20EAD37070BD94F0000F0FD101F0FC
:100758000046400041EB010111F4801F08BF013C35
:10076800F7D041EA060195F0000F18BF704703F073
:100778000046520043EB030313F4801F08BF013DFA
:10078800F7D043EA0603704794EA0C0F0CEA1355B6
:1007980018BF95EA0C0F0CD050EA410618BF52EA70
:1007A8004306D1D181EA030101F000414FF0000076
:1007B80070BD50EA410606BF1046194652EA430684
:1007C80019D094EA0C0F02D150EA013613D195EAF8
:1007D8000C0F05D152EA03361CBF104619460AD140
:1007E80081EA030101F0004141F0FE4141F470014A
:1007F8004FF0000070BD41F0FE4141F4780170BD3A
:1008080070B54FF0FF0C4CF4E06C1CEA11541DBF9E
:100818001CEA135594EA0C0F95EA0C0F00F0A7F8A0
:10082800A4EB050481EA030E52EA03354FEA0131CD
:1008380000F088804FEA03334FF0805545EA1313E0
:1008480043EA12634FEA022245EA111545EA1065A8
:100858004FEA00260EF000419D4208BF964244F13F
:10086800FD0404F5407402D25B084FEA3202B61A5E
:1008780065EB03055B084FEA32024FF480104FF432
:10088800002CB6EB020E75EB030E22BFB61A7546A6
:1008980040EA0C005B084FEA3202B6EB020E75EB39
:1008A800030E22BFB61A754640EA5C005B084FEAA1
:1008B8003202B6EB020E75EB030E22BFB61A75466E
:1008C80040EA9C005B084FEA3202B6EB020E75EB79
:1008D800030E22BFB61A754640EADC0055EA060E3A
:1008E80018D04FEA051545EA16754FEA06164FEA7D
:1008F800C30343EA52734FEAC2025FEA1C1CC0D129
:1009080011F4801F0BD141EA00014FF000004FF0B5
:10091800004CB6E711F4801F04BF01430020B4F176
:10092800FD0C88BFBCF5E06F3FF6AFAEB5EB030C2E
:1009380004BFB6EB020C5FEA500C50F1000041EB2B
:10094800045170BD0EF0004E4EEA113114EB5C04F8
:10095800C2BFD4EB0C0541EA045170BD41F48011CB
:100968004FF0000E013C90E645EA060E8DE60CEAD3
:10097800135594EA0C0F08BF95EA0C0F3FF43BAFF0
:1009880094EA0C0F0AD150EA01347FF434AF95EAA7
:100998000C0F7FF425AF104619462CE795EA0C0F8B
:1009A80006D152EA03353FF4FDAE1046194622E758
:1009B80050EA410618BF52EA43067FF4C5AE50EA32
:1009C80041047FF40DAF52EA43057FF4EBAE12E722
:1009D8004FF0FF3C06E000BF4FF0010C02E000BF03
:1009E8004FF0010C4DF804CD4FEA410C7FEA6C5CE6
:1009F8004FEA430C18BF7FEA6C5C1BD001B050EA89
:100A0800410C0CBF52EA430C91EA030F02BF90EA73
:100A1800020F0020704710F1000F91EA030F58BF32
:100A2800994208BF90422CBFD8176FEAE37040F094
:100A3800010070474FEA410C7FEA6C5C02D150EA32
:100A4800013C07D14FEA430C7FEA6C5CD6D152EAED
:100A5800033CD3D05DF8040B704700BF84461046B2
:100A680062468C461946634600E000BF01B5FFF7B1
:100A7800B7FF002848BF10F1000F01BD4DF808ED81
:100A8800FFF7F4FF0CBF012000205DF808FB00BF52
:100A98004DF808EDFFF7EAFF34BF012000205DF8AC
:100AA80008FB00BF4DF808EDFFF7E0FF94BF0120F9
:100AB80000205DF808FB00BF4DF808EDFFF7CEFFFA
:100AC80094BF012000205DF808FB00BF4DF808ED39
:100AD800FFF7C4FF34BF012000205DF808FB00BF0A
:100AE8004FEA410C7FEA6C5C02D150EA013C0AD122
:100AF8004FEA430C7FEA6C5C02D152EA033C02D114
:100B08004FF0000070474FF0010070474A0011D2C3
:100B180012F5001211D20DD56FF47873B3EB62524F
:100B28000ED44FEAC12343F0004343EA505323FA5B
:100B380002F070474FF00000704750EA013002D1D0
:100B48004FF0FF3070474FF00000704780F00040D2
:100B580002E000BF81F0004142001FBF5FEA41038D
:100B680092EA030F7FEA226C7FEA236C6AD04FEA8D
:100B78001262D2EB1363C1BFD218414048404140D2
:100B8800B8BF5B42192B88BF704710F0004F40F484
:100B9800000020F07F4018BF404211F0004F41F4A0
:100BA800000121F07F4118BF494292EA030F3FD06C
:100BB800A2F1010241FA03FC10EB0C00C3F120037F
:100BC80001FA03F100F0004302D5494260EB40000E
:100BD800B0F5000F13D3B0F1807F06D340084FEA79
:100BE800310102F10102FE2A51D2B1F1004F40EB6E
:100BF800C25008BF20F0010040EA030070474900D6
:100C080040EB0000013A28BFB0F5000FEDD2B0FA72
:100C180080FCACF1080CB2EB0C0200FA0CF0AABF95
:100C280000EBC25052421843BCBFD0401843704733
:100C380092F0000F81F4000106BF80F40000013239
:100C4800013BB5E74FEA41037FEA226C18BF7FEA10
:100C5800236C21D092EA030F04D092F0000F08BF52
:100C68000846704790EA010F1CBF0020704712F039
:100C78007F4F04D1400028BF40F00040704712F178
:100C880000723CBF00F50000704700F0004343F0DD
:100C9800FE4040F4000070477FEA226216BF084613
:100CA8007FEA23630146420206BF5FEA412390EAD6
:100CB800010F40F4800070474FF0000304E000BFCC
:100CC80010F0004348BF40425FEA000C08BF70477D
:100CD80043F0964301464FF000001CE050EA010241
:100CE80008BF70474FF000030AE000BF50EA010256
:100CF80008BF704711F0004302D5404261EB410143
:100D08005FEA010C02BF84460146002043F0B64367
:100D180008BFA3F18053A3F50003BCFA8CF2083A8C
:100D2800A3EBC25310DB01FA02FC634400FA02FC95
:100D3800C2F12002BCF1004F20FA02F243EB02009C
:100D480008BF20F00100704702F1200201FA02FCFE
:100D5800C2F1200250EA4C0021FA02F243EB0200F1
:100D680008BF20EADC7070474FF0FF0C1CEAD05235
:100D78001EBF1CEAD15392EA0C0F93EA0C0F6FD0F6
:100D88001A4480EA010C400218BF5FEA41211ED0D4
:100D98004FF0006343EA501043EA5111A0FB0131C0
:100DA8000CF00040B1F5000F3EBF490041EAD37195
:100DB8005B0040EA010062F17F02FD2A1DD8B3F111
:100DC800004F40EBC25008BF20F00100704790F080
:100DD800000F0CF0004C08BF49024CEA502040EAD2
:100DE80051207F3AC2BFD2F1FF0340EAC250704798
:100DF80040F400004FF00003013A5DDC12F1190FD6
:100E0800DCBF00F000407047C2F10002410021FA47
:100E180002F1C2F1200200FA02FC5FEA310040F15F
:100E2800000053EA4C0308BF20EADC70704792F0D8
:100E3800000F00F0004C02BF400010F4000F013A10
:100E4800F9D040EA0C0093F0000F01F0004C02BF0B
:100E5800490011F4000F013BF9D041EA0C018FE77A
:100E68000CEAD15392EA0C0F18BF93EA0C0F0AD080
:100E780030F0004C18BF31F0004CD8D180EA0100A6
:100E880000F00040704790F0000F17BF90F0004F3F
:100E9800084691F0000F91F0004F14D092EA0C0F21
:100EA80001D142020FD193EA0C0F03D14B0218BFB4
:100EB800084608D180EA010000F0004040F0FE40FA
:100EC80040F40000704740F0FE4040F44000704796
:100ED8004FF0FF0C1CEAD0521EBF1CEAD15392EA15
:100EE8000C0F93EA0C0F69D0A2EB030280EA010C05
:100EF80049024FEA402037D04FF0805343EA11119E
:100F080043EA10130CF000408B4238BF5B0042F1FB
:100F18007D024FF4000C8B4224BF5B1A40EA0C00A0
:100F2800B3EB510F24BFA3EB510340EA5C00B3EBD2
:100F3800910F24BFA3EB910340EA9C00B3EBD10FC0
:100F480024BFA3EBD10340EADC001B0118BF5FEA12
:100F58001C1CE0D1FD2A3FF650AF8B4240EBC2503B
:100F680008BF20F0010070470CF0004C4CEA5020FC
:100F78007F32C2BFD2F1FF0340EAC250704740F44B
:100F880000004FF00003013A37E792F0000F00F03D
:100F9800004C02BF400010F4000F013AF9D040EABB
:100FA8000C0093F0000F01F0004C02BF490011F44F
:100FB800000F013BF9D041EA0C0195E70CEAD15347
:100FC80092EA0C0F08D142027FF47DAF93EA0C0F2E
:100FD8007FF470AF084676E793EA0C0F04D14B0212
:100FE8003FF44CAF08466EE730F0004C18BF31F0C4
:100FF800004CCAD130F000427FF45CAF31F00043BE
:101008007FF43CAF5FE700BF4FEA4002B2F1FE4F0A
:101018000FD34FF09E03B3EB12620DD94FEA0023B2
:1010280043F0004310F0004F23FA02F018BF40428B
:1010380070474FF00000704712F1610F01D1420272
:1010480005D110F0004008BF6FF0004070474FF026
:101058000000704742000ED2B2F1FE4F0BD34FF0A2
:101068009E03B3EB126209D44FEA002343F0004316
:1010780023FA02F070474FF00000704712F1610F39
:1010880001D1420202D14FF0FF3070474FF000000B
:10109800704700BF80B500AF07F058FA00BF80BDA9
:1010A80080B584B000AF0346FB800023FB7307F0D4
:1010B8007DFAFB881B0A9BB25B00A033184607F039
:1010C80051FB07F0C3FAFB88DBB2184607F04AFB6E
:1010D80007F0BCFA07F06AFAA12007F043FB07F013
:1010E800B5FA002007F07EFB0346FB7307F086FA8B
:1010F800FB7B18461037BD4680BD80B582B000AF77
:1011080003460A46FB8013467B7107F04FFAFB88BB
:101118001B0A9BB25B00A033184607F023FB07F0BD
:1011280095FAFB88DBB2184607F01CFB07F08EFA2D
:101138007B79184607F016FB07F088FA07F05EFA85
:101148000A2000F00FFA00BF0837BD4680BD90B5F1
:1011580083B000AF03463960FB801346BB800DE0C7
:10116800FB885A1CFA803C68621C3A601846FFF7F4
:1011780097FF03462370BB88013BBB80BB88002BCD
:10118800EED100BF00BF0C37BD4690BD80B582B020
:1011980000AF03463960FB801346BB800CE03B6818
:1011A8001A78FB8811461846FFF7A7FFFB8801331A
:1011B800FB803B6801333B60BB885A1EBA80002B1A
:1011C800EDD100BF00BF0837BD4680BD80B500AF78
:1011D800052000F089F900BF80BD000080B586B009
:1011E80000AF124B9B69114A43F0100393610F4BF8
:1011F8009B6903F010037B607B680923BB600123B4
:10120800FB6001233B6103237B6107F10803194657
:10121800074809F041FE074B01221A60064B0122DC
:101228001A6000BF1837BD4680BD00BF00100240DD
:1012380000100140800122428C01224280B500AF9B
:101248000F4B1B680E4A23F4704313600C4B1B684A
:101258000B4A43F4405313600A4B01221A600A4BAD
:1012680001221A601E2000F03FF9064B00221A6086
:10127800FFF7ACFF044B00221A6000BF80BD00BF1F
:10128800001001408C0122428001224280B500AF4B
:101298000D4B1B680C4A23F4704313600A4B1B6800
:1012A800094A43F440531360084B01221A601E2078
:1012B80000F01AF9064B00221A60FFF787FF044B6B
:1012C80001221A6000BF80BD001001408001224247
:1012D8008C01224280B582B000AF0023FB71164B0F
:1012E8001B68154A23F470431360134B1B68124A9A
:1012F80043F400431360114B01221A60104B012282
:101308001A60FFF763FF0BE0FB790133FB71FB7990
:10131800FA2B03D9FFF7BAFF012309E0FFF756FFBD
:10132800084B1B68002BEFD1054B00221A600023E5
:1013380018460837BD4680BD001001408C01224286
:10134800800122420C01224280B500AF0F4B0022DF
:101358001A600F4B1B680E4A23F4704313600C4B42
:101368001B680B4A43F440531360FFF72FFF094BE8
:1013780000221A60FFF72AFF044B01221A60FFF7C8
:1013880025FF024B00221A6000BF80BD8001224267
:10139800001001408C01224280B500AF0F4B0022A3
:1013A8001A600F4B1B680E4A23F4704313600C4BF2
:1013B8001B680B4A43F440531360FFF707FF094BC0
:1013C80001221A60FFF702FF044B01221A60FFF79F
:1013D800FDFE024B00221A6000BF80BD8001224240
:1013E800001001408C01224280B584B000AF034652
:1013F800FB71184B1B68174A23F470431360154B95
:101408001B68144A43F440531360134B00221A60BC
:10141800FFF7DCFE0023FB7314E0FB79DB09DAB28B
:101428000E4B1A60FB795B00FB710B4B01221A60B3
:10143800FFF7CCFE084B00221A60FFF7C7FEFB7BC4
:101448000133FB73FB7B072BE7D900BF00BF1037C5
:10145800BD4680BD00100140800122428C0122421D
:1014680080B584B000AF0346FB710023BB731B4BF0
:101478001B681A4A23F470431360184B1B68174AF9
:1014880043F4004313601E2000F02EF80023FB7382
:1014980014E0134B00221A60FFF798FE104B01224C
:1014A8001A60BB7B5B00BB730E4B1B68002B02D022
:1014B800BB7B0133BB73FB7B0133FB73FB7B072BCC
:1014C800E7D9FB79002B02D1FFF766FF01E0FFF7B0
:1014D8003BFFBB7B18461037BD4680BD001001405E
:1014E800800122420C01224280B489B000AF7860AA
:1014F8000023BB61194B5B687B61194B1A687B68D9
:1015080002FB03F33B61154B9B68FB61134B9B6824
:10151800FB60FA68FB699A42F8D0FA68FB699A425C
:1015280006D2FA69FB68D31ABA691344BB6107E0AB
:101538007A69FB68D21AFB691344BA691344BB6120
:10154800FB68FB61BA693B699A4200D2DEE700BFDB
:1015580000BF2437BD4680BC704700BF10E000E0E4
:10156800440A002080B584B000AF0346FB80002306
:10157800FB6006E04FF47A70FFF7B6FFFB680133B3
:10158800FB60FB88FA689A42F4D300BF00BF1037AB
:10159800BD4680BD80B584B000AF03463960FB808E
:1015A80013467B710023BB73FFF748FE7020FFF7DB
:1015B8001BFFFFF78FFEFB88DBB21846FFF714FF0F
:1015C800FFF788FE0023FB7310E0FB7B3A681344A7
:1015D8001B781846FFF708FFFFF77CFE0346BB732E
:1015E800BB7B002B07D1FB7B0133FB73FA7B7B7939
:1015F8009A42EAD300E000BFFFF748FEBB7B1846DB
:101608001037BD4680BD90B585B000AF0346396040
:10161800FB8013467B71FFF711FE7020FFF7E4FE95
:10162800FFF758FEFB88DBB21846FFF7DDFEFFF731
:1016380051FEFFF703FE7120FFF7D6FEFFF74AFEC3
:101648000023FB7313E0FA7B7B79013B9A4214BFBA
:1016580001230023DBB21946FB7B3A68D4180846FD
:10166800FFF7FEFE03462370FB7B0133FB73FA7B17
:101678007B799A42E7D3FFF709FE00BF1437BD46CE
:1016880090BD000080B586B000AF374B9B69364AE5
:1016980043F010039361344B9B6903F010033B60E4
:1016A8003B684FF400537B600123BB600123FB6060
:1016B80003233B613B1D19462C4809F0EDFB02232F
:1016C8007B600023BB603B1D1946284809F0E4FBFA
:1016D800FFF784FD264B00221A601420FFF742FF13
:1016E800234B01221A603220FFF73CFF00233B7591
:1016F80007F11403012219460020FFF74BFF07F1F9
:10170800140301221946A420FFF744FF16233B7552
:1017180007F11403012219468020FFF73BFF0C2331
:101728003B7507F11403012219468820FFF732FFA1
:1017380007F1140302221946A120FFF764FF3B7D3D
:10174800302B0CD17B7D032B09D13B7D1B027A7D8D
:101758001344194607480BF075F9002300E00123EC
:1017680018461837BD4680BD0010024000100140E1
:10177800B401224248D9000880B584B000AF0346BE
:10178800FB710023FB730023BB73824B1B7801336F
:10179800DAB2804B1A707F4B1A787F4BA3FB021387
:1017A800D9080B469B000B445B00D31ADBB2002B15
:1017B80004D0784B1B78092B00F2BA80FB1D01225C
:1017C80019460220FFF71FFFFB7903F00F03002BD8
:1017D80000F0AE80FB7903F00F03052B00F3A8801F
:1017E800FB7903F00F03FF2202FA03F37B7397F9E7
:1017F8000D30DB435BB263F03F035BB2DAB2674B99
:1018080083F820200023FB737FE0644B93F820309B
:101818001A46FB7B42FA03F303F00103002B71D055
:10182800FB7B5F4A32F8133007F10801042218469F
:10183800FFF7E9FE594B93F8303003F00103002B12
:1018480022D03B7A1B029BB203F470639AB27B7A74
:101858001946FB7B0A4491B2504A08335B00134493
:101868000A46DA80BB7A1B029BB203F470639AB211
:10187800FB7A1946FB7B0A4491B2484A04335B0061
:1018880013440A469A8023E03B7A1B029BB203F476
:1018980070639BB27A7A13449AB2FB7BC2F5F072FA
:1018A80091B23E4A04335B0013440A469A80BB7ADD
:1018B8001B029BB203F470639AB2FB7A1946FB7B56
:1018C8000A4491B2354A08335B0013440A46DA8069
:1018D8003B7A03F0F003802B14D0FA7B2F4902F1F6
:1018E80008035B000B440021D980F97B2B4802F1E7
:1018F80008035B000344D888284A0B1D5B00134487
:1019080002469A80FB7B0133FB73FB7B042B7FF63B
:101918007CAF0123BB73214B9B89002B05D11F4B47
:10192800DB8A002B01D10023FB711A4B00221A70AD
:10193800FB7903F01F03002B20D1184B93F82030BC
:101948005BB2002B09DA154B93F8203003F07F03C4
:10195800DAB2124B83F8202010E0104B4FF6FF72DA
:101968009A810E4B4FF6FF72DA820C4B93F82030B7
:1019780023F01F03DAB2094B83F82020054B1B78AC
:10198800F02B02D9034B0A221A70BB7B184610377A
:10199800BD4680BD480A0020CDCCCCCC78090020BB
:1019A8000CDC000880B584B000AF0346FB7100234F
:1019B800FB7300233B73FB797B730023FB7309E004
:1019C8003A7BFB7B1049CB5C1344DBB23B73FB7B5C
:1019D8000133FB73FB7BB72BF2D93B7B5B42DBB25A
:1019E8003B73B822084948F2470000F00FF807F1A6
:1019F8000C030222194648F2FF0000F007F8002302
:101A080018461037BD4680BD18DC000880B584B084
:101A180000AF03463960FB8013467B710023BB731C
:101A2800FFF70CFC2820FFF7DFFCFFF753FCFB88CF
:101A38001B0A9BB2DBB21846FFF7D6FCFFF74AFC3D
:101A4800FB88DBB21846FFF7CFFCFFF743FC002307
:101A5800FB7310E0FB7B3A6813441B781846FFF7CA
:101A6800C3FCFFF737FC0346BB73BB7B002B07D1D6
:101A7800FB7B0133FB73FA7B7B799A42EAD300E064
:101A880000BFFFF703FCBB7B18461037BD4680BD7F
:101A980090B585B000AF03463960FB8013467B7173
:101AA800FFF7CCFB2820FFF79FFCFFF713FCFB8810
:101AB8001B0A9BB2DBB21846FFF796FCFFF70AFC3D
:101AC800FB88DBB21846FFF78FFCFFF703FCFFF734
:101AD800B5FB2920FFF788FCFFF7FCFB0023FB730D
:101AE80013E0FA7B7B79013B9A4214BF0123002360
:101AF800DBB21946FB7B3A68D4180846FFF7B0FCFE
:101B080003462370FB7B0133FB73FA7B7B799A4294
:101B1800E7D3FFF7BBFB00BF1437BD4690BD0000FD
:101B280080B588B000AF464B9B69454A43F0100327
:101B38009361434B9B6903F010037B607B684FF410
:101B48000053BB600123FB6001233B6103237B61DE
:101B580007F1080319463B4809F09EF90223BB60C8
:101B68000023FB6007F108031946364809F094F989
:101B7800FFF734FB344B00221A600A20FFF7F2FC0F
:101B8800314B01221A600A20FFF7ECFC0223BB60EC
:101B980002233B610023FB6007F10803194629482B
:101BA80009F07AF96420FFF7DDFC07F11803042235
:101BB800194648F24010FFF76BFF00233B7707F107
:101BC8001803194621480AF03DFF07F11803204978
:101BD8001846FEF725FB0346002B2BD102233B7644
:101BE80007F118030122194648F24000FFF70EFFDB
:101BF80007F118030122194648F24700FFF748FF8A
:101C08003B7E5F2B07D83B7E194612480AF01AFF25
:101C18000120FFF7C7FE0A20FFF7A4FC00233B764C
:101C280007F118030122194648F24000FFF7EEFEBB
:101C3800002300E0002318462037BD4680BD00BFC2
:101C48000010024000100140B401224254D900089B
:101C580060D9000868D9000880B586B000AF03468F
:101C6800FB710023FB750023BB75904B1B78013378
:101C7800DAB28E4B1A708D4B1A788D4BA3FB021378
:101C8800D9080B469B000B445B00D31ADBB2002B30
:101C980004D0864B1B78092B00F2D680FB1D01224D
:101CA800194648F24E10FFF7F3FEFB795BB2002BA2
:101CB8000EDAFB7903F00F03052B09DC0023FB7315
:101CC80007F10F030122194648F24E10FFF79EFE56
:101CD800FB7903F00F03002B00F0B680FB7903F0CB
:101CE8000F03052B00F3B080FB7903F00F03FF22ED
:101CF80002FA03F3DBB2FB736E4B93F820307B756B
:101D0800FB7B5BB2DB435BB263F03F035BB2DAB2EF
:101D1800684B83F82020674B9A89664B9A82654BFB
:101D2800DA8A644BDA830023FB7559E0614B93F838
:101D380020301A46FB7D42FA03F303F00103002B1F
:101D48004BD0FB7D5C4A32F8133007F110010422B6
:101D58001846FFF79DFE574B93F8303003F0010308
:101D6800002B1ED07B7C1B029AB23B7C1946FB7D64
:101D78000A4491B24F4A08335B0013440A46DA809A
:101D8800FB7C1B029BB2BA7C13449AB2FB7DC2F562
:101D9800487291B2474A04335B0013440A469A805A
:101DA8001BE07B7C1B029AB23B7C1946FB7D0A44F4
:101DB80091B2404A04335B0013440A469A80FB7C84
:101DC8001B029AB2BB7C1946FB7D0A4491B2394A80
:101DD80008335B0013440A46DA80FB7D0133FB7548
:101DE800FB7D042BA2D90123BB75324B9A89334B57
:101DF8001B889A4205D82F4BDA8A304B5B889A4267
:101E08001FD9FB7903F00E03002B0BD0294BDA897D
:101E1800284B9A81274B1A8B264BDA82234B0022B8
:101E28001A7011E0234B9A8A224B9A81214BDA8B44
:101E3800204BDA828023FB711E4A7B7D82F820309A
:101E480002E01A4B00221A70FB7903F08F03802BF3
:101E580020D1184B93F820305BB2002B09DA154BD0
:101E680093F8203003F07F03DAB2124B83F8202076
:101E780010E0104B4FF6FF729A810E4B4FF6FF722F
:101E8800DA820C4B93F8203023F01F03DAB2094BA7
:101E980083F82020054B1B78F02B02D9034B0A222C
:101EA8001A70BB7D18461837BD4680BD490A002008
:101EB800CDCCCCCC78090020D0DC00084C0A00201E
:101EC80080B586B000AF1F4B9B691E4A43F00403E0
:101ED80093611C4B9B6903F004037B607B68194B7F
:101EE8009B69184A43F010039361164B9B6903F0F2
:101EF80010033B603B680123BB600023FB600223A7
:101F08003B6103237B6107F1080319460E4808F07B
:101F1800C3FF4FF40043BB6001233B6107F1080393
:101F28001946094808F0B8FF2023BB6001233B612C
:101F380007F108031946054808F0AEFF00BF183737
:101F4800BD4680BD0010024000080140001001405D
:101F580080B582B000AF0346FB71FB79012B02D13B
:101F68002F4B01221A702E4B1B78002B37D02021C3
:101F78002C4809F025F90346002B0ED04FF40041F8
:101F8800294809F01DF90346002B06D001212648EF
:101F980009F016F90346012B21D10A20FFF7E2FACE
:101FA8001F4B00221A7020211E4809F009F9034628
:101FB800002B01D101232EE04FF400411A4809F00B
:101FC800FFF80346002B01D1022324E00121164823
:101FD80009F0F6F80346012B1BD103231BE020214F
:101FE800104809F0EDF80346012B13D14FF40041D6
:101FF8000D4809F0E5F80346012B0BD101210A48E9
:1020080009F0DEF80346002B04D1054B01221A70B3
:1020180000E000BF002318460837BD4680BD00BF5A
:1020280000000020001001400008014080B483B087
:1020380000AF0346FB800D4B4FF480725A610B4B87
:102048004FF400725A610A4AFB88D360074B80221A
:102058005A61064B80221A61044B4FF400721A61D0
:1020680000BF0C37BD4680BC704700BF0010014060
:10207800000C014090B587B000AF044608461146F1
:102088001A462346FB800346BB800B467B801346DB
:102098003B804FF4FC63FB81FB6A3B61FB88BB829E
:1020A80024E0BB88FB8211E097F828309CB23B699A
:1020B8009A1C3A611B88B98AF88A224604F07FFA8A
:1020C80097F828309AB2FB8A1344FB82FA8A97F869
:1020D8002830798803FB01F1BB880B449A42E3DB83
:1020E80097F828309AB2BB8A1344BB82BA8A97F809
:1020F8002830398803FB01F1FB880B449A42D0DB76
:1021080000BF00BF1C37BD4690BD90B585B002AF7B
:102118000446084611461A462346FB800346BB8000
:102128000B467B8013463B80BB88023B98B2FB88FA
:10213800023B99B2BA887B8813449BB202339CB2A3
:10214800FA883B8813449BB202339BB24FF6FF7266
:102158000092224603F044FF00BF0C37BD4690BDF5
:1021680080B483B000AF0346FB800D4B4FF4807200
:102178001A610B4B4FF400725A610A4AFB88D3600C
:10218800074B80225A61064B80221A61044B4FF498
:1021980000721A6100BF0C37BD4680BC704700BF93
:1021A80000100140000C014080B483B000AF03462A
:1021B800FB7100BFFB795A1EFA71002BFAD100BFE0
:1021C80000BF0C37BD4680BC7047000080B582B0A8
:1021D80000AF1A4B4FF088321A60184B4FF0883214
:1021E8005A60164B0022DA60154B4FF480721A6160
:1021F800134B4FF400725A61114B40225A6102206E
:10220800FFF7D2FF0D4B9B68FB800D4B40221A61F4
:102218000B4B4FF400721A61084B4FF033321A60BF
:10222800064B4FF033325A60044B4FF6FF72DA60B8
:10223800FB8818460837BD4680BD00BF000C01402A
:102248000010014080B582B000AF03460A46FB800B
:102258001346BB80FB881846FFF7E8FE0C4B4FF48B
:1022680080721A610A4B4FF400725A61094ABB889E
:10227800D360074B80225A61054B80221A61044BB8
:102288004FF400721A6100BF0837BD4680BD00BF19
:1022980000100140000C014080B500AF034B1B89C2
:1022A8001846FFF7C3FE00BF80BD00BF4C0A0020E0
:1022B80080B582B000AF03460A46FB801346BB8058
:1022C800994B9B8841F66312934240F03381964BB9
:1022D8009B79002B63D1944B1A88FB88D31A9BB245
:1022E800013BFB80904B5B891846FFF79FFE8F4BA5
:1022F8004FF480721A618D4B4FF400725A618C4B07
:102308000022DA60894B80225A61884B80221A6148
:10231800864B4FF400721A61844B4FF480721A6135
:10232800824B4FF400725A61814B0022DA607F4B76
:1023380080225A617D4B80221A617C4B4FF40072D7
:102348001A617A4B4FF480721A61784B4FF400721D
:102358005A61FB881B0A9AB2754BDA60734B80226C
:102368005A61724B80221A61704B4FF400721A61E5
:102378006E4B4FF480721A616C4B4FF400725A61C5
:10238800FB886B4ADBB2D360684B80225A61674B8B
:1023980080221A61654B4FF400721A6161E0624B4A
:1023A8005B891846FFF742FE604B4FF480721A6152
:1023B8005E4B4FF400725A61FB881B0A9AB25C4B61
:1023C800DA605A4B80225A61584B80221A61574B67
:1023D8004FF400721A61554B4FF480721A61534BD7
:1023E8004FF400725A61FB88514ADBB2D3604F4BFD
:1023F80080225A614D4B80221A614C4B4FF4007277
:102408001A614A4B4FF480721A61484B4FF40072BC
:102418005A61454B1B88013B1A12454BDA60434B06
:1024280080225A61414B80221A61404B4FF400725E
:102438001A613E4B4FF480721A613C4B4FF40072A4
:102448005A61394B1B88013B394ADBB2D360374BA1
:1024580080225A61354B80221A61344B4FF4007246
:102468001A61314B9B891846FFF7E0FD2F4B4FF45B
:1024780080721A612D4B4FF400725A61BB881B0A97
:102488009AB22B4BDA60294B80225A61274B802263
:102498001A61264B4FF400721A61244B4FF4807274
:1024A8001A61224B4FF400725A61BB88204ADBB292
:1024B800D3601E4B80225A611C4B80221A611B4B31
:1024C8004FF400721A61194B4FF480721A61174B5E
:1024D8004FF400725A61144B5B88013B1A12144B7B
:1024E800DA60124B80225A61104B80221A610F4B1E
:1024F8004FF400721A610D4B4FF480721A610B4B46
:102508004FF400725A61084B5B88013B084ADBB202
:10251800D360064B80225A61044B80221A61034B18
:102528004FF400721A61E2E04C0A002000100140EA
:10253800000C0140704B9B8845F21052934272D1B7
:102548006D4B5B891846FFF771FD6C4B4FF4807239
:102558001A616A4B4FF400725A61FB881B0A9AB2DF
:10256800674BDA60654B80225A61644B80221A619E
:10257800624B4FF400721A615F4B5B8901339BB267
:102588001846FFF753FD5D4B4FF480721A615B4BA1
:102598004FF400725A61FB88594ADBB2D360574B3B
:1025A80080225A61554B80221A61544B4FF40072B5
:1025B8001A61514B9B891846FFF738FD4F4B4FF472
:1025C80080721A614D4B4FF400725A61BB881B0A26
:1025D8009AB24B4BDA60494B80225A61474B8022B2
:1025E8001A61464B4FF400721A61434B9B890133C1
:1025F8009BB21846FFF71AFD404B4FF480721A61E0
:102608003E4B4FF400725A61BB883D4ADBB2D3603F
:102618003A4B80225A61394B80221A61374B4FF46A
:1026280000721A6163E0344B5B891846FFF7FEFCC1
:10263800324B4FF480721A61304B4FF400725A617A
:10264800FB881B0A9AB22E4BDA602C4B80225A6107
:102658002A4B80221A61294B4FF400721A61274BCA
:102668004FF480721A61254B4FF400725A61FB884F
:10267800234ADBB2D360214B80225A611F4B802250
:102688001A611E4B4FF400721A611B4B9B89184646
:10269800FFF7CCFC194B4FF480721A61174B4FF4BB
:1026A80000725A61BB881B0A9AB2154BDA60134B49
:1026B80080225A61114B80221A61104B4FF400722C
:1026C8001A610E4B4FF480721A610C4B4FF4007272
:1026D8005A61BB880A4ADBB2D360084B80225A6130
:1026E800064B80221A61054B4FF400721A6100BF35
:1026F8000837BD4680BD00BF4C0A002000100140CD
:10270800000C014080B584B000AF0346FB71002384
:10271800FB810023BB815D4B9B79012B05D15B4B72
:102728009B8841F66312934209D1584B9B79002B41
:1027380034D1564B9B8841F6631293422ED1FB79D4
:10274800072B2BD801A252F823F000BF75270008E9
:102758007B27000881270008872700088D270008A5
:1027680093270008992700089F2700080623FB7174
:1027780014E00723FB7111E00423FB710EE005232D
:10278800FB710BE00123FB7108E00023FB7105E0FE
:102798000323FB7102E00223FB7100BFFB79072BC7
:1027A80035D801A252F823F017280008D1270008CD
:1027B800DB270008E5270008EF270008F9270008AD
:1027C800032800080D280008FB8943F08003FB81DB
:1027D8001DE0FB8943F04003FB8118E0FB8943F0CF
:1027E800C003FB8113E0FB8943F02003FB810EE06B
:1027F800FB8943F06003FB8109E0FB8943F0A003F8
:10280800FB8104E0FB8943F0E003FB8100BF1F4B21
:102818009B8845F21052934203D14FF45853BB8121
:1028280001E03623BB81194B9B8849F24132934220
:1028380005D0164B9B8847F28972934203D1FB89D6
:1028480043F00803FB81FA89BB8911461846FFF754
:10285800F9FC0E4B9B8841F66312934228D0FB8902
:1028680003F02003002B13D0084B1A88074B5B8812
:102878009A421DD2054B1B887B81044B5A88034B17
:102888001A80024A7B89538012E000BF4C0A00205C
:102898007F4B1A887E4B5B889A4209D97C4B1B88F0
:1028A8007B817B4B5A887A4B1A80794A7B89538083
:1028B800774B9B8845F21052934240F0EF80744B5F
:1028C8005B891846FFF7B2FB724B4FF480721A61AE
:1028D800704B4FF400725A616F4B0022DA606D4BF7
:1028E80080225A616B4B80221A616A4B4FF4007246
:1028F8001A61674B5B8901339BB21846FFF796FB59
:10290800644B4FF480721A61624B4FF400725A6143
:10291800614B0022DA605F4B80225A615D4B802256
:102928001A615C4B4FF400721A61594B5B89023390
:102938009BB21846FFF77AFB564B4FF480721A6128
:10294800544B4FF400725A61514B1B88013B1A12C9
:10295800514BDA604F4B80225A614E4B80221A61EC
:102968004C4B4FF400721A61494B5B8903339BB29D
:102978001846FFF75BFB474B4FF480721A61454BD3
:102988004FF400725A61424B1B88013B424ADBB24A
:10299800D360404B80225A613E4B80221A613D4BE6
:1029A8004FF400721A613A4B9B891846FFF73EFBB9
:1029B800384B4FF480721A61364B4FF400725A61EB
:1029C800354B0022DA60334B80225A61314B80222A
:1029D8001A61304B4FF400721A612D4B9B890133F9
:1029E8009BB21846FFF722FB2A4B4FF480721A61FC
:1029F800284B4FF400725A61274B0022DA60254BAE
:102A080080225A61234B80221A61224B4FF40072B4
:102A18001A611F4B9B8902339BB21846FFF706FBCE
:102A28001C4B4FF480721A611A4B4FF400725A61B2
:102A3800174B5B88013B1A12174BDA60154B802243
:102A48005A61144B80221A61124B4FF400721A61BA
:102A58000F4B9B8903339BB21846FFF7E7FA0D4BE0
:102A68004FF480721A610B4B4FF400725A61084B95
:102A78005B88013B084ADBB2D360064B80225A616F
:102A8800044B80221A61034B4FF400721A61C3E0B1
:102A98004C0A002000100140000C0140604B5B898B
:102AA8001846FFF7C3FA5F4B4FF480721A615D4B0B
:102AB8004FF400725A615C4B0022DA60594B802255
:102AC8005A61584B80221A61564B4FF400721A61B2
:102AD800544B4FF480721A61524B4FF400725A6192
:102AE800514B0022DA604F4B80225A614D4B8022B5
:102AF8001A614C4B4FF400721A614A4B4FF48072C2
:102B08001A61484B4FF400725A61454B1B88013BD0
:102B18001A12454BDA60434B80225A61414B80229E
:102B28001A61404B4FF400721A613E4B4FF48072A9
:102B38001A613C4B4FF400725A61394B1B88013BB8
:102B4800394ADBB2D360374B80225A61354B802239
:102B58001A61344B4FF400721A61314B9B89184645
:102B6800FFF764FA2F4B4FF480721A612D4B4FF424
:102B780000725A612C4B0022DA602A4B80225A617B
:102B8800284B80221A61274B4FF400721A61254B9B
:102B98004FF480721A61234B4FF400725A61224B32
:102BA8000022DA601F4B80225A611E4B80221A6174
:102BB8001C4B4FF400721A611A4B4FF480721A6161
:102BC800184B4FF400725A61154B5B88013B1A127F
:102BD800154BDA60134B80225A61124B80221A611E
:102BE800104B4FF400721A610E4B4FF480721A6149
:102BF8000C4B4FF400725A61094B5B88013B0A4A3F
:102C0800DBB2D360074B80225A61064B80221A61DF
:102C1800044B4FF400721A6100BF1037BD4680BDE7
:102C28004C0A002000100140000C014080B582B021
:102C380000AF03460A46FB801346BB80BA88FB8870
:102C480011461846FFF734FBFFF726FB0C4B4FF4F1
:102C580080721A610A4B4FF400725A61094B1A8844
:102C6800094BDA60064B80225A61054B80221A61B3
:102C7800034B4FF400721A6100BF0837BD4680BD90
:102C8800001001404A0A0020000C014080B582B0C3
:102C980000AF0346FB800B46BB8013467B803C4B52
:102CA8009B8845F21052934278D1394B5B8918467C
:102CB800FFF7BCF9374B4FF480721A61354B4FF46C
:102CC80000725A61FB881B0A9AB2334BDA60314BA7
:102CD80080225A612F4B80221A612E4B4FF40072CA
:102CE8001A612B4B5B8901339BB21846FFF79EF99B
:102CF800284B4FF480721A61264B4FF400725A61C8
:102D0800FB88254ADBB2D360224B80225A61214BD3
:102D180080221A611F4B4FF400721A611C4B9B8969
:102D28001846FFF783F91B4B4FF480721A61194B51
:102D38004FF400725A61BB881B0A9AB2164BDA60CC
:102D4800144B80225A61134B80221A61114B4FF4A5
:102D580000721A610E4B9B8901339BB21846FFF72C
:102D680065F90C4B4FF480721A610A4B4FF40072EC
:102D78005A61BB88084ADBB2D360064B80225A618D
:102D8800044B80221A61034B4FF400721A6141E12F
:102D98004C0A002000100140000C0140684B9B8841
:102DA80041F66312934240F0D180654B9B79002B2A
:102DB80006D1634B1A88FB88D31A9BB2013BFB8070
:102DC8005F4B5B891846FFF731F95E4B4FF4807211
:102DD8001A615C4B4FF400725A61FB881B0A9AB265
:102DE800594BDA60574B80225A61564B80221A6140
:102DF800544B4FF400721A61524B4FF480721A61AF
:102E0800504B4FF400725A61FB884F4ADBB2D360D3
:102E18004C4B80225A614B4B80221A61494B4FF42C
:102E280000721A61474B4FF480721A61454B4FF498
:102E380000725A61FB881B0A9AB2434BDA60414B15
:102E480080225A613F4B80221A613E4B4FF4007238
:102E58001A613C4B4FF480721A613A4B4FF400727E
:102E68005A61FB88384ADBB2D360364B80225A61FC
:102E7800344B80221A61334B4FF400721A61304B85
:102E88009B891846FFF7D2F82E4B4FF480721A61CF
:102E98002C4B4FF400725A61BB881B0A9AB22A4B1A
:102EA800DA60284B80225A61264B80221A61254B12
:102EB8004FF400721A61234B4FF480721A61214B50
:102EC8004FF400725A61BB881F4ADBB2D3601D4BB6
:102ED80080225A611B4B80221A611A4B4FF40072F0
:102EE8001A61184B4FF480721A61164B4FF4007236
:102EF8005A61BB881B0A9AB2134BDA60114B8022C5
:102F08005A61104B80221A610E4B4FF400721A61FD
:102F18000C4B4FF480721A610A4B4FF400725A61DD
:102F2800BB88094ADBB2D360064B80225A61054B45
:102F380080221A61034B4FF400721A616AE000BFE5
:102F48004C0A002000100140000C0140494B5B89ED
:102F58001846FFF76BF8484B4FF480721A61464BDE
:102F68004FF400725A61FB881B0A9AB2434BDA602D
:102F7800414B80225A61404B80221A613E4B4FF4EC
:102F880000721A613C4B4FF480721A613A4B4FF44D
:102F980000725A61FB88394ADBB2D360364B802213
:102FA8005A61354B80221A61334B4FF400721A6113
:102FB800304B9B891846FFF739F82F4B4FF4807236
:102FC8001A612D4B4FF400725A61BB881B0A9AB2E2
:102FD8002A4BDA60284B80225A61274B80221A61DB
:102FE800254B4FF400721A61234B4FF480721A611B
:102FF800214B4FF400725A61BB88204ADBB2D36080
:103008001D4B80225A611C4B80221A611A4B4FF4C7
:1030180000721A61184B4FF480725A61164B4FF4C4
:1030280000725A61134B1A89144BDA60124B8022D2
:103038005A61114B80221A610F4B4FF400721A61CA
:103048000D4B4FF480721A610B4B4FF400725A61AA
:103058000A4A7B88D360084B80225A61064B80223B
:103068001A61054B4FF400721A6100BF0837BD465C
:1030780080BD00BF4C0A002000100140000C014038
:1030880090B583B000AF0346FB71BE20FEF7CEFFBC
:103098004B4B4FF480721A61494B4FF400725A61DE
:1030A800484B0522DA60464B80225A61444B802205
:1030B8001A61434B4FF400721A61414B4FF480720E
:1030C8001A613F4B4FF400725A61FB791846FDF7BD
:1030D80003FA39A3D3E90023FDF768FA02460B4641
:1030E800384C10461946FDF711FD0346E360344B92
:1030F80080225A61324B80221A61314B4FF40072A0
:103108001A612F4B4FF480721A612D4B4FF40072E5
:103118005A612C4B0122DA60294B80225A61284BD4
:1031280080221A61264B4FF400721A61244B4FF427
:1031380080721A61224B4FF400725A61214BFF22B0
:10314800DA601F4B80225A611D4B80221A611C4B8A
:103158004FF400721A611A4B4FF480721A61184BBF
:103168004FF400725A61174B0022DA60144B802228
:103178005A61134B80221A61114B4FF400721A6185
:103188000F4B4FF480721A610D4B4FF400725A6165
:103198000C4B0022DA600A4B80225A61084B8022CD
:1031A8001A61074B4FF400721A6100BF0C37BD4615
:1031B80090BD00BFAFF30080666666666666044031
:1031C80000100140000C014080B582B000AF0346FA
:1031D800FB71584AFB799371FB79002B51D1554B00
:1031E800F0221A80534B4FF4A0725A80514B9B889F
:1031F80045F21052934214D14E4B4FF430521A817B
:103208004C4B4FF428525A814A4B4FF42C529A8116
:10321800484B4FF4F0721A80464B4FF448725A806C
:1032280020E0444B9B8841F66312934211D1414BF5
:103238002C221A813F4B2B225A813E4B2A229A81FB
:103248003C4B4FF4F0721A803A4B4FF448725A8054
:1032580008E0384B2C221A81364B2A225A81354BEA
:103268002B229A81334B9B8845F21032934259D1D5
:10327800304B4FF4A0721A802E4B4FF4F0725A80E4
:1032880050E02C4B4FF4A0721A802A4BF0225A803F
:10329800284B9B8845F21052934214D1254B4FF48A
:1032A80030521A81234B4FF428525A81214B4FF444
:1032B8002C529A811F4B4FF448721A801D4B4FF4C1
:1032C800F0725A8020E01B4B9B8841F663129342B0
:1032D80011D1184B2C221A81164B2A225A81154BD0
:1032E8002B229A81134B4FF448721A80114B4FF4DA
:1032F800F0725A8008E00F4B2C221A810D4B2A22BB
:103308005A810C4B2B229A810A4B9B8845F210322A
:10331800934207D1074B4FF4F0721A80054B4FF4D4
:10332800A0725A800020FFF7EDF900BF0837BD46AC
:1033380080BD00BF4C0A002080B588B000AFA14B0B
:103348009B69A04A43F0080393619E4B9B6903F075
:103358000803BB60BB689B4B9B699A4A43F0100308
:103368009361984B9B6903F010037B607B684FF473
:10337800F863FB6001233B6101237B610323BB618D
:1033880007F10C031946904807F086FD4FF6FF73C6
:10339800FB6007F10C0319468C4807F07DFD8C4B48
:1033A8005B68FB61FB6923F0E063FB61FB6943F049
:1033B8008063FB61864AFB6953603220FEF7D2F8CE
:1033C80001210020FEF73EFF3220FEF7CBF8D32084
:1033D800FEF72CFEFEF7FAFE03461A467D4B9A804E
:1033E800FEF7F4FE03461A467A4B9A80FEF7EEFE85
:1033F80003461A46774B9A80764B9B881B029AB2F3
:10340800744B9A80FEF7E2FE03461A46714B9B887E
:1034180013439AB26F4B9A806E4B9B8849F24132A4
:10342800934200F0C1800420FEF700FEFEF7CEFEB6
:1034380003461A46674B9A80FEF7C8FE03461A46AB
:10344800644B9A80FEF7C2FE03461A46614B9A8087
:10345800604B9B881B029AB25E4B9A80FEF7B6FEC1
:1034680003461A465B4B9B8813439AB2594B9A8082
:10347800584B9B8848F25252934203D1554B47F21E
:1034880089729A80534B9B8847F28972934200F065
:103498008B80D420FEF7CAFDFEF798FE03461A4635
:1034A8004C4B9A80FEF792FE03461A46494B9A8087
:1034B800FEF78CFE03461A46464B9A80454B9B887E
:1034C8001B029AB2434B9A80FEF780FE03461A46C7
:1034D800404B9B8813439AB23E4B9A803D4B9B8846
:1034E80045F2103293425FD04FF45A40FEF79EFDEA
:1034F800FEF76CFE03461A46364B9A804FF45B4043
:10350800FEF794FDFEF762FE03461A46314B9A8099
:10351800304B9B881B029AB22E4B9A804FF45C402A
:10352800FEF784FDFEF752FE03461A46294B9B8898
:1035380013439AB2274B9A80264B9B88B3F5004FCA
:1035480003D1244B45F210529A80224B9B8845F2B6
:103558001052934228D0A120FEF768FDFEF736FEF0
:1035680003461A461B4B9A80FEF730FE03461A465E
:10357800184B9A80174B9B881B029AB2154B9A805E
:10358800FEF724FE03461A46124B9B8813439AB251
:10359800104B9A800F4B9B8845F26172934203D17E
:1035A8000C4B41F663129A800A4B9B8819460A48CD
:1035B80009F048FA074B9B8849F24132934240F0A0
:1035C80023810BE00010024000100140000C014074
:1035D800000001404C0A00207CD90008CF20FEF7EB
:1035E80025FD0020FEF7BCFDC120FEF7B9FD302007
:1035F800FEF7B6FDED20FEF719FD6420FEF7B0FDDD
:103608000320FEF7ADFD1220FEF7AAFD8120FEF78C
:10361800A7FDE820FEF70AFD8520FEF7A1FD102092
:10362800FEF79EFD7A20FEF79BFDCB20FEF7FEFC01
:103638003920FEF795FD2C20FEF792FD0020FEF7BD
:103648008FFD3420FEF78CFD0220FEF789FDF72060
:10365800FEF7ECFC2020FEF783FDEA20FEF7E6FCEF
:103668000020FEF77DFD0020FEF77AFDC020FEF762
:10367800DDFC1B20FEF774FDC120FEF7D7FC0120FE
:10368800FEF76EFDC520FEF7D1FC3020FEF768FD81
:103698003020FEF765FDC720FEF7C8FCB720FEF70F
:1036A8005FFD3620FEF7C2FC4820FEF759FD3A20A0
:1036B800FEF7BCFC5520FEF753FDB120FEF7B6FC23
:1036C8000020FEF74DFD1A20FEF74AFDB620FEF752
:1036D800ADFC0A20FEF744FDA220FEF741FDF220D2
:1036E800FEF7A4FC0020FEF73BFD2620FEF79EFC1B
:1036F8000120FEF735FDE020FEF798FC0F20FEF7CD
:103708002FFD2A20FEF72CFD2820FEF729FD082092
:10371800FEF726FD0E20FEF723FD0820FEF720FD0C
:103728005420FEF71DFDA920FEF71AFD4320FEF7E1
:1037380017FD0A20FEF714FD0F20FEF711FD0020EB
:10374800FEF70EFD0020FEF70BFD0020FEF708FD3A
:103758000020FEF705FDE120FEF768FC0020FEF7DB
:10376800FFFC1520FEF7FCFC1720FEF7F9FC0720EC
:10377800FEF7F6FC1120FEF7F3FC0620FEF7F0FC3E
:103788002B20FEF7EDFC5620FEF7EAFC3C20FEF766
:10379800E7FC0520FEF7E4FC1020FEF7E1FC0F2013
:1037A800FEF7DEFC3F20FEF7DBFC3F20FEF7D8FCEF
:1037B8000F20FEF7D5FC2B20FEF738FC0020FEF783
:1037C800CFFC0020FEF7CCFC0120FEF7C9FC3F200F
:1037D800FEF7C6FC2A20FEF729FC0020FEF7C0FCF5
:1037E8000020FEF7BDFC0020FEF7BAFCEF20FEF734
:1037F800B7FC1120FEF71AFC7820FDF7B3FE29204C
:10380800FEF714FC02F096BB6D4B9B8847F2897259
:10381800934240F0D7801120FEF708FC7820FDF78E
:10382800A1FE3620FEF702FC0020FEF799FC3A20A4
:10383800FEF7FCFB0520FEF793FCB220FEF7F6FB33
:103848000C20FEF78DFC0C20FEF78AFC0020FEF70A
:1038580087FC3320FEF784FC3320FEF781FCB72079
:10386800FEF7E4FB3520FEF77BFCBB20FEF7DEFB12
:103878003220FEF775FCC020FEF7D8FB0C20FEF7BF
:103888006FFCC220FEF7D2FB0120FEF769FCC320C3
:10389800FEF7CCFB1020FEF763FCC420FEF7C6FB46
:1038A8002020FEF75DFCC620FEF7C0FB0F20FEF7C8
:1038B80057FCD020FEF7BAFBA420FEF751FCA1204C
:1038C800FEF74EFCE020FEF7B1FBD020FEF748FCE7
:1038D8000020FEF745FC0220FEF742FC0720FEF719
:1038E8003FFC0A20FEF73CFC2820FEF739FC32207A
:1038F800FEF736FC4420FEF733FC4220FEF730FC8E
:103908000620FEF72DFC0E20FEF72AFC1220FEF7FB
:1039180027FC1420FEF724FC1720FEF721FCE120E9
:10392800FEF784FBD020FEF71BFC0020FEF718FCF6
:103938000220FEF715FC0720FEF712FC0A20FEF70E
:103948000FFC2820FEF70CFC3120FEF709FC542060
:10395800FEF706FC4720FEF703FC0E20FEF700FCEE
:103968001C20FEF7FDFB1720FEF7FAFB1B20FEF7D5
:10397800F7FB1E20FEF7F4FB2A20FEF757FB00207A
:10398800FEF7EEFB0020FEF7EBFB0020FEF7E8FB5E
:10399800EF20FEF7E5FB2B20FEF748FB0020FEF7A3
:1039A800DFFB0020FEF7DCFB0120FEF7D9FB3F2000
:1039B800FEF7D6FB2920FEF739FB02F0BBBA00BFA1
:1039C8004C0A0020034B9B8845F21032934240F08A
:1039D8007C8701E04C0A0020ED20FEF727FB012040
:1039E800FEF7BEFBFE20FEF7BBFBEE20FEF71EFB3C
:1039F800DE20FEF7B5FB2120FEF7B2FBF120FEF733
:103A080015FB0120FEF7ACFBDF20FEF70FFB1020B3
:103A1800FEF7A6FBC420FEF709FB8F20FEF7A0FBEC
:103A2800C620FEF703FB0020FEF79AFBE220FEF714
:103A380097FBE220FEF794FBE220FEF791FBBF2004
:103A4800FEF7F4FAAA20FEF78BFBB020FEF7EEFA99
:103A58000D20FEF785FB0020FEF782FB0D20FEF708
:103A68007FFB0020FEF77CFB1120FEF779FB00208E
:103A7800FEF776FB1920FEF773FB0020FEF770FBBC
:103A88002120FEF76DFB0020FEF76AFB2D20FEF7D4
:103A980067FB0020FEF764FB3D20FEF761FB00207A
:103AA800FEF75EFB5D20FEF75BFB0020FEF758FB90
:103AB8005D20FEF755FB0020FEF752FBB120FEF714
:103AC800B5FA8020FEF74CFB0020FEF749FB8B205F
:103AD800FEF746FB0020FEF743FB9620FEF740FB6F
:103AE8000020FEF73DFBB220FEF7A0FA0020FEF70B
:103AF80037FB0020FEF734FB0220FEF731FB0020E5
:103B0800FEF72EFB0320FEF72BFB0020FEF728FB19
:103B1800B320FEF78BFA0020FEF722FB0020FEF709
:103B28001FFB0020FEF71CFB0020FEF719FB0020FE
:103B3800FEF716FB0020FEF713FB0020FEF710FB34
:103B48000020FEF70DFB0020FEF70AFB0020FEF721
:103B580007FB0020FEF704FB0020FEF701FB002016
:103B6800FEF7FEFA0020FEF7FBFA0020FEF7F8FA4F
:103B78000020FEF7F5FA0020FEF7F2FA0020FEF723
:103B8800EFFA0020FEF7ECFA0020FEF7E9FA002031
:103B9800FEF7E6FA0020FEF7E3FA0020FEF7E0FA67
:103BA8000020FEF7DDFAB420FEF740FA8B20FEF77E
:103BB800D7FA0020FEF7D4FA9620FEF7D1FA0020B3
:103BC800FEF7CEFAA120FEF7CBFA0020FEF7C8FADE
:103BD800B520FEF72BFA0220FEF7C2FA0020FEF706
:103BE800BFFA0320FEF7BCFA0020FEF7B9FA04205A
:103BF800FEF7B6FA0020FEF7B3FAB620FEF716FA7B
:103C08000020FEF7ADFA0020FEF7AAFAB720FEF76B
:103C18000DFA0020FEF7A4FA0020FEF7A1FA3F20D3
:103C2800FEF79EFA0020FEF79BFA5E20FEF798FA50
:103C38000020FEF795FA6420FEF792FA0020FEF7BE
:103C48008FFA8C20FEF78CFA0020FEF789FAAC2058
:103C5800FEF786FA0020FEF783FADC20FEF780FAEA
:103C68000020FEF77DFA7020FEF77AFA0020FEF7B2
:103C780077FA9020FEF774FA0020FEF771FAEB202D
:103C8800FEF76EFA0020FEF76BFADC20FEF768FA02
:103C98000020FEF765FAB820FEF7C8F90020FEF705
:103CA8005FFA0020FEF75CFA0020FEF759FA0020C0
:103CB800FEF756FA0020FEF753FA0020FEF750FAF6
:103CC8000020FEF74DFA0020FEF74AFABA20FEF768
:103CD800ADF92420FEF744FA0020FEF741FA00204F
:103CE800FEF73EFA0020FEF73BFAC120FEF79EF9E8
:103CF8002020FEF735FA0020FEF732FA5420FEF7AE
:103D08002FFA0020FEF72CFAFF20FEF729FA0020F0
:103D1800FEF726FAC220FEF789F90A20FEF720FAF4
:103D28000020FEF71DFA0420FEF71AFA0020FEF71D
:103D380017FAC320FEF77AF93C20FEF711FA0020A3
:103D4800FEF70EFA3A20FEF70BFA0020FEF708FA03
:103D58003920FEF705FA0020FEF702FA3720FEF7B1
:103D6800FFF90020FEF7FCF93C20FEF7F9F90020E6
:103D7800FEF7F6F93620FEF7F3F90020FEF7F0F922
:103D88003220FEF7EDF90020FEF7EAF92F20FEF7C2
:103D9800E7F90020FEF7E4F92C20FEF7E1F900200E
:103DA800FEF7DEF92920FEF7DBF90020FEF7D8F947
:103DB8002620FEF7D5F90020FEF7D2F92420FEF7D9
:103DC800CFF90020FEF7CCF92420FEF7C9F900202E
:103DD800FEF7C6F92320FEF7C3F90020FEF7C0F965
:103DE8003C20FEF7BDF90020FEF7BAF93620FEF7B1
:103DF800B7F90020FEF7B4F93220FEF7B1F9002038
:103E0800FEF7AEF92F20FEF7ABF90020FEF7A8F970
:103E18002C20FEF7A5F90020FEF7A2F92920FEF7CD
:103E28009FF90020FEF79CF92620FEF799F900205B
:103E3800FEF796F92420FEF793F90020FEF790F993
:103E48002420FEF78DF90020FEF78AF92320FEF7DB
:103E580087F90020FEF784F9C420FEF7E7F862200E
:103E6800FEF77EF90020FEF77BF90520FEF778F9CA
:103E78000020FEF775F98420FEF772F90020FEF79E
:103E88006FF9F020FEF76CF90020FEF769F91820A9
:103E9800FEF766F90020FEF763F9A420FEF760F943
:103EA8000020FEF75DF91820FEF75AF90020FEF70A
:103EB80057F95020FEF754F90020FEF751F90C206D
:103EC800FEF74EF90020FEF74BF91720FEF748F9E8
:103ED8000020FEF745F99520FEF742F90020FEF78D
:103EE8003FF9F320FEF73CF90020FEF739F9E62008
:103EF800FEF736F90020FEF733F9C520FEF796F8ED
:103F08003220FEF72DF90020FEF72AF94420FEF7AB
:103F180027F90020FEF724F96520FEF721F9002093
:103F2800FEF71EF97620FEF71BF90020FEF718F9B8
:103F38008820FEF715F90020FEF712F9C620FEF7D3
:103F480075F82020FEF70CF90020FEF709F9172074
:103F5800FEF706F90020FEF703F90120FEF700F945
:103F68000020FEF7FDF8C720FEF760F80020FEF7F6
:103F7800F7F80020FEF7F4F80020FEF7F1F800202B
:103F8800FEF7EEF8C820FEF751F80020FEF7E8F833
:103F98000020FEF7E5F80020FEF7E2F80020FEF723
:103FA800DFF8C920FEF742F80020FEF7D9F8002014
:103FB800FEF7D6F80020FEF7D3F80020FEF7D0F879
:103FC8000020FEF7CDF80020FEF7CAF80020FEF723
:103FD800C7F80020FEF7C4F80020FEF7C1F800205B
:103FE800FEF7BEF80020FEF7BBF80020FEF7B8F891
:103FF8000020FEF7B5F80020FEF7B2F80020FEF723
:10400800AFF80020FEF7ACF8E020FEF70FF8162016
:10401800FEF7A6F80020FEF7A3F81C20FEF7A0F88C
:104028000020FEF79DF82120FEF79AF80020FEF701
:1040380097F83620FEF794F80020FEF791F846200E
:10404800FEF78EF80020FEF78BF85220FEF788F86E
:104058000020FEF785F86420FEF782F80020FEF7BE
:104068007FF87A20FEF77CF80020FEF779F88B209D
:10407800FEF776F80020FEF773F89920FEF770F83F
:104088000020FEF76DF8A820FEF76AF80020FEF77A
:1040980067F8B920FEF764F80020FEF761F8C4203D
:1040A800FEF75EF80020FEF75BF8CA20FEF758F826
:1040B8000020FEF755F8D220FEF752F80020FEF750
:1040C8004FF8D920FEF74CF80020FEF749F8E02019
:1040D800FEF746F80020FEF743F8F320FEF740F815
:1040E8000020FEF73DF8E120FDF7A0FF1620FEF7BF
:1040F80037F80020FEF734F81C20FEF731F80020CE
:10410800FEF72EF82220FEF72BF80020FEF728F8FD
:104118003620FEF725F80020FEF722F84520FEF7A6
:104128001FF80020FEF71CF85220FEF719F80020AF
:10413800FEF716F86420FEF713F80020FEF710F8D3
:104148007A20FEF70DF80020FEF70AF88B20FEF71C
:1041580007F80020FEF704F89920FEF701F8002080
:10416800FDF7FEFFA820FDF7FBFF0020FDF7F8FF95
:10417800B920FDF7F5FF0020FDF7F2FFC420FDF799
:10418800EFFF0020FDF7ECFFCA20FDF7E9FF002054
:10419800FDF7E6FFD220FDF7E3FF0020FDF7E0FF83
:1041A800D820FDF7DDFF0020FDF7DAFFE020FDF75E
:1041B800D7FF0020FDF7D4FFF320FDF7D1FF002043
:1041C800FDF7CEFFE220FDF731FF0520FDF7C8FF20
:1041D8000020FDF7C5FF0B20FDF7C2FF0020FDF70B
:1041E800BFFF1B20FDF7BCFF0020FDF7B9FF3420FF
:1041F800FDF7B6FF0020FDF7B3FF4420FDF7B0FF41
:104208000020FDF7ADFF4F20FDF7AAFF0020FDF7C6
:10421800A7FF6120FDF7A4FF0020FDF7A1FF79208B
:10422800FDF79EFF0020FDF79BFF8820FDF798FF14
:104238000020FDF795FF9720FDF792FF0020FDF77E
:104248008FFFA620FDF78CFF0020FDF789FFB72020
:10425800FDF786FF0020FDF783FFC220FDF780FFF2
:104268000020FDF77DFFC720FDF77AFF0020FDF74E
:1042780077FFD120FDF774FF0020FDF771FFD620EE
:10428800FDF76EFF0020FDF76BFFDD20FDF768FFEF
:104298000020FDF765FFF320FDF762FF0020FDF722
:1042A8005FFFE320FDF7C2FE0520FDF759FF002060
:1042B800FDF756FF0A20FDF753FF0020FDF750FFDA
:1042C8001C20FDF74DFF0020FDF74AFF3320FDF7C6
:1042D80047FF0020FDF744FF4420FDF741FF002081
:1042E800FDF73EFF5020FDF73BFF0020FDF738FFAC
:1042F8006220FDF735FF0020FDF732FF7820FDF73B
:104308002FFF0020FDF72CFF8820FDF729FF002054
:10431800FDF726FF9720FDF723FF0020FDF720FF7C
:10432800A620FDF71DFF0020FDF71AFFB720FDF7B7
:1043380017FF0020FDF714FFC220FDF711FF002032
:10434800FDF70EFFC720FDF70BFF0020FDF708FF64
:10435800D120FDF705FF0020FDF702FFD520FDF76E
:10436800FFFE0020FDF7FCFEDD20FDF7F9FE002032
:10437800FDF7F6FEF320FDF7F3FE0020FDF7F0FE53
:10438800E420FDF753FE0120FDF7EAFE0020FDF7CB
:10439800E7FE0120FDF7E4FE0020FDF7E1FE022024
:1043A800FDF7DEFE0020FDF7DBFE2A20FDF7D8FE34
:1043B8000020FDF7D5FE3C20FDF7D2FE0020FDF7DA
:1043C800CFFE4B20FDF7CCFE0020FDF7C9FE5D2097
:1043D800FDF7C6FE0020FDF7C3FE7420FDF7C0FE02
:1043E8000020FDF7BDFE8420FDF7BAFE0020FDF792
:1043F800B7FE9320FDF7B4FE0020FDF7B1FEA22022
:10440800FDF7AEFE0020FDF7ABFEB320FDF7A8FEDA
:104418000020FDF7A5FEBE20FDF7A2FE0020FDF757
:104428009FFEC420FDF79CFE0020FDF799FECD20DD
:10443800FDF796FE0020FDF793FED320FDF790FED2
:104448000020FDF78DFEDD20FDF78AFE0020FDF738
:1044580087FEF320FDF784FE0020FDF781FEE520AE
:10446800FDF7E4FD0020FDF77BFE0020FDF778FE58
:104478000020FDF775FE0020FDF772FE0220FDF713
:104488006FFE0020FDF76CFE2920FDF769FE002075
:10449800FDF766FE3C20FDF763FE0020FDF760FE99
:1044A8004B20FDF75DFE0020FDF75AFE5D20FDF76D
:1044B80057FE0020FDF754FE7420FDF751FE002042
:1044C800FDF74EFE8420FDF74BFE0020FDF748FE69
:1044D8009320FDF745FE0020FDF742FEA220FDF7E0
:1044E8003FFE0020FDF73CFEB320FDF739FE00201B
:1044F800FDF736FEBE20FDF733FE0020FDF730FE47
:10450800C420FDF72DFE0020FDF72AFECD20FDF783
:1045180027FE0020FDF724FED320FDF721FE002012
:10452800FDF71EFEDC20FDF71BFE0020FDF718FE40
:10453800F320FDF715FE0020FDF712FEE620FDF73B
:1045480075FD1120FDF70CFE0020FDF709FE342053
:10455800FDF706FE0020FDF703FE5620FDF700FEDE
:104568000020FDF7FDFD7620FDF7FAFD0020FDF7A0
:10457800F7FD7720FDF7F4FD0020FDF7F1FD66203B
:10458800FDF7EEFD0020FDF7EBFD8820FDF7E8FDC7
:104598000020FDF7E5FD9920FDF7E2FD0020FDF77D
:1045A800DFFDBB20FDF7DCFD0020FDF7D9FD9920DC
:1045B800FDF7D6FD0020FDF7D3FD6620FDF7D0FD01
:1045C8000020FDF7CDFD5520FDF7CAFD0020FDF7C1
:1045D800C7FD5520FDF7C4FD0020FDF7C1FD4520AE
:1045E800FDF7BEFD0020FDF7BBFD4320FDF7B8FD3C
:1045F8000020FDF7B5FD4420FDF7B2FD0020FDF7D2
:10460800AFFDE720FDF712FD3220FDF7A9FD0020E0
:10461800FDF7A6FD5520FDF7A3FD0020FDF7A0FD41
:104628007620FDF79DFD0020FDF79AFD6620FDF739
:1046380097FD0020FDF794FD6720FDF791FD002010
:10464800FDF78EFD6720FDF78BFD0020FDF788FD47
:104658008720FDF785FD0020FDF782FD9920FDF7F5
:104668007FFD0020FDF77CFDBB20FDF779FD0020D4
:10467800FDF776FD9920FDF773FD0020FDF770FD2D
:104688007720FDF76DFD0020FDF76AFD4420FDF75A
:1046980067FD0020FDF764FD5620FDF761FD002051
:1046A800FDF75EFD2320FDF75BFD0020FDF758FDBB
:1046B8003320FDF755FD0020FDF752FD4520FDF79D
:1046C8004FFD0020FDF74CFDE820FDF7AFFC002072
:1046D800FDF746FD0020FDF743FD9920FDF740FD5D
:1046E8000020FDF73DFD8720FDF73AFD0020FDF78E
:1046F80037FD8820FDF734FD0020FDF731FD7720D8
:10470800FDF72EFD0020FDF72BFD6620FDF728FDA7
:104718000020FDF725FD8820FDF722FD0020FDF78C
:104728001FFDAA20FDF71CFD0020FDF719FDBB2089
:10473800FDF716FD0020FDF713FD9920FDF710FD8C
:104748000020FDF70DFD6620FDF70AFD0020FDF7AE
:1047580007FD5520FDF704FD0020FDF701FD55205C
:10476800FDF7FEFC0020FDF7FBFC4420FDF7F8FCFC
:104778000020FDF7F5FC4420FDF7F2FC0020FDF7D2
:10478800EFFC5520FDF7ECFC0020FDF7E9FCE920E3
:10479800FDF74CFCAA20FDF7E3FC0020FDF7E0FC48
:1047A8000020FDF7DDFC0020FDF7DAFC0020FDF716
:1047B8003DFCAA20FDF7D4FCCF20FDF737FC0020F4
:1047C800FDF7CEFC0020FDF7CBFC0020FDF7C8FC70
:1047D8000020FDF7C5FC0020FDF7C2FC0020FDF716
:1047E800BFFC0020FDF7BCFC0020FDF7B9FC002051
:1047F800FDF7B6FC0020FDF7B3FC0020FDF7B0FC88
:104808000020FDF7ADFC0020FDF7AAFC0020FDF715
:10481800A7FC0020FDF7A4FC0020FDF7A1FC002068
:10482800FDF79EFCF020FDF701FC0020FDF798FC49
:104838005020FDF795FC0020FDF792FC0020FDF7C5
:104848008FFC0020FDF78CFCF320FDF7EFFB002028
:10485800FDF786FCF920FDF7E9FB0620FDF780FC53
:104868001020FDF77DFC2920FDF77AFC0020FDF7DC
:1048780077FC3A20FDF7DAFB5520FDF771FC112093
:10488800FDF7D4FB6420FCF76DFE2920FDF7CEFB75
:104898003520FDF7CBFB0020FDF762FC5120FDF72A
:1048A800C5FBFF20FDF75CFC5320FDF7BFFB2C2068
:1048B800FDF756FC5520FDF7B9FB8220FDF750FCAB
:1048C8002C20FDF7B3FB01F035BB044B9B8845F268
:1048D8001052934240F0818702E000BF4C0A00204A
:1048E80055214FF47040FDF7ADFCAA214FF20100AD
:1048F800FDF7A8FC52214FF20200FDF7A3FC0821A6
:104908004FF20300FDF79EFC01214FF20400FDF772
:1049180099FC0D214FF43040FDF794FC0D214BF22A
:104928000100FDF78FFC0D214BF20200FDF78AFC18
:1049380034214FF43640FDF785FC34214BF20160F9
:10494800FDF780FC34214BF20260FDF77BFC0D2162
:104958004FF43140FDF776FC0D214BF20110FDF7C5
:1049680071FC0D214BF20210FDF76CFC34214FF461
:104978003740FDF767FC34214BF20170FDF762FC0C
:1049880034214BF20270FDF75DFC00214FF43240F8
:10499800FDF758FC00214BF20120FDF753FC0021E4
:1049A8004BF20220FDF74EFC24214FF43840FDF76E
:1049B80049FC24214BF60100FDF744FC24214BF669
:1049C8000200FDF73FFC01214FF43F40FDF73AFCA0
:1049D8000F214FF43340FDF735FC0F214BF2013026
:1049E800FDF730FC0F214BF20230FDF72BFC342190
:1049F8004FF43940FDF726FC34214BF60110FDF742
:104A080021FC34214BF60210FDF71CFC08214FF461
:104A18003540FDF717FC08214BF20150FDF712FC59
:104A280008214BF20250FDF70DFC03214FF44240E0
:104A3800FDF708FC24214FF43A40FDF703FC24213C
:104A48004BF60120FDF7FEFB24214BF60220FDF773
:104A5800F9FB00214FF43C40FDF7F4FB78214BF6BD
:104A68000140FDF7EFFB00214BF60240FDF7EAFBA2
:104A780000214FF43D40FDF7E5FB78214BF601504E
:104A8800FDF7E0FB00214BF60250FDF7DBFB0021B0
:104A98004FF43E40FDF7D6FB64214BF60160FDF76D
:104AA800D1FB00214FF45140FDF7CCFB33214DF2EF
:104AB8000110FDF7C7FB00214DF20210FDF7C2FB04
:104AC80034214DF20310FDF7BDFB00214DF2041017
:104AD800FDF7B8FB3A214DF20510FDF7B3FB0021B5
:104AE8004DF20610FDF7AEFB4A214DF20710FDF717
:104AF800A9FB00214DF20810FDF7A4FB5C214DF243
:104B08000910FDF79FFB00214DF20A10FDF79AFBF3
:104B180081214DF20B10FDF795FB00214DF20C1091
:104B2800FDF790FBA6214DF20D10FDF78BFB002140
:104B38004DF20E10FDF786FBE5214DF20F10FDF743
:104B480081FB01214DF21010FDF77CFB13214DF282
:104B58001110FDF777FB01214DF21210FDF772FBE2
:104B680054214DF21310FDF76DFB01214DF2141085
:104B7800FDF768FB82214DF21510FDF763FB01215B
:104B88004DF21610FDF75EFBCA214DF21710FDF726
:104B980059FB02214DF21810FDF754FB00214DF28C
:104BA8001910FDF74FFB02214DF21A10FDF74AFBD1
:104BB80001214DF21B10FDF745FB02214DF21C109F
:104BC800FDF740FB34214DF21D10FDF73BFB0221A0
:104BD8004DF21E10FDF736FB67214DF21F10FDF751
:104BE80031FB02214DF22010FDF72CFB84214DF200
:104BF8002110FDF727FB02214DF22210FDF722FBC1
:104C0800A4214DF22310FDF71DFB02214DF22410C3
:104C1800FDF718FBB7214DF22510FDF713FB022114
:104C28004DF22610FDF70EFBCF214DF22710FDF7B0
:104C380009FB02214DF22810FDF704FBDE214DF29D
:104C48002910FDF7FFFA02214DF22A10FDF7FAFAB2
:104C5800F2214DF22B10FDF7F5FA02214DF22C103E
:104C6800FDF7F0FAFE214DF22D10FDF7EBFA0321C6
:104C78004DF22E10FDF7E6FA10214DF22F10FDF738
:104C8800E1FA03214DF23010FDF7DCFA33214DF241
:104C98003110FDF7D7FA03214DF23210FDF7D2FAA1
:104CA8006D214DF23310FDF7CDFA00214FF452403B
:104CB800FDF7C8FA33214DF20120FDF7C3FA0021B0
:104CC8004DF20220FDF7BEFA34214DF20320FDF724
:104CD800B9FA00214DF20420FDF7B4FA3A214DF259
:104CE8000520FDF7AFFA00214DF20620FDF7AAFADC
:104CF8004A214DF20720FDF7A5FA00214DF20820C0
:104D0800FDF7A0FA5C214DF20920FDF79BFA00217E
:104D18004DF20A20FDF796FA81214DF20B20FDF79E
:104D280091FA00214DF20C20FDF78CFAA6214DF2E4
:104D38000D20FDF787FA00214DF20E20FDF782FACB
:104D4800E5214DF20F20FDF77DFA01214DF21020EB
:104D5800FDF778FA13214DF21120FDF773FA0121BE
:104D68004DF21220FDF76EFA54214DF21320FDF793
:104D780069FA01214DF21420FDF764FA82214DF2FF
:104D88001520FDF75FFA01214DF21620FDF75AFABA
:104D9800CA214DF21720FDF755FA02214DF21820CD
:104DA800FDF750FA00214DF21920FDF74BFA0221C8
:104DB8004DF21A20FDF746FA01214DF21B20FDF7AE
:104DC80041FA02214DF21C20FDF73CFA34214DF244
:104DD8001D20FDF737FA02214DF21E20FDF732FAA9
:104DE80067214DF21F20FDF72DFA02214DF22020F8
:104DF800FDF728FA84214DF22120FDF723FA02213C
:104E08004DF22220FDF71EFAA4214DF22320FDF7D2
:104E180019FA02214DF22420FDF714FAB7214DF2B8
:104E28002520FDF70FFA02214DF22620FDF70AFA98
:104E3800CF214DF22720FDF705FA02214DF2282057
:104E4800FDF700FADE214DF22920FDF7FBF90221DA
:104E58004DF22A20FDF7F6F9F2214DF22B20FDF74D
:104E6800F1F902214DF22C20FDF7ECF9FE214DF26B
:104E78002D20FDF7E7F903214DF22E20FDF7E2F989
:104E880010214DF22F20FDF7DDF903214DF23020DE
:104E9800FDF7D8F933214DF23120FDF7D3F903217D
:104EA8004DF23220FDF7CEF96D214DF23320FDF79A
:104EB800C9F900214FF45340FDF7C4F933214DF2ED
:104EC8000130FDF7BFF900214DF20230FDF7BAF9C4
:104ED80034214DF20330FDF7B5F900214DF20430CD
:104EE800FDF7B0F93A214DF20530FDF7ABF9002195
:104EF8004DF20630FDF7A6F94A214DF20730FDF7CD
:104F0800A1F900214DF20830FDF79CF95C214DF222
:104F18000930FDF797F900214DF20A30FDF792F9B3
:104F280081214DF20B30FDF78DF900214DF20C3047
:104F3800FDF788F9A6214DF20D30FDF783F9002120
:104F48004DF20E30FDF77EF9E5214DF20F30FDF7F9
:104F580079F901214DF21030FDF774F913214DF262
:104F68001130FDF76FF901214DF21230FDF76AF9A2
:104F780054214DF21330FDF765F901214DF214303B
:104F8800FDF760F982214DF21530FDF75BF901213B
:104F98004DF21630FDF756F9CA214DF21730FDF7DC
:104FA80051F902214DF21830FDF74CF900214DF26C
:104FB8001930FDF747F902214DF21A30FDF742F991
:104FC80001214DF21B30FDF73DF902214DF21C3055
:104FD800FDF738F934214DF21D30FDF733F9022180
:104FE8004DF21E30FDF72EF967214DF21F30FDF707
:104FF80029F902214DF22030FDF724F984214DF2E0
:105008002130FDF71FF902214DF22230FDF71AF980
:10501800A4214DF22330FDF715F902214DF2243079
:10502800FDF710F9B7214DF22530FDF70BF90221F4
:105038004DF22630FDF706F9CF214DF22730FDF766
:1050480001F902214DF22830FDF7FCF8DE214DF27E
:105058002930FDF7F7F802214DF22A30FDF7F2F872
:10506800F2214DF22B30FDF7EDF802214DF22C30F4
:10507800FDF7E8F8FE214DF22D30FDF7E3F80321A6
:105088004DF22E30FDF7DEF810214DF22F30FDF7EE
:10509800D9F803214DF23030FDF7D4F833214DF221
:1050A8003130FDF7CFF803214DF23230FDF7CAF861
:1050B8006D214DF23330FDF7C5F800214FF454400F
:1050C800FDF7C0F833214DF20140FDF7BBF8002190
:1050D8004DF20240FDF7B6F834214DF20340FDF7DA
:1050E800B1F800214DF20440FDF7ACF83A214DF239
:1050F8000540FDF7A7F800214DF20640FDF7A2F89C
:105108004A214DF20740FDF79DF800214DF2084075
:10511800FDF798F85C214DF20940FDF793F800215E
:105128004DF20A40FDF78EF881214DF20B40FDF754
:1051380089F800214DF20C40FDF784F8A6214DF2C4
:105148000D40FDF77FF800214DF20E40FDF77AF88B
:10515800E5214DF20F40FDF775F801214DF21040A1
:10516800FDF770F813214DF21140FDF76BF801219E
:105178004DF21240FDF766F854214DF21340FDF749
:1051880061F801214DF21440FDF75CF882214DF2DF
:105198001540FDF757F801214DF21640FDF752F87A
:1051A800CA214DF21740FDF74DF802214DF2184083
:1051B800FDF748F800214DF21940FDF743F80221A8
:1051C8004DF21A40FDF73EF801214DF21B40FDF764
:1051D80039F802214DF21C40FDF734F834214DF224
:1051E8001D40FDF72FF802214DF21E40FDF72AF869
:1051F80067214DF21F40FDF725F802214DF22040AE
:10520800FDF720F884214DF22140FDF71BF802211B
:105218004DF22240FDF716F8A4214DF22340FDF788
:1052280011F802214DF22440FDF70CF8B7214DF298
:105238002540FDF707F802214DF22640FDF702F858
:10524800CF214DF22740FCF7FDFF02214DF2284007
:10525800FCF7F8FFDE214DF22940FCF7F3FF0221AD
:105268004DF22A40FCF7EEFFF2214DF22B40FCF7FD
:10527800E9FF02214DF22C40FCF7E4FFFE214DF23C
:105288002D40FCF7DFFF03214DF22E40FCF7DAFF3B
:1052980010214DF22F40FCF7D5FF03214DF230408D
:1052A800FCF7D0FF33214DF23140FCF7CBFF03214F
:1052B8004DF23240FCF7C6FF6D214DF23340FCF74A
:1052C800C1FF00214FF45540FCF7BCFF33214DF2DC
:1052D8000150FCF7B7FF00214DF20250FCF7B2FF76
:1052E80034214DF20350FCF7ADFF00214DF204507C
:1052F800FCF7A8FF3A214DF20550FCF7A3FF002167
:105308004DF20650FCF79EFF4A214DF20750FCF77C
:1053180099FF00214DF20850FCF794FF5C214DF2F3
:105328000950FCF78FFF00214DF20A50FCF78AFF65
:1053380081214DF20B50FCF785FF00214DF20C50F6
:10534800FCF780FFA6214DF20D50FCF77BFF0021F2
:105358004DF20E50FCF776FFE5214DF20F50FCF7A9
:1053680071FF01214DF21050FCF76CFF13214DF233
:105378001150FCF767FF01214DF21250FCF762FF54
:1053880054214DF21350FCF75DFF01214DF21450EA
:10539800FCF758FF82214DF21550FCF753FF01210D
:1053A8004DF21650FCF74EFFCA214DF21750FCF78C
:1053B80049FF02214DF21850FCF744FF00214DF23D
:1053C8001950FCF73FFF02214DF21A50FCF73AFF43
:1053D80001214DF21B50FCF735FF02214DF21C5004
:1053E800FCF730FF34214DF21D50FCF72BFF022152
:1053F8004DF21E50FCF726FF67214DF21F50FCF7B7
:1054080021FF02214DF22050FCF71CFF84214DF2B0
:105418002150FCF717FF02214DF22250FCF712FF32
:10542800A4214DF22350FCF70DFF02214DF2245028
:10543800FCF708FFB7214DF22550FCF703FF0221C6
:105448004DF22650FCF7FEFECF214DF22750FCF717
:10545800F9FE02214DF22850FCF7F4FEDE214DF250
:105468002950FCF7EFFE02214DF22A50FCF7EAFE24
:10547800F2214DF22B50FCF7E5FE02214DF22C50A3
:10548800FCF7E0FEFE214DF22D50FCF7DBFE032178
:105498004DF22E50FCF7D6FE10214DF22F50FCF79E
:1054A800D1FE03214DF23050FCF7CCFE33214DF2F2
:1054B8003150FCF7C7FE03214DF23250FCF7C2FE13
:1054C8006D214DF23350FCF7BDFE00214FF45640DC
:1054D800FCF7B8FE33214DF20160FCF7B3FE002162
:1054E8004DF20260FCF7AEFE34214DF20360FCF78A
:1054F800A9FE00214DF20460FCF7A4FE3A214DF20A
:105508000560FCF79FFE00214DF20660FCF79AFE4D
:105518004A214DF20760FCF795FE00214DF2086024
:10552800FCF790FE5C214DF20960FCF78BFE002130
:105538004DF20A60FCF786FE81214DF20B60FCF704
:1055480081FE00214DF20C60FCF77CFEA6214DF295
:105558000D60FCF777FE00214DF20E60FCF772FE3D
:10556800E5214DF20F60FCF76DFE01214DF2106050
:10557800FCF768FE13214DF21160FCF763FE012170
:105588004DF21260FCF75EFE54214DF21360FCF7F9
:1055980059FE01214DF21460FCF754FE82214DF2B0
:1055A8001560FCF74FFE01214DF21660FCF74AFE2C
:1055B800CA214DF21760FCF745FE02214DF2186032
:1055C800FCF740FE00214DF21960FCF73BFE02217A
:1055D8004DF21A60FCF736FE01214DF21B60FCF714
:1055E80031FE02214DF21C60FCF72CFE34214DF2F5
:1055F8001D60FCF727FE02214DF21E60FCF722FE1B
:1056080067214DF21F60FCF71DFE02214DF220605C
:10561800FCF718FE84214DF22160FCF713FE0221ED
:105628004DF22260FCF70EFEA4214DF22360FCF738
:1056380009FE02214DF22460FCF704FEB7214DF269
:105648002560FCF7FFFD02214DF22660FCF7FAFD0C
:10565800CF214DF22760FCF7F5FD02214DF22860BD
:10566800FCF7F0FDDE214DF22960FCF7EBFD02218D
:105678004DF22A60FCF7E6FDF2214DF22B60FCF7B3
:10568800E1FD02214DF22C60FCF7DCFDFE214DF21C
:105698002D60FCF7D7FD03214DF22E60FCF7D2FDFB
:1056A80010214DF22F60FCF7CDFD03214DF2306043
:1056B800FCF7C8FD33214DF23160FCF7C3FD03212F
:1056C8004DF23260FCF7BEFD6D214DF23360FCF700
:1056D800B9FD55214FF47040FCF7B4FDAA214FF2F3
:1056E8000100FCF7AFFD52214FF20200FCF7AAFDC2
:1056F80008214FF20300FCF7A5FD00214FF204003A
:10570800FCF7A0FDCC214FF43140FCF79BFD0021B4
:105718004BF20110FCF796FD05214FF43640FCF7DB
:1057280091FD70214FF43740FCF78CFD70214BF24E
:105738000170FCF787FD01214FF43840FCF782FD2A
:1057480003214BF60100FCF77DFD03214BF6020017
:10575800FCF778FD03214BF60300FCF773FD0221EB
:105768004FF43C40FCF76EFD00214BF60140FCF77E
:1057780069FD00214BF60240FCF764FDD0214FF48F
:105788004940FCF75FFD02214CF60110FCF75AFD79
:1057980050214CF60210FCF755FD50214CF6031031
:1057A800FCF750FD50214CF60410FCF74BFD00218E
:1057B8004FF45450FCF746FD55214FF46850FCF760
:1057C80041FD4FF48850FCF731FC7820FBF78CFE44
:1057D8004FF42450FCF72AFCACE3A84B9B8841F615
:1057E8006312934240F0A683E220FCF71FFCA44B0F
:1057F8004FF480721A61A24B4FF400725A61A14BA8
:105808001D22DA609E4B80225A619D4B80221A61CC
:105818009B4B4FF400721A61994B4FF480721A61D6
:10582800974B4FF400725A61964B0222DA60944B00
:1058380080225A61924B80221A61914B4FF4007278
:105848001A618F4B4FF480721A618D4B4FF40072BE
:105858005A618C4B0422DA60894B80225A61884B4A
:1058680080221A61864B4FF400721A616420FBF79C
:105878003BFEE020FCF7DAFB814B4FF480721A61A3
:105888007F4B4FF400725A617E4B0122DA607C4BE9
:1058980080225A617A4B80221A61794B4FF4007248
:1058A8001A610A20FBF75EFEE020FCF7BFFB744B91
:1058B8004FF480721A61724B4FF400725A61714B47
:1058C8000322DA606E4B80225A616D4B80221A6186
:1058D8006B4B4FF400721A610C20FBF743FE01205A
:1058E800FCF7A4FB0A20FBF73DFEE620FCF79EFB35
:1058F800634B4FF480721A61614B4FF400725A6126
:10590800604B2F22DA605E4B80225A615C4B80220A
:105918001A615B4B4FF400721A61594B4FF4807255
:105928001A61574B4FF400725A61564BFF22DA60E6
:10593800534B80225A61524B80221A61504B4FF4CC
:1059480000721A614E4B4FF480721A614C4B4FF43F
:1059580000725A614B4BFF22DA60494B80225A6130
:10596800474B80221A61464B4FF400721A61B020EF
:10597800FCF75CFB424B4FF480721A61404B4FF4CA
:1059880000725A613F4B2022DA603D4B80225A61F7
:105998003B4B80221A613A4B4FF400721A61384B24
:1059A8004FF480721A61364B4FF400725A61354BCE
:1059B8000022DA60324B80225A61314B80221A6110
:1059C8002F4B4FF400721A612D4B4FF480721A61FD
:1059D8002B4B4FF400725A612A4B0322DA60284B92
:1059E80080225A61264B80221A61254B4FF400729F
:1059F8001A61234B4FF480721A61214B4FF40072E5
:105A08005A61204B40F21F32DA601D4B80225A61E6
:105A18001B4B80221A611A4B4FF400721A61184B03
:105A28004FF480721A61164B4FF400725A61154B8D
:105A38000122DA60124B80225A61114B80221A61CE
:105A48000F4B4FF400721A610D4B4FF480721A61BC
:105A58000B4B4FF400725A610A4B40F2DF12DA60C6
:105A6800074B80225A61064B80221A61044B4FF47F
:105A780000721A61024B4FF4807205E04C0A002054
:105A880000100140000C01401A61A34B4FF4007252
:105A98005A61A24B0022DA609F4B80225A619E4BCA
:105AA80080221A619C4B4FF400721A61B420FCF7F3
:105AB800BDFA994B4FF480721A61974B4FF40072FC
:105AC8005A61964B0422DA60934B80225A61924BBA
