:020000040800F2
:100000009806002045010008B70B0008AF0B000858
:10001000B30B000831070008EF1C000800000000C7
:10002000000000000000000000000000A10D00081A
:10003000E108000800000000290C00082D1000084D
:100040005F0100085F0100085F0100085F01000810
:100050005F0100085F010008E50800085F01000873
:100060005F0100085F0100085F0100085F010008F0
:100070005F0100085F0100085F0100085F010008E0
:100080005F0100085F0100085F0100085F010008D0
:100090005F0100085F0100085F01000819090008FE
:1000A0005F0100085F0100085F0100085F010008B0
:1000B000911000085F0100085F0100085F0100085F
:1000C0005F0100085F0100085F0100085F01000890
:1000D0005F010008DD180008651900085F010008CD
:1000E0005F0100085F0100085F0100085F01000870
:1000F0005F0100085F0100085F0100085F01000860
:100100005F0100085F010008C11200085F010008DC
:100110005F0100085F0100085F0100085F0100083F
:100120005F0100085F0100085F0100085F0100082F
:10013000DFF80CD000F0EAFA004800477928000800
:10014000980600200648804706480047FEE7FEE77D
:10015000FEE7FEE7FEE7FEE7FEE7FEE7FEE7FEE777
:100160003110000831010008421C10F8011B002961
:10017000FBD1801A704710B5002200E0521C835C4E
:100180008C5CA34201D1002BF8D1D8B2E1B2401A65
:1001900010BD2DE9FE4F804681EA0300C00F0C46DA
:1001A000009021F0004123F00045B8EB0200A94186
:1001B00005D24046214690461C460B46024623F097
:1001C0000040104347D0270DC7F30A00C3F30A517C
:1001D0000290401A019040286BDAC3F3130040F4F8
:1001E000801B0098924620B10023D2EB030A63EBF8
:1001F0000B0B01985946C0F14002504600F059F9E6
:1002000006460D4650465946019A00F071F910EB2A
:1002100008006141002487EA115284EAE7731A4317
:1002200040D0009A62B3019A012A4FEA075215DCC6
:10023000001B61EB02014FF0004202EA0752CDE9D8
:100240000042001C41F5801132462B4600F071F946
:1002500003B0BDE8F08F40462146F9E7001B61EB93
:100260000201001C41F5801300185B412018A2F523
:10027000001747EB030140EAD570B6196D4111E054
:100280006D084FEA360645EAC0754FEA0752001B73
:1002900061EB0201001C41F5801149084FEA300072
:1002A0000019514132462B4603B0BDE8F04F00F033
:1002B00031B90098012240000023D0EB020263EB29
:1002C000E073009821464FEAE074B8EB000061EB60
:1002D0000401E9E783F000435BE781F0004158E760
:1002E0002DE9FE4F81EA030404F0004421F00041AF
:1002F00000944FF0000B23F0004350EA01045ED05D
:1003000052EA03045BD0C3F30A54C1F30A552C44E8
:10031000A4F2F3340194A0FB0254C1F3130141F49D
:100320008011C3F3130343F4801301FB024400FB69
:10033000034E840A970A44EA815447EA8357A4FB90
:10034000076802958D0A05FB07854FEA932C04FB8D
:100350000C542705029D4FEA065847EA1637B5EBBD
:1003600008056EEB070C870E920E47EA811742EAEA
:100370008312A7FB0201B6EB0B0164EB00042B0D0B
:1003800043EA0C335E1844EB1C50DA465146E7FB57
:100390000201C5F313044FEA0B3343EA14534FEA47
:1003A0000432019C43EA0603A4F10C040294009C6D
:1003B000CDE900B400F0BDF803B0BDE8F08F002037
:1003C0000146F9E70EB5C10F80EAE0700844CA079C
:1003D000002140F233438DE80E000A460B4600F040
:1003E000A8F803B000BD70B5C1F30A5201F0004592
:1003F0000024C1F3130140F2FF3341F480119A420B
:1004000001DA002070BD40F233439A42A2F2334237
:1004100003DC524200F05CF800E090402C43F1D045
:10042000404270BD30B50B46014600202022012419
:1004300009E021FA02F59D4205D303FA02F5491BB2
:1004400004FA02F52844151EA2F10102F1DC30BDC8
:100450002DE9F05F0546002092469B4688460646F9
:10046000814640241BE0284641464746224600F08C
:100470002FF853465A46C01A914110D311461846D8
:10048000224600F016F82D1A67EB01084F46224667
:100490000120002100F00DF817EB00094E41201E4D
:1004A000A4F10104DFDC484631462A464346BDE854
:1004B000F09F202A04DB203A00FA02F10020704766
:1004C0009140C2F1200320FA03F319439040704792
:1004D000202A04DB203A21FA02F00021704721FA99
:1004E00002F3D040C2F12002914008431946704700
:1004F000202A06DBCB17203A41FA02F043EAE073E8
:1005000006E041FA02F3D040C2F1200291400843D4
:100510001946704710B5141E73F1000408DA401C28
:1005200041F1000192185B411A4301D120F0010012
:1005300010BD2DE9F04D92469B4611B1B1FA81F202
:1005400002E0B0FA80F220329046FFF7B2FF044694
:100550000F4640EA0A0041EA0B0153465A46084357
:1005600013D0114653EA010019D0C8F14002504699
:10057000FFF7AEFF05460E46504659464246FFF786
:1005800098FF084305D0012004E020463946BDE825
:10059000F08D0020054346EAE0762C4337430A9865
:1005A0006305E40AA0EB08000022FD0A44EA475470
:1005B0000A3002D500200146E9E70105101969411A
:1005C000DDE9084500196941BDE8F04DA2E72DE9D4
:1005D000F04D81EA030404F0004B21F0004514467D
:1005E0004FF0000A23F0004150EA050220D054EAFF
:1005F00001021DD0C5F30A570246C5F31303C1F328
:100600001300C1F30A5640F4801543F48013A7EB9E
:100610000608101BD64608F2FD3873EB050002D31E
:1006200008F1010801E092185B41B8F1000F03DA0C
:1006300000200146BDE8F08D00204FF480110646F1
:1006400084460EE0171B73EB050705D3121B63EB03
:10065000050306434CEA010C49084FEA30009218A2
:100660005B4150EA0107EDD152EA030012D082EA61
:10067000040083EA0501084305D0101BAB4106D2F4
:100680000122002306E000224FF0004302E06FF059
:10069000010253101AEB06004CEB085110EB0A0054
:1006A00041EB0B01BDE8F04DFFF734BFC1F30A5237
:1006B000C1F3130140F2FF3341F480119A4202DA90
:1006C00000200146704740F233439A42A2F233427F
:1006D00002DC5242FFF7FCBEFFF7EBBE30B5041E52
:1006E00071F1000404DB4FF00044404264EB01016F
:1006F000141E73F1000405DB1C464FF00043524208
:1007000063EB0403994208BF904230BD064C074D8D
:1007100006E0E06840F0010394E8070098471034D1
:10072000AC42F6D3FFF708FDC42A0008E42A00080B
:1007300000BFFEE721B1026842F00102026004E05E
:1007400002684FF6FE731A400260704701684FF668
:10075000FE72114001600021016041608160C16052
:100760004B49884208D14A490839496841F00F018C
:10077000474A083A51608AE045491431884208D115
:1007800043490839496841F0F001414A083A51604B
:100790007DE03F492831884208D13D490839496800
:1007A00041F470613A4A083A516070E038493C318E
:1007B000884208D136490839496841F47041344AC1
:1007C000083A516063E032495031884208D13049DB
:1007D0000839496841F470212D4A083A516056E0C1
:1007E0002B496431884208D129490839496841F4C4
:1007F0007001274A083A516049E02549783188421A
:1008000008D123490839496841F07061204A083A03
:1008100051603CE01F49884206D1011F096841F040
:100820000F01021F116032E01A491431884208D1C9
:100830001849091F096841F0F001164A121F11609A
:1008400025E014492831884208D11249091F096856
:1008500041F470610F4A121F116018E00D493C31DC
:10086000884208D10B49091F096841F47041094ABF
:10087000121F11600BE007495031884207D105492A
:10088000091F096841F47021024A121F1160704764
:1008900008000240080402400146486880B27047E0
:1008A00010B50022026847F6F0739A430C6A8B6811
:1008B00023430C6923434C6923438C692343CC694C
:1008C00023434C6A23438C6A23431A430260CB6858
:1008D00043600B6883604B68C36010BD4160704724
:1008E0007047000010B50A2001F092FF012108486E
:1008F00000F0BDF8012807D10648006808B90120BA
:1009000000E0002003490860012000F01FF810BD3E
:10091000001801408881224210B50A2001F078FFBA
:100920002021084800F0A3F838B90748006808B942
:10093000012000E0002004490860202000F006F8B3
:1009400010BD000000100140A001214201490860D3
:1009500070470000140401402DE9F04102460025D3
:100960000026002000230024002791F803C00CF08B
:100970000F0591F803C00CF0100CBCF1000F03D070
:1009800091F802C04CEA050591F800C0BCF1000FD7
:1009900031D0146800202BE04FF0010C0CFA00F36A
:1009A000B1F800C00CEA03069E4220D183004FF04C
:1009B0000F0C0CFA03F7BC4305FA03FC4CEA0404E1
:1009C00091F803C0BCF1280F06D14FF0010C0CFACE
:1009D00000FCC2F814C00AE091F803C0BCF1480F53
:1009E00005D14FF0010C0CFA00FCC2F810C0401CFD
:1009F0000828D1D31460B1F800C0BCF1FF0F34DD7A
:100A0000546800202EE000F1080C4FF0010808FAAD
:100A10000CF3B1F800C00CEA03069E4221D183001A
:100A20004FF00F0C0CFA03F7BC4305FA03FC4CEA39
:100A3000040491F803C0BCF1280F05D100F1080CA3
:100A400008FA0CF8C2F8148091F803C0BCF1480F02
:100A500007D100F1080C4FF0010808FA0CF8C2F8B1
:100A60001080401C0828CED35460BDE8F0810246B7
:100A7000002093680B400BB1012000E0002070477C
:100A8000416170470161704770B504460D46002111
:100A9000012000F087F92146002000F083F90021B1
:100AA000012000F0DDF92146002000F0D9F9A8B2BC
:100AB00001F0AEFE70BD70B504460D46604246B210
:100AC0003146012000F06EF90021084600F06AF975
:100AD0003146012000F0C4F90021084600F0C0F9B9
:100AE000A8B201F095FE70BD2DE9F04104460D4617
:100AF000C4F1640046B2704247B23146012000F0B2
:100B000051F93946002000F04DF93146012000F03E
:100B1000A7F93946002000F0A3F9A8B201F078FE49
:100B2000BDE8F08110B504460021012000F03AF93B
:100B30000021084600F036F94FF480410E48FFF7D7
:100B40009FFF4FF480510C48FFF79AFF00210120CE
:100B500000F086F90021084600F082F94FF40041C8
:100B60000548FFF78DFF4FF400510348FFF788FF5A
:100B7000A0B201F04DFE10BD000C014070B504465E
:100B80000D46604246B23146012000F00BF9214685
:100B9000002000F007F93146012000F061F92146FC
:100BA000002000F05DF9A8B201F032FE70BD00BF78
:100BB000FEE700BFFEE7704770B5002100230F225B
:100BC000C47804B3154C246804F4E064C4F5E0640C
:100BD000210AC1F10403CA40447804FA03F184787D
:100BE0001440214309010E4C0678A155047804F005
:100BF0001F050124AC4005786D11AD0005F1E0251D
:100C0000C5F8004109E0047804F01F050124AC4058
:100C1000044D0678761145F8264070BD0CED00E0D5
:100C200000E400E080E100E07047000029B1064ADE
:100C300052690243044B5A6104E0034A52698243F9
:100C4000014B5A61704700000010024029B1064A6A
:100C5000D2690243044BDA6104E0034AD269824359
:100C6000014BDA61704700000010024029B1064ACA
:100C700012690243044B1A6104E0034A1269824379
:100C8000014B1A61704700000010024029B1064A6A
:100C900092690243044B9A6104E0034A92698243D9
:100CA000014B9A61704700000010024029B1064ACA
:100CB000D2680243044BDA6004E0034AD2688243FC
:100CC000014BDA60704700000010024030B500218F
:100CD0000022002400232D4D6D6805F00C0121B188
:100CE000042905D0082923D105E0294D056022E01B
:100CF000274D05601FE0254D6D6805F47012234DEA
:100D00006D6805F48034022505EB92421CB9214D33
:100D1000554305600BE01D4D6D6805F400351DB1B0
:100D20001C4D5543056002E0194D5543056002E036
:100D3000174D056000BF00BF144D6D6805F0F00150
:100D40000909154D6B5C0568DD4045600F4D6D6808
:100D500005F4E061090A104D6B5C4568DD40856073
:100D60000A4D6D6805F46051C90A0B4D6B5C45680E
:100D7000DD40C560054D6D6805F44041890B074DA8
:100D80006B5CC568B5FBF3F5056130BD0010024032
:100D900000127A0000093D00000000201000002031
:100DA000704700002DE9FC4782460C46642C00DBAE
:100DB000642414F1640F01DC6FF063042046FFF734
:100DC00001FB21F0004107460022214BFFF788FA82
:100DD000054600221F4BFFF780FACDE90001FFF71F
:100DE00002FB0FFA80F9BAF1000F03D0BAF1010F3C
:100DF0002AD114E01FFA89F1174800F0E2FC002C18
:100E000005DD4FF480411548FFF73AFE06E0002C5F
:100E100004DA4FF480411148FFF734FE14E01FFA62
:100E200089F10D4800F0C9FC002C05DD4FF480511C
:100E30000A48FFF727FE06E0002C04DA4FF4805141
:100E40000648FFF71DFE00BF00BFBDE8FC8700009D
:100E5000000052400021BC4000080040000C01404E
:100E60002DE9FC4782460C46642C00DB642414F117
:100E7000640F01DC6FF063042046FFF7A3FA21F052
:100E8000004107460022214BFFF72AFA05460022BF
:100E90001F4BFFF722FACDE90001FFF7A4FA0FFA82
:100EA00080F9BAF1000F03D0BAF1010F2AD114E092
:100EB0001FFA89F1174800F086FC002C05DD4FF47D
:100EC00000411548FFF7DCFD06E0002C04DA4FF482
:100ED00000411148FFF7D6FD14E01FFA89F10D48D3
:100EE00000F06DFC002C05DD4FF400510A48FFF7BF
:100EF000C9FD06E0002C04DA4FF400510648FFF764
:100F0000BFFD00BF00BFBDE8FC87000000005240ED
:100F10000021BC4000080040000C014010B500F06A
:100F200001F810BD0CB50020019000903348006816
:100F300040F480303149086000BF3048006800F458
:100F4000003000900198401C0190009818B9019859
:100F5000B0F5A06FF1D12948006800F4003010B15D
:100F60000120009001E0002000900098012843D16A
:100F70002348006840F010002149086008460068D6
:100F800020F0030008600846006840F00200086096
:100F90001A48406819494860084640684860084651
:100FA000406840F4806048600846406820F47C1047
:100FB00048600846406840F4E81048600846006809
:100FC00040F08070086000BF0C48006800F00070BE
:100FD0000028F9D00948406820F00300074948601C
:100FE0000846406840F00200486000BF034840687F
:100FF00000F00C000828F9D10CBD000000100240E0
:1010000000200240042808D14FF0E021096941F096
:1010100004014FF0E022116107E04FF0E02109697F
:1010200021F004014FF0E022116170477047000089
:1010300010B51348006840F00100114908600846E7
:101040004068104908400E494860084600680E494B
:1010500008400B4908600846006820F480200860BA
:101060000846406820F4FE0048604FF41F00886086
:10107000FFF754FF4FF000600449086010BD000006
:10108000001002400000FFF8FFFFF6FE08ED00E050
:1010900010B50121880700F00FFA60B106480088FA
:1010A00040F40040044908800121880700F0E3F97A
:1010B000002000F02DF810BD3E0000207FB5054651
:1010C0000C4601210846FFF7C1FDADF80450ADF80C
:1010D00000400020ADF80600ADF8020069464FF070
:1010E000804000F075FB01221146900700F0F5F9F1
:1010F0001C208DF80C0001208DF80D0002208DF8C9
:101100000E0001208DF80F0003A8FFF755FD7FBDED
:1011100010B504464CB100214FF0804000F056FB62
:101120000121880700F0AAF904E000214FF0804077
:1011300000F0A4F910BD000030B589B005460C469A
:1011400001210420FFF782FD01210820FFF79EFD09
:101150004FF48050ADF8040003208DF806001020F5
:101160008DF8070001A95448FFF7F6FB4020ADF8C1
:10117000040003208DF8060018208DF8070001A94F
:101180004D48FFF7E9FB4FF48040ADF80400032021
:101190008DF8060010208DF8070001A94648FFF7DA
:1011A000DBFB4FF48070ADF8040003208DF80600DF
:1011B00018208DF8070001A93F48FFF7CDFB4FF439
:1011C0000050ADF8040003208DF8060010208DF8C3
:1011D000070001A93848FFF7BFFB8020ADF80400E5
:1011E00003208DF8060018208DF8070001A9324869
:1011F000FFF7B2FB4FF40040ADF8040003208DF878
:10120000060010208DF8070001A92B48FFF7A4FB6A
:101210004FF40070ADF8040003208DF8060018208C
:101220008DF8070001A92448FFF796FBADF81C5084
:10123000ADF818400020ADF81E00ADF81A0006A960
:101240001E4800F0C5FA7020ADF808000120ADF886
:101250000A000020ADF80E00ADF8100002A91748F2
:1012600000F006FA02A9154800F040F902A9134857
:1012700000F092F902A9114800F054FA01210F4838
:1012800000F008F908210D4800F042FA08210B4847
:1012900000F078F90821094800F0DDF90821074835
:1012A00000F07EFA0121054800F0D6F8012103483C
:1012B00000F0E4F809B030BD000C01400008004027
:1012C00010B501215E4800F0F7F8F8B15D480078EC
:1012D00000F08000D0B15B48007820F01000594940
:1012E00008700846007800F00F0020B90846007822
:1012F00040F0400008705348007800F00F000E28BE
:1013000005DA50480078401C4E4908700AE04D4804
:10131000007820F080004B4908700846007800F003
:10132000F00008700421464800F0C6F8002810D0EC
:101330004548006870B10221414800F07FF9002162
:101340003F4800F043FA3F48007840F010003D4924
:10135000087070E03A4800F0ACF83C490880002181
:10136000374800F06BF93748007800F0100000288B
:101370005BD03448007800F08000E8B33348008840
:10138000B0F5967F0DDD31480088B0F5487F08DA6A
:101390002F48006840002E49086008460068086031
:1013A00043E02A480088B0F5AF6F0FDD274800887A
:1013B000B0F5E16F0ADA2648006840002449086069
:1013C0000846006840F0010008602EE01F480088D1
:1013D00040F69801884228DD1C48008840F6282104
:1013E000884222DA1B480078401C1A4908701548C8
:1013F000007800F0F00000E002E01249087014E00C
:101400001248008841F2680188420EDD0F480088CA
:1014100041F25C21884208DA0A48007840F08000F6
:101420000849087000200B4908700648007820F031
:101430001000044908700521014800F019F810BD9A
:10144000000C00403400002004012142360000203E
:10145000380000203C00002021B1028842F08002C8
:10146000028004E002884FF67F731A4002807047C2
:10147000CA4302827047CA430282704721B1028880
:1014800042F00102028004E002884FF6FE731A4027
:101490000280704731B1B0F8442042F40042A0F815
:1014A000442005E0B0F84420C2F30E02A0F8442026
:1014B00070470146088F704730B502460020002370
:1014C0000024158A05EA0103958905EA010413B190
:1014D0000CB1012000E0002030BD1AB183890B431C
:1014E000838102E083898B438381704770B5002438
:1014F00000220023058C4FF6FE7635400584028CD1
:101500008388048B4FF68F752C40B51E2C400D88B8
:101510002C43751E2A400D892A434D882A43144DB9
:10152000A8420BD0134DA84208D0134DA84205D0B5
:10153000124DA84202D0124DA84213D14FF6F775B2
:101540002A404D892A434FF6FB752A408D882A434D
:101550004FF6FF652B404FF6FF552B408D892B43EF
:10156000CD892B4383800483CD888586028470BD1A
:10157000002C014000340140004001400044014083
:10158000004801400A460021018B4FF6F7731940CD
:10159000114301837047000070B50024002200232E
:1015A000058C4FF6EF7635400584028C8388048BDA
:1015B00048F6FF752C404FF6FF452C400D884FF63E
:1015C000FF7606EA05252C434FF6DF752A400D8984
:1015D00006EA05152A434D8806EA05152A43154DE6
:1015E000A84202D0144DA8421DD14FF67F752A4063
:1015F0004D894FF6FF7606EA05152A434FF6BF756B
:101600002A408D8806EA05152A434FF6FF352B4000
:101610004FF2FF752B408D8906EA85052B43CD8956
:1016200006EA85052B4383800483CD8805870284E1
:1016300070BD0000002C0140003401400A4600212A
:10164000018C4FF6DF7319404FF6FF7303EA021364
:101650001943018470470A460021018B4FF2FF7342
:1016600019404FF6FF7303EA0223194301837047C1
:1016700070B5002400220023058C4FF6FF6635402C
:101680000584028C8388848B4FF68F752C404FF62F
:10169000FC752C400D882C434FF6FF552A400D89D0
:1016A0004FF6FF7606EA05252A434D8806EA05250A
:1016B0002A43154DA84202D0144DA8421DD14FF225
:1016C000FF752A404D894FF6FF7606EA05252A4325
:1016D0004FF6FF352A408D8806EA05252A434EF647
:1016E000FF752B404DF6FF752B408D8906EA0515D9
:1016F0002B43CD8906EA05152B4383808483CD884F
:101700008587028470BD0000002C01400034014038
:101710000A460021818B4FF6F773194011438183EC
:101720007047000070B5002200230024058C4EF69F
:10173000FF7635400584038C8488828B48F6FF75DC
:101740002A404FF6FF452A400D884FF6FF7606EAFD
:1017500005252A434DF6FF752B400D8906EA053510
:101760002B434D8806EA05352B430B4DA84202D08A
:101770000A4DA84208D14BF6FF752C408D894FF6D3
:10178000FF7606EA85152C4384808283CD88A0F8F5
:101790004050038470BD0000002C01400034014023
:1017A0000A460021818B4FF2FF7319404FF6FF73F9
:1017B00003EA0223194381837047818670470187BA
:1017C000704781877047A0F8401070478184704748
:1017D000002202881D4B98420ED01D4B98420BD020
:1017E000B0F1804F08D01B4B984205D01A4B98425D
:1017F00002D01A4B984204D14FF68F731A404B888F
:101800001A43174B984207D0164B984204D04FF614
:10181000FF431A40CB881A4302808B8883850B884C
:1018200003850A4B98420BD0094B984208D00E4BC7
:10183000984205D00D4B984202D00D4B984201D1F1
:101840000B7A03860123838270470000002C01403D
:10185000003401400004004000080040000C00403B
:1018600000100040001400400040014000440140CE
:101870000048014070B58CB006460C461546012163
:101880000846FFF7D3F93046FEF760FF0194029552
:1018900010200390002004900590802006900020E6
:1018A0000790089009904FF480500A9000200B9008
:1018B00001A93046FEF7F4FF0CB070BD70B50446C8
:1018C0000D4600212046FEF735FF29462046FFF74A
:1018D00005F801212046FEF72DFF70BD10B540F23E
:1018E00025511D4800F042F910B31B4800F0FAF9E9
:1018F000C4B21A48008800F40040C8B917480088EC
:1019000000F4804060B10A2C03D000201349088005
:1019100020E01248008840F400401049088019E097
:101920000D2C06D10D48008840F480400B490880FA
:1019300010E00A480088C0F30D0009490C5407481C
:101940000088401C0549088008460088C72801DD3A
:101950000020088010BD0000003801403000002049
:101960004000002010B540F22551134800F0FEF869
:1019700008B3114800F0B6F9C4B210480088C8286E
:1019800013DA00214FF08040FFF720FF0B4800885A
:1019900010B90120FFF7BCFB084801880088401CF3
:1019A000064A10800648445405E00448008840F484
:1019B00000400249088010BD004400403E00002065
:1019C000D001002010B586B0044601210420FFF7A5
:1019D0005DF901214804FFF739F92D4800F078F846
:1019E0000420ADF8100003208DF8120018208DF8A7
:1019F000130004A92748FEF7AFFF0820ADF8100038
:101A000004208DF8130004A92248FEF7A5FF0094D6
:101A10000020ADF80400ADF80600ADF80800ADF800
:101A20000C000C20ADF80A006946194800F0EEF8E9
:101A300001228021164800F041F8174A1449091D77
:101A40001648FFF717FF0121114800F02BF801227B
:101A500040F225510E4800F0B3F826208DF814000E
:101A600002208DF8150003208DF8160001208DF856
:101A7000170005A8FFF7A0F841F61F416320FFF704
:101A80001DFB002006490880FFF742FB06B010BD91
:101A9000004400400008014008010020800002408E
:101AA0003E00002021B1828942F40052828104E08C
:101AB00082894DF6FF731A40828170471AB1838A7A
:101AC0000B43838202E0838A8B438382704700004A
:101AD00010B504462048844209D101218803FFF74C
:101AE000E5F800214FF48040FFF7E0F832E01B48B2
:101AF000844209D101214804FFF7B8F800214FF4CE
:101B00000030FFF7B3F825E01548844209D10121E0
:101B10008804FFF7ABF800214FF48020FFF7A6F808
:101B200018E01048844209D10121C804FFF79EF84B
:101B300000214FF40020FFF799F80BE00A48844297
:101B400008D101210805FFF791F800214FF480101A
:101B5000FFF78CF810BD0000003801400044004041
:101B600000480040004C00400050004070B5024664
:101B7000002400230025002040F66A16B14200D15F
:101B800000BFC1F3421501F01F03012606FA03F35B
:101B9000012D02D19689334006E0022D02D1168A2A
:101BA000334001E0968A33400C12012606FA04F411
:101BB0001688344013B10CB1012000E0002070BD44
:101BC000F0B50346002400260025002040F66A17E1
:101BD000B94200D100BF1846C1F3421401F01F06FC
:101BE000012707FA06F5012C01D10C3004E0022C84
:101BF00001D1103000E014301AB107682F4307609C
:101C000002E00768AF430760F0BD00002DE9F04730
:101C100086B005460E460024A24600BFA146002716
:101C2000B08900B100BF2F462C8A4CF6FF700440EB
:101C3000F08804432C82AC894EF6F3100440B0883F
:101C400031890843718908430443AC81AC8A4FF65B
:101C5000FF400440B0890443AC8201A8FFF736F886
:101C60001F48874202D1DDF810A001E0DDF80CA08A
:101C7000A88900F4004040B10AEBCA0000EB0A104A
:101C800031684900B0FBF1F807E00AEBCA0000EB4D
:101C90000A1031688900B0FBF1F86420B8FBF0F05D
:101CA00004012009642101FB1089A88900F4004087
:101CB00040B1322000EBC900B0FBF1F000F00700AA
:101CC000044308E0322000EB09106421B0FBF1F07E
:101CD00000F00F0004432C8106B0BDE8F08700003F
:101CE0000038014001468888C0F30800704700BFF3
:101CF000FEE700000FB4054B10B503A9044A029893
:101D000000F0ECF810BC5DF814FB00005D28000842
:101D10002C00002037B514460846064B6A4621467B
:101D200000F0B8F904466946002000F04AFD20465C
:101D30003EBD0000C327000802E008C8121F08C10A
:101D4000002AFAD170477047002001E001C1121F3C
:101D5000002AFBD1704700002DE9FF5F82B000210F
:101D6000DDE90430020DDDF840B0034318D044F63D
:101D70001050A2F2FF3242431514119801281FD0CF
:101D8000A5EB0B00401C5FEA000A4FF000064E4F27
:101D9000DFF83891B046504615D5CAF1000413E07B
:101DA000119801244AA3012801D16FEA0B0102987E
:101DB000119AC0E90031C0E9024206B0BDE8F09FC7
:101DC000CBF10000DFE704460021404A491842EB0E
:101DD0000450CDE9001012E0E00707D032463B4640
:101DE00040464946FEF77CFA8046894632463B46E5
:101DF00010461946FEF774FA06460F466410002C8A
:101E0000EAD1DDE90401DDE90023BAF1000F06DAC9
:101E1000FEF766FA42464B46FEF762FA05E0FEF729
:101E2000D6FB42464B46FEF7D2FB04460E46002246
:101E3000284BFEF753FC03D84FF0FF30014607E074
:101E40000022254B20463146FEF7A3F9FEF72EFC73
:101E5000102409E0002C0ADB0A220023FEF7F8FA1E
:101E6000039B30321A55641E50EA0102F2D1641C01
:101E7000039AC4F111031444119A012A03D00122D8
:101E800008430DD10AE0084304D000204FF0110BA5
:101E9000119072E7A3EB0B056D1E0DE05B4504DDB1
:101EA0004FF0000205F1010504E003DA4FF00002F3
:101EB000A5F10105002AECD002981199C0E9023180
:101EC000C0E9004579E70000000014400000F03F41
:101ED000300000000000F0430000E03F2DE9FF4F1C
:101EE0008BB09A460F460546002606E025280BD003
:101EF00052460D9990476D1C761C28780028F5D124
:101F00000FB03046BDE8F08F0024A04601226049A2
:101F100000E0044315F8013F203B02FA03F00842B9
:101F2000F7D128782E2817D115F8010F44F00404B2
:101F30002A280ED06FF02F022878A0F1300109294D
:101F40000AD808EB880102EB410100EB01086D1C87
:101F5000F2E757F8048B6D1C287869283ED006DC20
:101F60000028CDD063280BD0642804D136E0732834
:101F700010D075284BD052460D999047761C85E0BD
:101F800017F8040B8DF8000000208DF80100E946D9
:101F9000012003E057F8049B4FF0FF3061074FF03A
:101FA000000401D40AE0641C44450DDA8442FADBE3
:101FB00019F804100029F6D106E0641C8442FCDB09
:101FC00019F804100029F8D1264404E019F8010B8F
:101FD00052460D999047641EF8D257E001CF4FF05A
:101FE0000A0B002802DA40422D2102E0210504D527
:101FF0002B218DF82410012103E0E10705D02021D9
:10200000F7E70DF1200908910CE00021F9E701CF75
:102010004FF00A0BF9E75946FEF704FA01F13002D6
:1020200009F8012D0028F6D1ADEB090000F1200BD5
:10203000600701D44FF00108D84502DDA8EB0B0082
:1020400000E000208046002406E009A85246005D1A
:102050000D999047641C761C08988442F5DB04E0D7
:10206000302052460D999047761CB8F10001A8F136
:102070000108F5DC05E019F8010B52460D9990476F
:10208000761CBBF10001ABF1010BF4DC6D1C34E7F5
:10209000092801002DE9FF4F95B09B468946064669
:1020A00000250FE2252877D100242746F84A012190
:1020B000059400E0044316F8013F203B01FA03F0C9
:1020C0001042F7D130782A2811D06FF02F033078E2
:1020D000A0F13002092A16D8059A44F0020402EB56
:1020E000820203EB42021044761C0590EFE759F898
:1020F000042B0592002A03DA504244F40054059060
:1021000044F00204761C30782E2816D116F8010F00
:1021100044F004042A280DD06FF02F023078A0F18B
:102120003003092B09D807EB870302EB4303C718D9
:10213000761CF3E759F8047B761C30786C280FD0B6
:1021400006DC4C2817D068280DD06A2814D104E08A
:10215000742810D07A280FD10DE044F400140AE05E
:1021600044F4801401E044F440147278824202D1B5
:1021700004F58014761C761C307866280BD013DCAE
:10218000582877D009DC002875D04528F6D0462895
:10219000F4D047281AD19DE118E0632835D064288F
:1021A00079D0652812D195E1702873D008DC6728B2
:1021B000F1D069286FD06E280DD06F2806D1B5E018
:1021C00073282CD0752875D0782874D05A46179962
:1021D00090476D1C75E1C4F30250022809D0032812
:1021E0000DD0D9F8001004280DD00D6009F10409B4
:1021F00067E1D9F80010EA17C1E90052F6E7D9F80B
:1022000000100D80F2E70D70F0E719F8041B8DF84F
:10221000001000208DF80100EA46012003E059F883
:1022200004AB4FF0FF3061074FF0000102D40DE026
:1022300008F101018846B9420FDA8045F8DB1AF847
:1022400008100029F4D108E008F101018846814214
:10225000FADB1AF808100029F6D105985B46A0EBC6
:10226000080721463846179A00F094FA284400EBF4
:10227000080507E04DE029E10DE01AF8010B5A4688
:1022800017999047B8F10108F7D25B4621463846C6
:10229000179A13E142E00A220092C4F302524FF06F
:1022A000000A022A08D059F804CB032A4FEAEC713D
:1022B0000AD00DE029E02AE009F1070121F0070228
:1022C000F2E802C1914609E00FFA8CFC4FEAEC718A
:1022D000042A03D14FFA8CFC4FEAEC71002907DA8B
:1022E0000A460021DCF1000C61EB02012D2202E024
:1022F000220504D52B228DF80420012203E0E207F9
:1023000001D02022F7E7904659E00A2102E010228E
:102310000DE010214FF0000A00910BE010224FF069
:10232000000A44F004040827009203E008224FF05A
:10233000000A0092C4F30252022A05D059F804CBD5
:102340000021032A08D009E009F1070121F0070262
:10235000F2E802C1914605E01FFA8CFC042A01D183
:102360000CF0FF0C4FF00008220728D5702806D08B
:10237000009B83F0100353EA0A0305D00EE04022CD
:102380008DF80420012208E05CEA010206D0302228
:102390008DF804208DF8050002229046009B83F002
:1023A000080353EA0A030AD15CEA010201D1620779
:1023B00005D530228DF804204FF001087F1E5828E3
:1023C00004D034A003900EA802900DE036A0F9E7E7
:1023D00053466046009AFEF73BF884460398825CB9
:1023E0000298401E029002705CEA0100F0D102984F
:1023F00006A9081A00F1200A600702D524F48034E7
:1024000000E00127574502DDA7EB0A0000E00020AD
:1024100000EB0A01009005984144401A0590E00342
:1024200006D45B462146179A059800F0B3F9054497
:10243000002706E001A85A46C05D179990476D1C19
:102440007F1C4745F6DBE0030CD55B462146179A17
:10245000059800F09FF9054404E030205A4617998A
:1024600090476D1C0099481E00900029F5DC08E09B
:10247000029802995A460078491C02911799904790
:102480006D1CBAF10001AAF1010AF1DC65E100005E
:10249000092801003031323334353637383961623A
:1024A00063646566000000003031323334353637FE
:1024B00038394142434445460000000000F058F9D5
:1024C0000544761C307800287FF4ECAD19B028461E
:1024D000BDE8F08F620700D4062709F1070222F059
:1024E000070CFCE80223E14603F000485FEA080C11
:1024F00002D00FF2702C0DE05FEA045C02D50FF2FF
:10250000682C07E05FEAC47C02D00FF2602C01E087
:10251000AFF2700C4FF0FF3823F00043CDF850C0FD
:1025200065280CD006DC452809D046281DD0472850
:102530003DD13DE0662818D067287ED138E00021E3
:10254000112F01DB112000E0781CCDE9000106A964
:102550000EA8FFF701FCDDE90F010E9A039100219F
:10256000009207F1010A04914DE04FF000400097FE
:10257000CDE9011006A90EA8FFF7EEFBDDE90F0279
:1025800003920E9B11990022DDF80CA00093049297
:1025900011B9791C00EB010AB7EB0A0004D4C0F1B1
:1025A000FF3007F1010A0490AAEB0700019044E014
:1025B000012F00DA01270021112F01DD112000E099
:1025C0003846CDE9000106A90EA8FFF7C5FBDDE9F5
:1025D0000F010E9A0391002104910092BA4621073F
:1025E0000CD40399514500DA8A46BAF1010F05DD92
:1025F000009AAAF10101515C302908D0B84202DAF0
:1026000010F1040F06DA0121CDE9011015E0AAF15D
:102610000101E9E7002805DC049901440491AAEBD3
:10262000000102E0411C514500DD8A460499401A30
:10263000401C01904FF000400290200704D4019804
:10264000504501DBCDF8048000208DF84F00029842
:102650000DF14F07B0F1004F25D02B200E900298BE
:102660004FF0020800280CDA404202902D200E9014
:1026700007E00A210298FDF7D5FE3031029007F8F5
:10268000011DB8F10001A8F10108F2DC0298002850
:10269000EFD1791E0E980870307800F0200040F0DD
:1026A000450007F8020D12A8C01B00F10708149896
:1026B000007800B1012000EB0A01019801EBE07104
:1026C00005984144401A401E0590E00306D45B463D
:1026D0002146179A059800F05DF805441498007893
:1026E00018B15A46179990476D1CE00324D55B46F4
:1026F0002146179A059800F04DF805441CE004980F
:10270000002807DBDDE90301884203DD0098405C17
:10271000179901E0179930205A469047049805F11F
:102720000105401C04900198401E019004D12E2008
:102730005A46179990476D1CBAF10001AAF1010A97
:10274000DDDC05E017F8010B5A46179990476D1C20
:10275000B8F10001A8F10108F4DC5B462146179AA4
:102760000598ABE62D0000002B00000020000000C3
:102770002DE9F041044600251E461746880404D47E
:1027800005E039462020B0476D1C641EF9D5284667
:10279000BDE8F0812DE9F041044600251E46904633
:1027A000C80301D5302700E02027880404D505E0C0
:1027B00041463846B0476D1C641EF9D52846BDE831
:1027C000F0810A68531C0B601070704710B56FF0F1
:1027D0000400FEF717FC0A4800680A49B0FBF1F054
:1027E000094908700846007800EB4001C1EBC010B1
:1027F0004FF6FF7101EAC0000449088010BD0000D7
:102800001400002000127A00280000202A00002076
:102810000146114A12884A434FF0E0235A610022D0
:102820009A611A46126942F001021A6100BF4FF024
:10283000E022106900F001021AB100F48032002A8F
:10284000F5D04FF0E022126922F001024FF0E023B0
:102850001A6100229A6170472A00002000BF054AD1
:10286000128802F04002002AF9D0C2B2014B1B1DAF
:102870001A807047003801400024FFF7A7FF0021AD
:1028800041F61F40FEF758FC4FF4165000F0CAF80E
:102890004FF41650FFF796F84FF4FA70FEF742F92E
:1028A00063E03248008800F4004000285DD02F48E3
:1028B000047800202E4908552EA0FFF71BFA214668
:1028C00031A0FFF717FA032C01D0042C4AD131A113
:1028D0002748FDF750FC38B92FA000F083F8642199
:1028E0005020FEF74BF93DE02EA12148FDF743FCB7
:1028F00038B92DA000F076F864215020FEF7F4F8E6
:1029000030E02CA11A48FDF736FC38B92AA000F0B7
:1029100069F864215020FEF7CEF823E029A114487D
:10292000FDF729FC38B928A000F05CF8642150209C
:10293000FEF7AAF816E027A10D48FDF71CFC30B9F8
:1029400025A000F04FF86420FEF7ECF80AE024A17F
:102950000748FDF710FC28B91FA000F043F86420D9
:10296000FEF7E0F80020014908809AE73E000020C9
:10297000D00100205553415254325F52585F4255A6
:10298000463A25730A0000007265636C656E3A254D
:10299000640A00004F4E4100676F20666F727761D6
:1029A000726421004F4E4200676F206261636B21A9
:1029B000000000004F4E4400676F20726967687422
:1029C000210000004F4E4300676F206C6566742144
:1029D000000000004F4E460053746F70210000004D
:1029E0004F4E45000FB438B505A800900B48009A2B
:1029F0000499FFF78FF90020009000BF0848FDF709
:102A00004BFF0028FAD10548FDF7AEFBC4B22146C2
:102A10000348FEF753FF38BC5DF814FB08010020A3
:102A20008000024010B586B00446012144F2040043
:102A3000FEF72CF94FF40070ADF8140003208DF868
:102A4000160018208DF8170005A91C48FDF784FF13
:102A50004FF48060ADF8140004208DF8170005A92C
:102A60001648FDF779FF25208DF8000003208DF82A
:102A700001008DF8020001208DF803006846FEF782
:102A80009BF801940020ADF80800ADF80A00ADF8FD
:102A90000C00ADF810000C20ADF80E0001A908489C
:102AA000FFF7B4F8012240F225510548FFF788F8F6
:102AB00001210348FEF7F6FF06B010BD00080140F3
:102AC00000380140E42A0008000000204000000017
:102AD000381D0008242B0008400000205806000084
:102AE000481D000800000000010203040102030465
:102AF000060708090204060800A24A0400000000B4
:102B0000000000000102030406070809000000009D
:102B100000000000000000000000000000000000B5
:042B200000000000B1
:0400000508000145A9
:00000001FF
