:020000040800F2
:1000000000050020450100084D0C00083B0B0008CE
:10001000490C000881070008A5190008000000002D
:10002000000000000000000000000000D90D0008E2
:100030008507000800000000C10C000865100008DA
:100040005F0100085F0100085F0100085F01000810
:100050005F0100085F0100085F01000889070008D0
:100060005F0100085F0100085F0100085F010008F0
:100070005F0100085F0100085F0100085F010008E0
:100080005F0100085F0100085F0100085F010008D0
:100090005F0100085F0100085F0100085F010008C0
:1000A0005F0100085F0100085F0100085F010008B0
:1000B000C91000085F0100085F0100085F01000827
:1000C0005F0100085F0100085F0100085F01000890
:1000D0005F010008C51600085F0100085F01000805
:1000E0005F0100085F0100085F0100085F01000870
:1000F0005F0100085F0100085F0100085F01000860
:100100005F0100085F0100085F0100085F0100084F
:100110005F0100085F0100085F0100085F0100083F
:100120005F0100085F0100085F0100085F0100082F
:10013000DFF80CD000F012FB00480047B11C0008AB
:10014000000500200648804706480047FEE7FEE716
:10015000FEE7FEE7FEE7FEE7FEE7FEE7FEE7FEE777
:10016000691000083101000880EA010210B502F0B0
:100170000043400022D04A001FD0010E01EB126163
:10018000C0F35600C2F3560240F4000042F40002ED
:10019000A0FB022000047F39140400D0401C50EA68
:1001A000124001D44000491EC2B20C0604EBD0102C
:1001B000401C4008802A02D003E0002010BD20F03F
:1001C0000100002900DA0020184310BD2DE9FE4F80
:1001D000804681EA0300C00F0C46009021F00041E8
:1001E00023F00045B8EB0200A94105D24046214664
:1001F00090461C460B46024623F00040104347D071
:10020000270DC7F30A00C3F30A510290401A019068
:1002100040286BDAC3F3130040F4801B0098924629
:1002200020B10023D2EB030A63EB0B0B0198594674
:10023000C0F14002504600F0CCF906460D4650464B
:100240005946019A00F0E4F910EB080061410024DE
:1002500087EA115284EAE7731A4340D0009A62B3E6
:10026000019A012A4FEA075215DC001B61EB0201DB
:100270004FF0004202EA0752CDE90042001C41F56E
:10028000801132462B4600F01BFA03B0BDE8F08F18
:1002900040462146F9E7001B61EB0201001C41F5D5
:1002A000801300185B412018A2F5001747EB0301EB
:1002B00040EAD570B6196D4111E06D084FEA360677
:1002C00045EAC0754FEA0752001B61EB0201001CB2
:1002D00041F5801149084FEA30000019514132467A
:1002E0002B4603B0BDE8F04F00F0DBB900980122C7
:1002F00040000023D0EB020263EBE073009821463C
:100300004FEAE074B8EB000061EB0401E9E783F029
:1003100000435BE781F0004158E72DE9FE4F81EA99
:10032000030404F0004421F0004100944FF0000B5E
:1003300023F0004350EA01045ED052EA03045BD08C
:10034000C3F30A54C1F30A552C44A4F2F3340194C4
:10035000A0FB0254C1F3130141F48011C3F3130352
:1003600043F4801301FB024400FB034E840A970A06
:1003700044EA815447EA8357A4FB076802958D0A33
:1003800005FB07854FEA932C04FB0C542705029DBF
:100390004FEA065847EA1637B5EB08056EEB070C2F
:1003A000870E920E47EA811742EA8312A7FB0201E9
:1003B000B6EB0B0164EB00042B0D43EA0C335E1823
:1003C00044EB1C50DA465146E7FB0201C5F3130427
:1003D0004FEA0B3343EA14534FEA0432019C43EAD9
:1003E0000603A4F10C040294009CCDE900B400F0D3
:1003F00067F903B0BDE8F08F00200146F9E72DE969
:10040000F04D81EA030404F0004B21F0004514464E
:100410004FF0000A23F0004150EA050220D054EAD0
:1004200001021DD0C5F30A570246C5F31303C1F3F9
:100430001300C1F30A5640F4801543F48013A7EB70
:100440000608101BD64608F2FD3873EB050002D3F0
:1004500008F1010801E092185B41B8F1000F03DADE
:1004600000200146BDE8F08D00204FF480110646C3
:1004700084460EE0171B73EB050705D3121B63EBD5
:10048000050306434CEA010C49084FEA3000921874
:100490005B4150EA0107EDD152EA030012D082EA33
:1004A000040083EA0501084305D0101BAB4106D2C6
:1004B0000122002306E000224FF0004302E06FF02B
:1004C000010253101AEB06004CEB085110EB0A0026
:1004D00041EB0B01BDE8F04D00F0E3B80EB5C10FE4
:1004E00080EAE0700844CA07002140F233438DE8F7
:1004F0000E000A460B4600F0E3F803B000BD00F022
:10050000004220F00040C10DC0F3160040F400008E
:100510007F2901DA00207047962903DCC1F196019A
:10052000C84001E096398840002AF4D04042704724
:1005300070B5C1F30A5201F000450024C1F3130164
:1005400040F2FF3341F480119A4201DA002070BD7D
:1005500040F233439A42A2F2334203DC524200F0AB
:1005600047F800E090402C43F1D0404270BD01F0CC
:10057000004330B421F0004150EA010206D00A0DD8
:10058000A2F56072C1F31301002A02DC30BC002026
:100590007047440F44EAC104C100E01830BC00EBCE
:1005A000C25000F047B830B50B460146002020226B
:1005B000012409E021FA02F59D4205D303FA02F570
:1005C000491B04FA02F52844151EA2F10102F1DCD0
:1005D00030BD202A04DB203A00FA02F100207047E7
:1005E0009140C2F1200320FA03F319439040704771
:1005F000202A04DB203A21FA02F00021704721FA78
:1006000002F3D040C2F120029140084319467047DE
:10061000202A06DBCB17203A41FA02F043EAE073C6
:1006200006E041FA02F3D040C2F1200291400843B3
:10063000194670470029A8BF7047401C490008BFF1
:1006400020F00100704710B4B0FA80FC00FA0CF002
:1006500050EA010404BF10BC704749B1CCF120043A
:1006600021FA04F411FA0CF118BF012121430843C7
:10067000A3EB0C01CB1D4FEA00614FEA102042BFF3
:10068000002010BC704700EBC35010440029A4BFE9
:1006900010BC7047401C490008BF20F0010010BC8E
:1006A000704710B5141E73F1000408DA401C41F1C4
:1006B000000192185B411A4301D120F0010010BDE6
:1006C0002DE9F04D92469B4611B1B1FA81F202E05C
:1006D000B0FA80F220329046FFF77BFF04460F46C7
:1006E00040EA0A0041EA0B0153465A46084313D038
:1006F000114653EA010019D0C8F140025046FFF7F5
:1007000077FF05460E46504659464246FFF761FFC1
:10071000084305D0012004E020463946BDE8F08DAD
:100720000020054346EAE0762C4337430A986305E8
:10073000E40AA0EB08000022FD0A44EA47540A300C
:1007400002D500200146E9E7010510196941DDE9FC
:10075000084500196941BDE8F04DA2E7064C074D78
:1007600006E0E06840F0010394E807009847103481
:10077000AC42F6D3FFF7E0FCEC1D00080C1E0008AD
:1007800000BFFEE7704700002DE9F0410A2001F0AC
:100790001DFA022000F03EF868B300214FF08040BF
:1007A00000F00EFF0121880700F06DFD00BF02215F
:1007B000124800F038F90028F9D100214FF08040AC
:1007C00000F061FD4FF0804000F078FD00EB80000C
:1007D00000EB001044002046FFF780FE0546002293
:1007E000074BFFF70CFE0746FFF7C1FE05490860FF
:1007F000022000F009F8BDE8F0810000001001407F
:100800000000694034000020014908607047000082
:1008100014040140014600200022074B1B6803EA34
:100820000102054B14331B680B4013B10AB10120C0
:1008300000E000207047000000040140002123492F
:100840008279002A3AD00A46126803689A430B4616
:100850001A600A1D126803689A430B1D1A60027918
:1008600011440A6803681A430A60184A0832126879
:1008700003689A43154B08331A601A1D12680368FF
:100880009A43124B0C331A604279102A0ED11A1F68
:10089000126803681A430D4B08331A601A1D126858
:1008A00003681A43094B0C331A600DE0074942797B
:1008B00011440A6803681A430A6005E0027911448A
:1008C0000A6803689A430A60704700000004014008
:1008D00030B500228B071C0F0F2303FA04F20B4BD9
:1008E0008C1053F824309343084C8D1044F8253075
:1008F00023468C1053F824308C07240F00FA04F49C
:100900002343024C8D1044F8253030BD08000140CF
:100910002DE9F04102460025002600200023002496
:10092000002791F803C00CF00F0591F803C00CF0FC
:10093000100CBCF1000F03D091F802C04CEA050581
:1009400091F800C0BCF1000F31D0146800202BE0FA
:100950004FF0010C0CFA00F3B1F800C00CEA0306EA
:100960009E4220D183004FF00F0C0CFA03F7BC43DA
:1009700005FA03FC4CEA040491F803C0BCF1280F0B
:1009800006D14FF0010C0CFA00FCC2F814C00AE0CA
:1009900091F803C0BCF1480F05D14FF0010C0CFADF
:1009A00000FCC2F810C0401C0828D1D31460B1F874
:1009B00000C0BCF1FF0F34DD546800202EE000F1D0
:1009C000080C4FF0010808FA0CF3B1F800C00CEA6B
:1009D00003069E4221D183004FF00F0C0CFA03F75F
:1009E000BC4305FA03FC4CEA040491F803C0BCF1D3
:1009F000280F05D100F1080C08FA0CF8C2F8148091
:100A000091F803C0BCF1480F07D100F1080C4FF07A
:100A1000010808FA0CF8C2F81080401C0828CED350
:100A20005460BDE8F0810246002093680B400BB192
:100A3000012000E00020704741617047016170476C
:100A400070B504460D46604246B23146012000F0C2
:100A5000C5F90021084600F0C1F93146012000F037
:100A60001BFA0021084600F017FAA8B201F088F836
:100A700070BD2DE9F04104460D46C4F1640046B254
:100A8000704247B23146012000F0A8F939460020F3
:100A900000F0A4F93146012000F0FEF939460020AB
:100AA00000F0FAF9A8B201F06BF8BDE8F08100009F
:100AB00010B504460021012000F090F900210846FD
:100AC00000F08CF94FF480410E48FFF7B5FF4FF46A
:100AD00080510C48FFF7B0FF0021012000F0DCF945
:100AE0000021084600F0D8F94FF400410548FFF70F
:100AF000A3FF4FF400510348FFF79EFFA0B201F09F
:100B00003FF810BD000C014070B504460D46604230
:100B100046B23146012000F061F92146002000F084
:100B20005DF93146012000F0B7F92146002000F0C0
:100B3000B3F9A8B201F024F870BD00BFFEE70000D1
:100B400008B501210C2000F0CDF82020ADF8000000
:100B500048208DF8030003208DF8020069460848FC
:100B6000FFF7D6FE1020ADF8000048208DF80300F6
:100B700003208DF8020069460148FFF7C9FE08BD51
:100B8000000C014008B50121142000F0ABF84FF42F
:100B90000050ADF8000048208DF8030003208DF8C8
:100BA000020069460848FFF7B3FE4FF40060ADF855
:100BB000000048208DF8030003208DF802006946EC
:100BC0000148FFF7A5FE08BD0010014008B501214E
:100BD0001C2000F087F81020ADF8000048208DF8A8
:100BE000030069461548FFF793FE4FF40070ADF817
:100BF000000010208DF8030003208DF802006946E4
:100C00000F48FFF785FE0420ADF8000010208DF896
:100C1000030003208DF8020069460A48FFF778FEBA
:100C20000820ADF8000010208DF8030003208DF897
:100C3000020069460348FFF76BFE08BD0010014043
:100C4000000801400014014000BFFEE770470000AB
:100C500070B5002100230F22C47804B3154C24681A
:100C600004F4E064C4F5E064210AC1F10403CA405D
:100C7000447804FA03F184781440214309010E4CAE
:100C80000678A155047804F01F050124AC400578CE
:100C90006D11AD0005F1E025C5F8004109E00478CB
:100CA00004F01F050124AC40044D0678761145F888
:100CB000264070BD0CED00E000E400E080E100E0C3
:100CC0007047000029B1064AD2690243044BDA6139
:100CD00004E0034AD2698243014BDA6170470000A5
:100CE0000010024029B1064A92690243044B9A61FE
:100CF00004E0034A92698243014B9A617047000005
:100D00000010024030B500210022002400232D4DA8
:100D10006D6805F00C0121B1042905D0082923D103
:100D200005E0294D056022E0274D05601FE0254DB7
:100D30006D6805F47012234D6D6805F4803402254A
:100D400005EB92421CB9214D554305600BE01D4D4A
:100D50006D6805F400351DB11C4D5543056002E07A
:100D6000194D5543056002E0174D056000BF00BFF7
:100D7000144D6D6805F0F0010909154D6B5C0568AF
:100D8000DD4045600F4D6D6805F4E061090A104DC6
:100D90006B5C4568DD4085600A4D6D6805F4605107
:100DA000C90A0B4D6B5C4568DD40C560054D6D683B
:100DB00005F44041890B074D6B5CC568B5FBF3F545
:100DC000056130BD0010024000127A0000093D00AC
:100DD0000000002010000020704700002DE9FC47B3
:100DE00082460C46642C00DB642414F1640F01DCA1
:100DF0006FF063042046FFF771FB21F000410746C6
:100E00000022214BFFF789FA054600221F4BFFF70E
:100E100081FACDE90001FFF78BFB0FFA80F9BAF1F7
:100E2000000F03D0BAF1010F2AD114E01FFA89F1A3
:100E3000174800F0C0FB002C05DD4FF48041154839
:100E4000FFF7FAFD06E0002C04DA4FF48041114868
:100E5000FFF7F4FD14E01FFA89F10D4800F0A7FB3D
:100E6000002C05DD4FF480510A48FFF7E7FD06E04E
:100E7000002C04DA4FF480510648FFF7DDFD00BF77
:100E800000BFBDE8FC870000000052400021BC40CC
:100E900000080040000C01402DE9FC4782460C464A
:100EA000642C00DB642414F1640F01DC6FF0630434
:100EB0002046FFF713FB21F0004107460022214B9B
:100EC000FFF72BFA054600221F4BFFF723FACDE967
:100ED0000001FFF72DFB0FFA80F9BAF1000F03D0E4
:100EE000BAF1010F2AD114E01FFA89F1174800F076
:100EF00064FB002C05DD4FF400411548FFF79CFD15
:100F000006E0002C04DA4FF400411148FFF796FD8B
:100F100014E01FFA89F10D4800F04BFB002C05DDB1
:100F20004FF400510A48FFF789FD06E0002C04DA6F
:100F30004FF400510648FFF77FFD00BF00BFBDE83A
:100F4000FC870000000052400021BC400008004027
:100F5000000C014010B500F001F810BD0CB50020E8
:100F6000019000903348006840F4803031490860B7
:100F700000BF3048006800F4003000900198401C29
:100F80000190009818B90198B0F5A06FF1D12948E7
:100F9000006800F4003010B10120009001E0002052
:100FA00000900098012843D12348006840F01000C9
:100FB000214908600846006820F0030008600846E0
:100FC000006840F0020008601A484068194948600B
:100FD0000846406848600846406840F480604860C1
:100FE0000846406820F47C1048600846406840F499
:100FF000E81048600846006840F08070086000BF54
:101000000C48006800F000700028F9D009484068DA
:1010100020F00300074948600846406840F002009D
:10102000486000BF0348406800F00C000828F9D170
:101030000CBD00000010024000200240042808D12E
:101040004FF0E021096941F004014FF0E022116105
:1010500007E04FF0E021096921F004014FF0E022A0
:10106000116170477047000010B51348006840F0E8
:1010700001001149086008464068104908400E49BF
:101080004860084600680E4908400B490860084659
:10109000006820F4802008600846406820F4FE00C4
:1010A00048604FF41F008860FFF754FF4FF0006066
:1010B0000449086010BD0000001002400000FFF865
:1010C000FFFFF6FE08ED00E010B50121880700F0F3
:1010D000F8F818B10121880700F0D2F810BD00001F
:1010E00030B589B005460C4601210420FFF7EAFD22
:1010F00001210820FFF7F6FD4FF48050ADF8040001
:1011000003208DF8060010208DF8070001A954482F
:10111000FFF7FEFB4020ADF8040003208DF8060029
:1011200018208DF8070001A94D48FFF7F1FB4FF497
:101130008040ADF8040003208DF8060010208DF8E3
:10114000070001A94648FFF7E3FB4FF48070ADF8B4
:10115000040003208DF8060018208DF8070001A96F
:101160003F48FFF7D5FB4FF40050ADF804000320D3
:101170008DF8060010208DF8070001A93848FFF708
:10118000C7FB8020ADF8040003208DF8060018206E
:101190008DF8070001A93248FFF7BAFB4FF4004071
:1011A000ADF8040003208DF8060010208DF807002C
:1011B00001A92B48FFF7ACFB4FF40070ADF8040019
:1011C00003208DF8060018208DF8070001A9244897
:1011D000FFF79EFBADF81C50ADF818400020ADF8AD
:1011E0001E00ADF81A0006A91E4800F0EBF97020A9
:1011F000ADF808000120ADF80A000020ADF80E009F
:10120000ADF8100002A9174800F02CF902A9154802
:1012100000F072F802A9134800F0C4F802A91148BE
:1012200000F07AF901210F4800F039F808210D4843
:1012300000F068F908210B4800F0AAF808210948D5
:1012400000F002F90821074800F0A4F9012105483F
:1012500000F00AF80121034800F015F809B030BD8C
:10126000000C01400008004021B1028842F08002D9
:10127000028004E002884FF67F731A4002807047B4
:10128000CA430282704721B1028842F00102028003
:1012900004E002884FF6FE731A400280704731B1B5
:1012A000B0F8442042F40042A0F8442005E0B0F831
:1012B0004420C2F30E02A0F8442070470146888CF7
:1012C000704730B50246002000230024158A05EA45
:1012D0000103958905EA010413B10CB1012000E076
:1012E000002030BD1AB183890B43838102E08389DA
:1012F0008B4383817047000070B5002400220023D7
:10130000058C4FF6FE7635400584028C8388048B6D
:101310004FF68F752C40B51E2C400D882C43751E42
:101320002A400D892A434D882A43144DA8420BD0E8
:10133000134DA84208D0134DA84205D0124DA84223
:1013400002D0124DA84213D14FF6F7752A404D89AD
:101350002A434FF6FB752A408D882A434FF6FF65D6
:101360002B404FF6FF552B408D892B43CD892B43C6
:1013700083800483CD888586028470BD002C014063
:101380000034014000400140004401400048014059
:101390000A460021018B4FF6F77319401143018370
:1013A0007047000070B5002400220023058C4FF622
:1013B000EF7635400584028C8388048B48F6FF75F0
:1013C0002C404FF6FF452C400D884FF6FF7606EA7D
:1013D00005252C434FF6DF752A400D8906EA0515D1
:1013E0002A434D8806EA05152A43154DA84202D026
:1013F000144DA8421DD14FF67F752A404D894FF6F6
:10140000FF7606EA05152A434FF6BF752A408D88F8
:1014100006EA05152A434FF6FF352B404FF2FF75BC
:101420002B408D8906EA85052B43CD8906EA850583
:101430002B4383800483CD880587028470BD000020
:10144000002C0140003401400A460021018B4FF27C
:10145000FF7319404FF6FF7303EA02231943018318
:101460007047000070B5002400220023058C4FF661
:10147000FF6635400584028C8388848B4FF68F7518
:101480002C404FF6FC752C400D882C434FF6FF5531
:101490002A400D894FF6FF7606EA05252A434D8836
:1014A00006EA05252A43154DA84202D0144DA8424C
:1014B0001DD14FF2FF752A404D894FF6FF7606EA9F
:1014C00005252A434FF6FF352A408D8806EA052573
:1014D0002A434EF6FF752B404DF6FF752B408D8944
:1014E00006EA05152B43CD8906EA05152B438380B3
:1014F0008483CD888587028470BD0000002C014064
:10150000003401400A460021818B4FF6F7731940E1
:10151000114381837047000070B50022002300242E
:10152000058C4EF6FF7635400584038C8488828BCB
:1015300048F6FF752A404FF6FF452A400D884FF6C2
:10154000FF7606EA05252A434DF6FF752B400D89E7
:1015500006EA05352B434D8806EA05352B430B4D2E
:10156000A84202D00A4DA84208D14BF6FF752C4084
:101570008D894FF6FF7606EA85152C438480828399
:10158000CD88A0F84050038470BD0000002C0140BD
:10159000003401400A460021818B4FF2FF7319404D
:1015A0004FF6FF7303EA0223194381837047818654
:1015B00070470187704781877047A0F840107047D7
:1015C00081847047002202881D4B98420ED01D4B2B
:1015D00098420BD0B0F1804F08D01B4B984205D0F9
:1015E0001A4B984202D01A4B984204D14FF68F738F
:1015F0001A404B881A43174B984207D0164B984213
:1016000004D04FF6FF431A40CB881A4302808B88E0
:1016100083850B8803850A4B98420BD0094B98426F
:1016200008D00E4B984205D00D4B984202D00D4B7E
:10163000984201D10B7A0386012383827047000010
:10164000002C01400034014000040040000800402C
:10165000000C004000100040001400400040014019
:1016600000440140004801407FB504460D46012179
:101670000846FFF727FB41F28830ADF8080041F635
:101680001F40ADF804000020ADF80A00ADF80600D8
:1016900001A94FF08040FFF795FF01224121880703
:1016A000FFF720FE1C208DF8000000208DF80100BF
:1016B00003208DF8020001208DF803006846FFF733
:1016C000C7FA7FBD10B540F225511D4800F04AF819
:1016D00010B31B4800F002F9C4B21A48008800F4A5
:1016E0000040C8B91748008800F4804060B10A2C57
:1016F00003D000201349088020E01248008840F4FD
:1017000000401049088019E00D2C06D10D480088D2
:1017100040F480400B49088010E00A480088C0F37C
:101720000D0009490C5407480088401C05490880F1
:1017300008460088C72801DD0020088010BD000091
:1017400000380140300000203800002021B182899B
:1017500042F40052828104E082894DF6FF731A4000
:101760008281704770B502460024002300250020C6
:1017700040F66A16B14200D100BFC1F3421501F034
:101780001F03012606FA03F3012D02D19689334087
:1017900006E0022D02D1168A334001E0968A3340DA
:1017A0000C12012606FA04F41688344013B10CB169
:1017B000012000E0002070BDF0B5034600240026A3
:1017C0000025002040F66A17B94200D100BF184634
:1017D000C1F3421401F01F06012707FA06F5012C98
:1017E00001D10C3004E0022C01D1103000E01430A3
:1017F0001AB107682F43076002E00768AF4307602C
:10180000F0BD00002DE9F04786B005460E460024E5
:10181000A24600BFA1460027B08900B100BF2F46F5
:101820002C8A4CF6FF700440F08804432C82AC896B
:101830004EF6F3100440B08831890843718908439B
:101840000443AC81AC8A4FF6FF400440B0890443A6
:10185000AC8201A8FFF756FA1F48874202D1DDF893
:1018600010A001E0DDF80CA0A88900F4004040B110
:101870000AEBCA0000EB0A1031684900B0FBF1F82E
:1018800007E00AEBCA0000EB0A1031688900B0FBE0
:10189000F1F86420B8FBF0F004012009642101FB99
:1018A0001089A88900F4004040B1322000EBC90043
:1018B000B0FBF1F000F00700044308E0322000EB39
:1018C00009106421B0FBF1F000F00F0004432C81FB
:1018D00006B0BDE8F0870000003801400146888866
:1018E000C0F30800704700001FB501211120FFF769
:1018F000F9F90120ADF80C0010208DF80F0003203D
:101900008DF80E0003A91748FFF702F80220ADF882
:101910000C0028208DF80F0003A91248FEF7F8FFED
:1019200001210220FEF7D4FF0220019000208DF853
:10193000080008208DF8090001208DF80A0001A890
:10194000FEF77CFF07208DF8000002208DF80100D3
:101950008DF8020001208DF803006846FFF778F942
:101960001FBD00000010014070B501210A48FFF7BB
:1019700065F8142000F02AF901210748FFF75CF808
:10198000064907480068FEF7EFFB0546FEF7B7FD7E
:101990000446204670BD00000010014000002041B8
:1019A0003400002000BFFEE70FB4054B10B503A9BB
:1019B000044A029800F018F810BC5DF814FB00000F
:1019C000191C00082C00002002E008C8121F08C1E2
:1019D000002AFAD170477047002001E001C1121FB0
:1019E000002AFBD1704700002DE9FF4F89B09B46CC
:1019F0000446002506E025280BD05A460B9990474F
:101A0000641C6D1C20780028F5D10DB02846BDE877
:101A1000F08F0027B8460122474900E0074314F839
:101A2000013F203B02FA03F00842F7D120782E282C
:101A300019D114F8010F47F004072A280ED06FF0CF
:101A40002F022078A0F1300109290CD808EB880179
:101A500002EB410100EB0108641CF2E70A98641CE8
:101A600050F8048B0A9020780028CED0642808D043
:101A7000692806D075281ED05A460B9990476D1CD0
:101A800058E00A994FF00A0901C90A91002802DAC0
:101A900040422D2102E0390504D52B218DF820107C
:101AA000012103E0F90704D02021F7E78A4608AEB8
:101AB0000DE00021FAE70A994FF00A0901C90A91DD
:101AC000F7E74946FEF76FFD303106F8011D0028A3
:101AD000F7D1ADEB060000F12009780701D44FF0F3
:101AE0000108C84502DDA8EB090000E0002080469F
:101AF000002706E008A85A46C05D0B9990476D1C68
:101B00007F1C5745F6DB04E030205A460B9990477E
:101B10006D1CB8F10001A8F10108F5DC05E016F82C
:101B2000010B5A460B9990476D1CB9F10001A9F1C0
:101B30000109F4DC641C65E70928010010B56FF0A9
:101B40000400FFF77BFA0A4800680A49B0FBF1F08D
:101B5000094908700846007800EB4001C1EBC0104D
:101B60004FF6FF7101EAC0000449088010BD000073
:101B70001400002000127A00280000202A00002013
:101B80000146114A12884A434FF0E0235A6100226D
:101B90009A611A46126942F001021A6100BF4FF0C1
:101BA000E022106900F001021AB100F48032002A2C
:101BB000F5D04FF0E022126922F001024FF0E0234D
:101BC0001A6100229A6170472A0000200146114ADA
:101BD00012784A434FF0E0235A6100229A611A4674
:101BE000126942F001021A6100BF4FF0E022106951
:101BF00000F001021AB100F48032002AF5D04FF053
:101C0000E022126922F001024FF0E0231A61002263
:101C10009A6170472800002000BF054A128802F030
:101C20004002002AF9D0C2B2014B1B1D1A80704736
:101C30000038014010B510211B48FEF7F4FE0446A1
:101C400004E010211848FEF7EEFE04461021164865
:101C5000FEF7E9FE0028F4D01EE00A20FFF790FF0F
:101C600010211148FEF7DFFE0446012C0FD10102BE
:101C70000E48FEF7E3FE04E04FF480710B48FEF7D8
:101C8000DBFE10210848FEF7CEFE28B9F4E74FF43A
:101C900080710648FEF7D0FE10210348FEF7C3FE10
:101CA0000028DAD110BD00000010014000080140FA
:101CB000FFF744FFFEF78AFFFEF764FFFEF740FFE1
:101CC00041F61F4141F28830FFF7CEFCFFF70CFED2
:101CD0004FF4E13000F03AF8002141F61F40FFF7E1
:101CE000FFF94FF4FA70FEF7E3FEFFF7A3FF21E0E0
:101CF000FFF73AFE044621460FA0FFF755FEFFF717
:101D000033FE502812DA4FF4FA70FEF7D1FE4FF48A
:101D10007A714620FEF7ADFE4FF4FA70FEF7C8FE6A
:101D20004FF4FA714620FEF78BFE03E001214620B6
:101D3000FEF7EAFEDCE70000B2E2B5BDB5C4BEE0E6
:101D4000C0EBD6B5CEAAA3BA25640A0010B586B0FA
:101D50000446012144F20400FEF7C4FF4FF4007072
:101D6000ADF8140003208DF8160018208DF8170028
:101D700005A91C48FEF7CCFD4FF48060ADF81400B7
:101D800004208DF8170005A91648FEF7C1FD25208F
:101D90008DF8000003208DF801008DF8020001206D
:101DA0008DF803006846FEF753FF01940020ADF85C
:101DB0000800ADF80A00ADF80C00ADF810000C20DA
:101DC000ADF80E0001A90848FFF71CFD012240F202
:101DD00025510548FFF7F0FC01210348FFF7B6FC49
:101DE00006B010BD00080140003801400C1E00087C
:101DF0000000002038000000C8190008441E000838
:101E000038000020C8040000D819000800000000B5
:101E1000010203040102030406070809020406087C
:101E200000A24A04000000000000000001020304B8
:101E30000607080900000000000000000000000084
:041E4000000000009E
:0400000508000145A9
:00000001FF
